{
	"data": {
		"bytecode": {
			"linkReferences": {},
			"object": "60a060405234801561000f575f5ffd5b5033608052426004556080516142d261007d5f395f818161069e01528181610783015281816108bd01528181610af501528181610c8e0152818161180601528181611a65015281816120690152818161210f01528181612250015281816124f301526125b201526142d25ff3fe60806040526004361061021b575f3560e01c806379c8bfa511610121578063cc3c74a1116100a4578063e615193a1161006b578063e615193a146106f4578063e941122314610709578063f8b2cb4f1461071e578063fe9fbb801461073d578063feb5c1de1461076b57005b8063cc3c74a114610663578063d56d681014610678578063d5f394881461068d578063da742228146106c0578063e229cd76146106df57005b80638b1e24ab116100e85780638b1e24ab146105775780638dbc45151461058b57806395874631146105aa578063afcdb131146105c9578063c66da997146105e257005b806379c8bfa5146104e25780637da0a877146104f75780637f2640761461052e5780637f917d0b146105445780638456cb591461056357005b80632e2b4fef116101a95780634bfea816116101705780634bfea816146104245780634c88848a1461045a5780635c975abb146104795780636b696d861461049857806375b3a9ba146104c357005b80632e2b4fef1461037657806330aae043146103a157806332ed5b12146103c057806337376ca8146103f15780633f4ba83a1461041057005b80631bdd0702116101ed5780631bdd0702146102f757806323cdc3f1146102ff578063241b16951461031e57806329c8daee1461033d5780632bee5fab1461035c57005b806313270bb81461025857806314f6479614610288578063151ee122146102aa578063158ef93e146102c957005b366102565760405134815233907f6c703791f399558807424f489ccd811c72b4ff0b74af547264fad7c646776df09060200160405180910390a25b005b348015610263575f5ffd5b506003546102719060ff1681565b60405160ff90911681526020015b60405180910390f35b348015610293575f5ffd5b5061029c603281565b60405190815260200161027f565b3480156102b5575f5ffd5b506102566102c43660046138b1565b610780565b3480156102d4575f5ffd5b506003546102e790610100900460ff1681565b604051901515815260200161027f565b610256610a71565b34801561030a575f5ffd5b506102e761031936600461394f565b610ac6565b348015610329575f5ffd5b5061025661033836600461398a565b610af2565b348015610348575f5ffd5b506102566103573660046139bc565b610b94565b348015610367575f5ffd5b5061029c66b1a2bc2ec5000081565b348015610381575f5ffd5b5061029c610390366004613a34565b600d6020525f908152604090205481565b3480156103ac575f5ffd5b506102566103bb366004613a4b565b611113565b3480156103cb575f5ffd5b506103df6103da366004613a34565b6115a1565b60405161027f96959493929190613a99565b3480156103fc575f5ffd5b5061025661040b366004613a34565b611681565b34801561041b575f5ffd5b50610256611803565b34801561042f575f5ffd5b5061029c61043e366004613b07565b600c60209081525f928352604080842090915290825290205481565b348015610465575f5ffd5b50610256610474366004613b31565b611884565b348015610484575f5ffd5b506003546102e79062010000900460ff1681565b3480156104a3575f5ffd5b5061029c6104b2366004613beb565b600b6020525f908152604090205481565b3480156104ce575f5ffd5b506102566104dd366004613a34565b611a62565b3480156104ed575f5ffd5b5061029c60045481565b348015610502575f5ffd5b50600654610516906001600160a01b031681565b6040516001600160a01b03909116815260200161027f565b348015610539575f5ffd5b5061029c6213c68081565b34801561054f575f5ffd5b5061025661055e366004613c06565b611be2565b34801561056e575f5ffd5b50610256612066565b348015610582575f5ffd5b506102716120fe565b348015610596575f5ffd5b506102566105a53660046138b1565b61210c565b3480156105b5575f5ffd5b506105166105c4366004613a34565b612588565b3480156105d4575f5ffd5b506009546102e79060ff1681565b3480156105ed575f5ffd5b506106316105fc366004613a34565b5f9081526002602052604090206001015460ff80821692610100830464ffffffffff1692600160301b90049091169042831090565b6040805160ff909516855264ffffffffff9093166020850152901515918301919091521515606082015260800161027f565b34801561066e575f5ffd5b5061029c60055481565b348015610683575f5ffd5b5061029c600a5481565b348015610698575f5ffd5b506105167f000000000000000000000000000000000000000000000000000000000000000081565b3480156106cb575f5ffd5b506102566106da366004613beb565b6125af565b3480156106ea575f5ffd5b5061029c6101f481565b3480156106ff575f5ffd5b5061029c610e1081565b348015610714575f5ffd5b5061029c60085481565b348015610729575f5ffd5b5061029c610738366004613beb565b612670565b348015610748575f5ffd5b506102e7610757366004613beb565b60016020525f908152604090205460ff1681565b348015610776575f5ffd5b5061029c60075481565b337f00000000000000000000000000000000000000000000000000000000000000006001600160a01b0316146107c957604051638b906c9760e01b815260040160405180910390fd5b60035462010000900460ff16156107f357604051630eceade960e31b815260040160405180910390fd5b600354610100900460ff161561081b5760405162dc149f60e41b815260040160405180910390fd5b60038151101561083e57604051630abc096560e01b815260040160405180910390fd5b60328151111561086157604051637e1d76fb60e01b815260040160405180910390fd5b5f5b8151811015610982575f82828151811061087f5761087f613c4b565b602002602001015190505f6001600160a01b0316816001600160a01b0316036108bb5760405163e6c4247b60e01b815260040160405180910390fd5b7f00000000000000000000000000000000000000000000000000000000000000006001600160a01b0316816001600160a01b03160361090d5760405163261e30e960e01b815260040160405180910390fd5b5f610919836001613c73565b90505b83518110156109785783818151811061093757610937613c4b565b60200260200101516001600160a01b0316826001600160a01b03160361097057604051630148f8ab60e31b815260040160405180910390fd5b60010161091c565b5050600101610863565b508051610995905f9060208401906137b2565b5080516003805460ff191660ff83161790555f5b81811015610a59576001805f8584815181106109c7576109c7613c4b565b6020908102919091018101516001600160a01b031682528101919091526040015f20805460ff1916911515919091179055336001600160a01b0316838281518110610a1457610a14613c4b565b60200260200101516001600160a01b03167f7221372411f0405c58b7b48e3951c448bb594dad75f79bf6aefa69af430d606260405160405180910390a36001016109a9565b50506003805461ff0019166101001790555042600455565b3460075f828254610a829190613c73565b90915550506007546040805134815260208101929092527f1d998b34013c7206ccac82f58a2e346d08bbf2bc5a9545c089ca5653a69dcfb5910160405180910390a1565b5f8281526002602090815260408083206001600160a01b038516845290915290205460ff165b92915050565b337f00000000000000000000000000000000000000000000000000000000000000006001600160a01b031614610b3b57604051638b906c9760e01b815260040160405180910390fd5b6009805460ff19168415159081179091556008839055600a82905560408051918252602082018490527f4a5b1819e69ea9a8e928c484746cda0d3ef678b0abfc9a113d7748a3ebb87018910160405180910390a1505050565b335f9081526001602052604090205460ff16610bc35760405163ea8e4eb560e01b815260040160405180910390fd5b60035462010000900460ff1615610bed57604051630eceade960e31b815260040160405180910390fd5b6003811015610c0f57604051630abc096560e01b815260040160405180910390fd5b6032811115610c3157604051637e1d76fb60e01b815260040160405180910390fd5b5f5b81811015610d98575f838383818110610c4e57610c4e613c4b565b9050602002016020810190610c639190613beb565b90506001600160a01b038116610c8c5760405163e6c4247b60e01b815260040160405180910390fd5b7f00000000000000000000000000000000000000000000000000000000000000006001600160a01b0316816001600160a01b031603610cde5760405163261e30e960e01b815260040160405180910390fd5b6001600160a01b0381165f9081526001602052604090205460ff1615610d17576040516306cd46a360e11b815260040160405180910390fd5b5f610d23836001613c73565b90505b83811015610d8e57848482818110610d4057610d40613c4b565b9050602002016020810190610d559190613beb565b6001600160a01b0316826001600160a01b031603610d8657604051630148f8ab60e31b815260040160405180910390fd5b600101610d26565b5050600101610c33565b50335f610da58583612695565b90505f8484604051602001610dbb929190613c86565b60408051808303601f190181529181525f8481526002602052908120600181015492935091610100900464ffffffffff169003610e9c57610dfe610e1042613c73565b60018201805467ffff000000000100600160e01b03191661010064ffffffffff9390931692909202600160401b600160e01b03191691909117600160401b6001600160a01b0387160217905560028101610e588382613d7a565b50600181015460405161010090910464ffffffffff1681526001600160a01b0385169084905f51602061427d5f395f51905f529060200160405180910390a3610eda565b81516020830120604051610eb4906002840190613e34565b604051809103902014610eda57604051634cd6f7c360e01b815260040160405180910390fd5b6001810154610100900464ffffffffff16421115610f0b576040516328a7237960e01b815260040160405180910390fd5b6001810154600160301b900460ff1615610f3857604051630dc1019760e01b815260040160405180910390fd5b6001810154600160381b900460ff1615610f65576040516328a7237960e01b815260040160405180910390fd5b6001600160a01b0384165f9081526020829052604090205460ff1615610f9e5760405163080fc0bd60e11b815260040160405180910390fd5b6001600160a01b0384165f908152602082905260408120805460ff19166001908117909155820180548290610fd59060ff16613ea5565b91906101000a81548160ff021916908360ff16021790559050846001600160a01b0316845f51602061425d5f395f51905f528360405161101e919060ff91909116815260200190565b60405180910390a35f61102f6127c7565b90508060ff168260ff16106111085760018301805460ff60301b1916600160301b1790556002830180546110e8919061106790613cf7565b80601f016020809104026020016040519081016040528092919081815260200182805461109390613cf7565b80156110de5780601f106110b5576101008083540402835291602001916110de565b820191905f5260205f20905b8154815290600101906020018083116110c157829003601f168201915b50505050506127f1565b60405185905f51602061423d5f395f51905f52905f90a261110886612a53565b505050505050505050565b335f9081526001602052604090205460ff166111425760405163ea8e4eb560e01b815260040160405180910390fd5b60035462010000900460ff161561116c57604051630eceade960e31b815260040160405180910390fd5b6003546301000000900460ff1615611197576040516345f5ce8b60e11b815260040160405180910390fd5b6003805463ff000000191663010000001790556001600160a01b0383166111d15760405163e6c4247b60e01b815260040160405180910390fd5b815f036111f15760405163162908e360e11b815260040160405180910390fd5b6101f48111156112145760405163faa3445560e01b815260040160405180910390fd5b335f6112208783612695565b90505f8686868660405160200161123a9493929190613ec3565b60408051808303601f190181529181525f8481526002602052908120600181015492935091610100900464ffffffffff16900361131b5761127d610e1042613c73565b60018201805467ffff000000000100600160e01b03191661010064ffffffffff9390931692909202600160401b600160e01b03191691909117600160401b6001600160a01b03871602179055600281016112d78382613d7a565b50600181015460405161010090910464ffffffffff1681526001600160a01b0385169084905f51602061427d5f395f51905f529060200160405180910390a3611359565b81516020830120604051611333906002840190613e34565b60405180910390201461135957604051634cd6f7c360e01b815260040160405180910390fd5b6001810154610100900464ffffffffff1642111561138a576040516328a7237960e01b815260040160405180910390fd5b6001810154600160301b900460ff16156113b757604051630dc1019760e01b815260040160405180910390fd5b6001810154600160381b900460ff16156113e4576040516328a7237960e01b815260040160405180910390fd5b6001600160a01b0384165f9081526020829052604090205460ff161561141d5760405163080fc0bd60e11b815260040160405180910390fd5b6001600160a01b0384165f908152602082905260408120805460ff191660019081179091558201805482906114549060ff16613ea5565b91906101000a81548160ff021916908360ff16021790559050846001600160a01b0316845f51602061425d5f395f51905f528360405161149d919060ff91909116815260200190565b60405180910390a35f6114ae6127c7565b90508060ff168260ff16106115875760018301805460ff60301b1916600160301b17905560028301805461156791906114e690613cf7565b80601f016020809104026020016040519081016040528092919081815260200182805461151290613cf7565b801561155d5780601f106115345761010080835404028352916020019161155d565b820191905f5260205f20905b81548152906001019060200180831161154057829003601f168201915b5050505050612b50565b60405185905f51602061423d5f395f51905f52905f90a261158786612a53565b50506003805463ff00000019169055505050505050505050565b600260208190525f91825260409091206001810154918101805460ff80851694610100810464ffffffffff1694600160301b8204831694600160381b830490931693600160401b9092046001600160a01b031692909161160090613cf7565b80601f016020809104026020016040519081016040528092919081815260200182805461162c90613cf7565b80156116775780601f1061164e57610100808354040283529160200191611677565b820191905f5260205f20905b81548152906001019060200180831161165a57829003601f168201915b5050505050905086565b335f9081526001602052604090205460ff166116b05760405163ea8e4eb560e01b815260040160405180910390fd5b60035462010000900460ff16156116da57604051630eceade960e31b815260040160405180910390fd5b5f8181526002602052604081206001810154909161010090910464ffffffffff16900361171a576040516328a7237960e01b815260040160405180910390fd5b6001810154600160301b900460ff1615611747576040516360bf317760e01b815260040160405180910390fd5b6001810154600160381b900460ff1615611774576040516328a7237960e01b815260040160405180910390fd5b60018101546001600160a01b03600160401b9091041633146117a9576040516321c9572160e21b815260040160405180910390fd5b60018101805467ff000000000000001916600160381b1790556117c93390565b6001600160a01b0316827f56a54393c88fb71d37dc109609d88e0b586637deb2452aef5f41d3eb32adedfc60405160405180910390a35050565b337f00000000000000000000000000000000000000000000000000000000000000006001600160a01b03161461184c57604051638b906c9760e01b815260040160405180910390fd5b6003805462ff00001916905560405133907f5b65b0c1363b3003db9bcc5e1fd8805a6d6bf5bf6dc9d3431ee4494cd7d11766905f90a2565b6003546301000000900460ff16156118af576040516345f5ce8b60e11b815260040160405180910390fd5b6003805463ff00000019166301000000179081905562010000900460ff16156118eb57604051630eceade960e31b815260040160405180910390fd5b6040517509892a2aa928892a8b2bea8829c96be9a8aa882bea8b60531b60208201526bffffffffffffffffffffffff1960608a811b82166036840152604a830188905286811b8216606a84015285811b8216607e8401526092830185905260b283018490524660d284015230901b1660f28201525f90610106016040516020818303038152906040528051906020012090505f816040516020016119bb91907f19457468657265756d205369676e6564204d6573736167653a0a3332000000008152601c810191909152603c0190565b6040516020818303038152906040528051906020012090505f6119df828b8b612cda565b90508a6001600160a01b0316816001600160a01b031614611a1357604051638baa579f60e01b815260040160405180910390fd5b6001600160a01b038b165f9081526001602052604090205460ff16611a4b5760405163ea8e4eb560e01b815260040160405180910390fd5b611a598b8989898989612d5f565b61158732612a53565b337f00000000000000000000000000000000000000000000000000000000000000006001600160a01b031614611aab57604051638b906c9760e01b815260040160405180910390fd5b806007541015611b025760405162461bcd60e51b815260206004820152601960248201527f496e73756666696369656e74207375627369647920706f6f6c0000000000000060448201526064015b60405180910390fd5b8060075f828254611b139190613f0b565b90915550506040515f90339083908381818185875af1925050503d805f8114611b57576040519150601f19603f3d011682016040523d82523d5f602084013e611b5c565b606091505b5050905080611ba15760405162461bcd60e51b815260206004820152601160248201527015da5d1a191c985dd85b0819985a5b1959607a1b6044820152606401611af9565b6007546040805184815260208101929092527ffdacdc45db6850beb9a5a6b43e615107b2a87ad8b9cd28217f324b65687fd310910160405180910390a15050565b335f9081526001602052604090205460ff16611c115760405163ea8e4eb560e01b815260040160405180910390fd5b60035462010000900460ff1615611c3b57604051630eceade960e31b815260040160405180910390fd5b6003546301000000900460ff1615611c66576040516345f5ce8b60e11b815260040160405180910390fd5b6003805463ff000000191663010000001790556001600160a01b038216611ca05760405163e6c4247b60e01b815260040160405180910390fd5b805f03611cc05760405163162908e360e11b815260040160405180910390fd5b6040805160806020808301829052600960a084015268454d455247454e435960b81b60c0808501919091526001600160a01b0388811685870152871660608501529183018590528351808403909201825260e090920183525f8781526002909252918120600181015490913391610100900464ffffffffff169003611de957611d4b610e1042613c73565b60018301805467ffff000000000100600160e01b03191661010064ffffffffff9390931692909202600160401b600160e01b03191691909117600160401b6001600160a01b0384160217905560028201611da58482613d7a565b50600182015460405161010090910464ffffffffff1681526001600160a01b0382169088905f51602061427d5f395f51905f529060200160405180910390a3611e27565b82516020840120604051611e01906002850190613e34565b604051809103902014611e2757604051634cd6f7c360e01b815260040160405180910390fd5b6001820154610100900464ffffffffff16421115611e58576040516328a7237960e01b815260040160405180910390fd5b6001820154600160301b900460ff1615611e8557604051630dc1019760e01b815260040160405180910390fd5b6001820154600160381b900460ff1615611eb2576040516328a7237960e01b815260040160405180910390fd5b6001600160a01b0381165f9081526020839052604090205460ff1615611eeb5760405163080fc0bd60e11b815260040160405180910390fd5b6001600160a01b0381165f908152602083905260408120805460ff19166001908117909155830180548290611f229060ff16613ea5565b91906101000a81548160ff021916908360ff16021790559050816001600160a01b0316885f51602061425d5f395f51905f5283604051611f6b919060ff91909116815260200190565b60405180910390a35f611f7c6127c7565b90508060ff168260ff161061204e5760018401805460ff60301b1916600160301b179055600284018054612036918b91611fb590613cf7565b80601f0160208091040260200160405190810160405280929190818152602001828054611fe190613cf7565b801561202c5780601f106120035761010080835404028352916020019161202c565b820191905f5260205f20905b81548152906001019060200180831161200f57829003601f168201915b50505050506130bf565b60405189905f51602061423d5f395f51905f52905f90a25b50506003805463ff0000001916905550505050505050565b337f00000000000000000000000000000000000000000000000000000000000000006001600160a01b0316146120af57604051638b906c9760e01b815260040160405180910390fd5b6003805462ff00001916620100001790556120c73390565b6001600160a01b03167f81990fd9a5c552b8e3677917d8a03c07678f0d2cb68f88b634aca2022e9bd19f60405160405180910390a2565b5f6121076127c7565b905090565b337f00000000000000000000000000000000000000000000000000000000000000006001600160a01b03161461215557604051638b906c9760e01b815260040160405180910390fd5b600354610100900460ff1661217d576040516321c4e35760e21b815260040160405180910390fd5b6213c68060045461218e9190613c73565b4210156121ae576040516307eef31560e01b815260040160405180910390fd5b6003815110156121d157604051630abc096560e01b815260040160405180910390fd5b6032815111156121f457604051637e1d76fb60e01b815260040160405180910390fd5b5f5b8151811015612315575f82828151811061221257612212613c4b565b602002602001015190505f6001600160a01b0316816001600160a01b03160361224e5760405163e6c4247b60e01b815260040160405180910390fd5b7f00000000000000000000000000000000000000000000000000000000000000006001600160a01b0316816001600160a01b0316036122a05760405163261e30e960e01b815260040160405180910390fd5b5f6122ac836001613c73565b90505b835181101561230b578381815181106122ca576122ca613c4b565b60200260200101516001600160a01b0316826001600160a01b03160361230357604051630148f8ab60e31b815260040160405180910390fd5b6001016122af565b50506001016121f6565b505f80546040805160208084028201810190925282815291839183018282801561236657602002820191905f5260205f20905b81546001600160a01b03168152600190910190602001808311612348575b50505f8054949550925050505b8181101561240a575f5f828154811061238e5761238e613c4b565b5f9182526020808320909101546001600160a01b031680835260019091526040909120805460ff1916905590506123c23390565b6001600160a01b0316816001600160a01b03167f203a04209f1ae06508132ac82e6ad3b28d9e9ba11f97cc9934b4d9e6a83dd24e60405160405180910390a350600101612373565b50825161241d905f9060208601906137b2565b5082516003805460ff191660ff83161790555f5b818110156124e1576001805f87848151811061244f5761244f613c4b565b6020908102919091018101516001600160a01b031682528101919091526040015f20805460ff1916911515919091179055336001600160a01b031685828151811061249c5761249c613c4b565b60200260200101516001600160a01b03167f7221372411f0405c58b7b48e3951c448bb594dad75f79bf6aefa69af430d606260405160405180910390a3600101612431565b50426004556040516001600160a01b037f000000000000000000000000000000000000000000000000000000000000000016907fa1caae6f900f4fa4eb75dec03da51798c26797d3c0dad1fc4f8a2781e8f709a190612541908790613f61565b60405180910390a27fce17463359238459f0ef8f3feaf8e16899556077fee8f2cd9923322a17fdd600838560405161257a929190613f73565b60405180910390a150505050565b5f8181548110612596575f80fd5b5f918252602090912001546001600160a01b0316905081565b337f00000000000000000000000000000000000000000000000000000000000000006001600160a01b0316146125f857604051638b906c9760e01b815260040160405180910390fd5b6001600160a01b03811661261f5760405163698ac92360e01b815260040160405180910390fd5b600680546001600160a01b038381166001600160a01b0319831681179093556040519116919082907f06710129fbc2650f48c82631edcea255e102cd5e17c444deb7273855cfb5e77d905f90a35050565b5f6001600160a01b038216612686575047919050565b610aec8230613213565b919050565b600580545f91829190826126a883613fa0565b9091555090505f6126ba600143613f0b565b404244868886305a6040805160208101999099528801969096526060808801959095526bffffffffffffffffffffffff1993851b84166080880152609487019290925260b486015290911b1660d483015260e88201526101080160408051601f1981840301815282825280516020918201209083018190529082018490527f4c49515549444954595f54414e4b5f50524f504f53414c00000000000000000060608301529150607701604051602081830303815290604052805190602001209250836001600160a01b0316837f1266e7d4a6caa526436afcff045381a45c3e4c9eeb7711606479cb9e6de38383876040516127b791815260200190565b60405180910390a3505092915050565b600380545f91906127dc9060ff166002613fb8565b6127e7906002613c73565b6121079190613fcf565b5f5f828060200190518101906128079190614059565b915091507faf17183f3ffa290329c64b18a81e23bda5e429587fc385a8e5bfd1a64522bfa082805190602001201461285257604051634a7f394f60e01b815260040160405180910390fd5b5f8054604080516020808402820181019092528281529183918301828280156128a257602002820191905f5260205f20905b81546001600160a01b03168152600190910190602001808311612884575b50505f8054949550925050505b8181101561292a575f5f82815481106128ca576128ca613c4b565b5f9182526020808320909101546001600160a01b031680835260019091526040808320805460ff1916905551909250309183917f203a04209f1ae06508132ac82e6ad3b28d9e9ba11f97cc9934b4d9e6a83dd24e9190a3506001016128af565b50825161293d905f9060208601906137b2565b5082516003805460ff191660ff83161790555f5b81811015612a0d576001805f87848151811061296f5761296f613c4b565b60200260200101516001600160a01b03166001600160a01b031681526020019081526020015f205f6101000a81548160ff021916908315150217905550306001600160a01b03168582815181106129c8576129c8613c4b565b60200260200101516001600160a01b03167f7221372411f0405c58b7b48e3951c448bb594dad75f79bf6aefa69af430d606260405160405180910390a3600101612951565b507fce17463359238459f0ef8f3feaf8e16899556077fee8f2cd9923322a17fdd6008385604051612a3f929190613f73565b60405180910390a150504260045550505050565b60095460ff16612a605750565b5f3a6108fc5a612a709190613f0b565b612a7a9190613fb8565b9050600854811115612a8b57506008545b806007541015612a99575050565b8060075f828254612aaa9190613f0b565b90915550506040515f906001600160a01b0384169083908381818185875af1925050503d805f8114612af7576040519150601f19603f3d011682016040523d82523d5f602084013e612afc565b606091505b505090508015612b4b5760408051838152602081018490526001600160a01b038516917f114d6a915f75b8e760a79a80329a967b0809f710fd290a4fb55d085965a4a225910160405180910390a25b505050565b5f5f5f5f5f85806020019051810190612b69919061411e565b945094509450945094507f9143236d81225394f3bd65b44e6e29fdf4d7ba0773d9bb3f5cc15eb80ba37777858051906020012014612bba57604051634a7f394f60e01b815260040160405180910390fd5b5f6001600160a01b038516612c635782471015612bea57604051631e9acf1760e31b815260040160405180910390fd5b5f846001600160a01b0316846040515f6040518083038185875af1925050503d805f8114612c33576040519150601f19603f3d011682016040523d82523d5f602084013e612c38565b606091505b5050905080612c5a576040516312171d8360e31b815260040160405180910390fd5b83915050612c7b565b612c6c856132e2565b612c788585858561348c565b90505b836001600160a01b0316856001600160a01b03167f8e386ea29f37964fdbdb87193d773dea74e258b0f6108461c88c712051fb27bc8584604051612cc9929190918252602082015260400190565b60405180910390a350505050505050565b5f60418214612cea57505f612d58565b604080515f80825260208083018085528890528684013590911a92820183905285356060830181905290860135608083018190529092909160019060a0016020604051602081039080840390855afa158015612d48573d5f5f3e3d5ffd5b5050506020604051035193505050505b9392505050565b6001600160a01b038316612d865760405163e6c4247b60e01b815260040160405180910390fd5b815f03612da65760405163162908e360e11b815260040160405180910390fd5b6101f4811115612dc95760405163faa3445560e01b815260040160405180910390fd5b5f612dd48688612695565b90505f85858585604051602001612dee9493929190613ec3565b60408051808303601f190181529181525f8481526002602052908120600181015492935091610100900464ffffffffff169003612ecf57612e31610e1042613c73565b60018201805467ffff000000000100600160e01b03191661010064ffffffffff9390931692909202600160401b600160e01b03191691909117600160401b6001600160a01b038c160217905560028101612e8b8382613d7a565b50600181015460405161010090910464ffffffffff1681526001600160a01b038a169084905f51602061427d5f395f51905f529060200160405180910390a3612f0d565b81516020830120604051612ee7906002840190613e34565b604051809103902014612f0d57604051634cd6f7c360e01b815260040160405180910390fd5b6001810154610100900464ffffffffff16421115612f3e576040516328a7237960e01b815260040160405180910390fd5b6001810154600160301b900460ff1615612f6b57604051630dc1019760e01b815260040160405180910390fd5b6001810154600160381b900460ff1615612f98576040516328a7237960e01b815260040160405180910390fd5b6001600160a01b0389165f9081526020829052604090205460ff1615612fd15760405163080fc0bd60e11b815260040160405180910390fd5b6001600160a01b0389165f908152602082905260408120805460ff191660019081179091558201805482906130089060ff16613ea5565b91906101000a81548160ff021916908360ff16021790559050896001600160a01b0316845f51602061425d5f395f51905f5283604051613051919060ff91909116815260200190565b60405180910390a35f6130626127c7565b90508060ff168260ff16106130b25760018301805460ff60301b1916600160301b17905560028301805461309a91906114e690613cf7565b60405185905f51602061423d5f395f51905f52905f90a25b5050505050505050505050565b5f5f5f5f848060200190518101906130d7919061418e565b93509350935093507f76b1a12ac8d9ed64de3c0f66c2a19b21c0a3f9a1afec3f75bcd45f7b0794a1de84805190602001201461312657604051634a7f394f60e01b815260040160405180910390fd5b6001600160a01b0383166131aa575f826001600160a01b0316826040515f6040518083038185875af1925050503d805f811461317d576040519150601f19603f3d011682016040523d82523d5f602084013e613182565b606091505b50509050806131a4576040516312171d8360e31b815260040160405180910390fd5b506131be565b6131b3836132e2565b6131be8383836135d3565b816001600160a01b0316836001600160a01b03167f9495d03190a79a43e534c9e328ff322f6283261383f5f19c809564f6ad5a57b38360405161320391815260200190565b60405180910390a3505050505050565b604080516001600160a01b0383811660248084019190915283518084039091018152604490920183526020820180516001600160e01b03166370a0823160e01b17905291515f928391829187169061326c9085906141f4565b5f60405180830381855afa9150503d805f81146132a4576040519150601f19603f3d011682016040523d82523d5f602084013e6132a9565b606091505b50915091508180156132bd57506020815110155b156132d957808060200190518101906132d6919061420a565b93505b50505092915050565b6001600160a01b03811661330957604051630a6f7ecd60e21b815260040160405180910390fd5b803b5f81900361332c57604051630a6f7ecd60e21b815260040160405180910390fd5b604080515f60248201819052604480830182905283518084039091018152606490920183526020820180516001600160e01b031663a9059cbb60e01b17905291519091906001600160a01b038516906133869084906141f4565b5f60405180830381855afa9150503d805f81146133be576040519150601f19603f3d011682016040523d82523d5f602084013e6133c3565b606091505b5050604080515f602480830182905283518084039091018152604490920183526020820180516001600160e01b03166370a0823160e01b1790529151929350916001600160a01b038716906134199084906141f4565b5f60405180830381855afa9150503d805f8114613451576040519150601f19603f3d011682016040523d82523d5f602084013e613456565b606091505b5050905082158015613466575080155b1561348457604051630a6f7ecd60e21b815260040160405180910390fd5b505050505050565b5f5f6134988630613213565b9050838110156134bb57604051631e9acf1760e31b815260040160405180910390fd5b5f6134c68787613213565b90506134dc6001600160a01b03881687876136f1565b5f6134e78830613213565b90505f6134f48989613213565b90505f6135018386613f0b565b905061350d8483613f0b565b95505f61271061351d8982613f0b565b613527908b613fb8565b6135319190613fcf565b90505f6127106135418a82613c73565b61354b908c613fb8565b6135559190613fcf565b90508188101561357857604051638199f5f360e01b815260040160405180910390fd5b8083111561359957604051638199f5f360e01b815260040160405180910390fd5b6135a4886002613fb8565b8311156135c457604051638199f5f360e01b815260040160405180910390fd5b50505050505050949350505050565b5f6135de8430613213565b90508181101561360157604051631e9acf1760e31b815260040160405180910390fd5b604080516001600160a01b038581166024830152604480830186905283518084039091018152606490920183526020820180516001600160e01b031663a9059cbb60e01b179052915190915f91829188169061365e9085906141f4565b5f604051808303815f865af19150503d805f8114613697576040519150601f19603f3d011682016040523d82523d5f602084013e61369c565b606091505b50915091508115806136ca57505f81511180156136ca5750808060200190518101906136c89190614221565b155b156136e8576040516312171d8360e31b815260040160405180910390fd5b50505050505050565b604080516001600160a01b03841660248201526044808201849052825180830390910181526064909101909152602080820180516001600160e01b031663a9059cbb60e01b1781528251612b4b93879390925f9283929183919082885af18061375f576040513d5f823e3d81fd5b50505f513d91508115613776578060011415613783565b6001600160a01b0384163b155b156137ac57604051635274afe760e01b81526001600160a01b0385166004820152602401611af9565b50505050565b828054828255905f5260205f20908101928215613805579160200282015b8281111561380557825182546001600160a01b0319166001600160a01b039091161782556020909201916001909101906137d0565b50613811929150613815565b5090565b5b80821115613811575f8155600101613816565b634e487b7160e01b5f52604160045260245ffd5b604051601f8201601f191681016001600160401b038111828210171561386557613865613829565b604052919050565b5f6001600160401b0382111561388557613885613829565b5060051b60200190565b6001600160a01b03811681146138a3575f5ffd5b50565b80356126908161388f565b5f602082840312156138c1575f5ffd5b81356001600160401b038111156138d6575f5ffd5b8201601f810184136138e6575f5ffd5b80356138f96138f48261386d565b61383d565b8082825260208201915060208360051b85010192508683111561391a575f5ffd5b6020840193505b828410156139455783356139348161388f565b825260209384019390910190613921565b9695505050505050565b5f5f60408385031215613960575f5ffd5b8235915060208301356139728161388f565b809150509250929050565b80151581146138a3575f5ffd5b5f5f5f6060848603121561399c575f5ffd5b83356139a78161397d565b95602085013595506040909401359392505050565b5f5f5f604084860312156139ce575f5ffd5b8335925060208401356001600160401b038111156139ea575f5ffd5b8401601f810186136139fa575f5ffd5b80356001600160401b03811115613a0f575f5ffd5b8660208260051b8401011115613a23575f5ffd5b939660209190910195509293505050565b5f60208284031215613a44575f5ffd5b5035919050565b5f5f5f5f5f60a08688031215613a5f575f5ffd5b853594506020860135613a718161388f565b93506040860135613a818161388f565b94979396509394606081013594506080013592915050565b60ff8716815264ffffffffff861660208201528415156040820152831515606082015260018060a01b038316608082015260c060a08201525f82518060c0840152806020850160e085015e5f60e0828501015260e0601f19601f830116840101915050979650505050505050565b5f5f60408385031215613b18575f5ffd5b8235613b238161388f565b946020939093013593505050565b5f5f5f5f5f5f5f5f60e0898b031215613b48575f5ffd5b8835613b538161388f565b975060208901356001600160401b03811115613b6d575f5ffd5b8901601f81018b13613b7d575f5ffd5b80356001600160401b03811115613b92575f5ffd5b8b6020828401011115613ba3575f5ffd5b6020919091019750955060408901359450613bc060608a016138a6565b9350613bce60808a016138a6565b979a969950949793969295929450505060a08201359160c0013590565b5f60208284031215613bfb575f5ffd5b8135612d588161388f565b5f5f5f5f60808587031215613c19575f5ffd5b843593506020850135613c2b8161388f565b92506040850135613c3b8161388f565b9396929550929360600135925050565b634e487b7160e01b5f52603260045260245ffd5b634e487b7160e01b5f52601160045260245ffd5b80820180821115610aec57610aec613c5f565b6040808252600d908201526c524f544154455f4f574e45525360981b606082015260806020820181905281018290525f8360a08301825b85811015613ced578235613cd08161388f565b6001600160a01b0316825260209283019290910190600101613cbd565b5095945050505050565b600181811c90821680613d0b57607f821691505b602082108103613d2957634e487b7160e01b5f52602260045260245ffd5b50919050565b601f821115612b4b57805f5260205f20601f840160051c81016020851015613d545750805b601f840160051c820191505b81811015613d73575f8155600101613d60565b5050505050565b81516001600160401b03811115613d9357613d93613829565b613da781613da18454613cf7565b84613d2f565b6020601f821160018114613dd9575f8315613dc25750848201515b5f19600385901b1c1916600184901b178455613d73565b5f84815260208120601f198516915b82811015613e085787850151825560209485019460019092019101613de8565b5084821015613e2557868401515f19600387901b60f8161c191681555b50505050600190811b01905550565b5f5f8354613e4181613cf7565b600182168015613e585760018114613e6d57613e9a565b60ff1983168652811515820286019350613e9a565b865f5260205f205f5b83811015613e9257815488820152600190910190602001613e76565b505081860193505b509195945050505050565b5f60ff821660ff8103613eba57613eba613c5f565b60010192915050565b60a0808252600890820152672a2920a729a322a960c11b60c08201526001600160a01b0394851660208201529290931660408301526060820152608081019190915260e00190565b81810381811115610aec57610aec613c5f565b5f8151808452602084019350602083015f5b82811015613f575781516001600160a01b0316865260209586019590910190600101613f30565b5093949350505050565b602081525f612d586020830184613f1e565b604081525f613f856040830185613f1e565b8281036020840152613f978185613f1e565b95945050505050565b5f60018201613fb157613fb1613c5f565b5060010190565b8082028115828204841417610aec57610aec613c5f565b5f82613fe957634e487b7160e01b5f52601260045260245ffd5b500490565b5f82601f830112613ffd575f5ffd5b81516001600160401b0381111561401657614016613829565b614029601f8201601f191660200161383d565b81815284602083860101111561403d575f5ffd5b8160208501602083015e5f918101602001919091529392505050565b5f5f6040838503121561406a575f5ffd5b82516001600160401b0381111561407f575f5ffd5b61408b85828601613fee565b92505060208301516001600160401b038111156140a6575f5ffd5b8301601f810185136140b6575f5ffd5b80516140c46138f48261386d565b8082825260208201915060208360051b8501019250878311156140e5575f5ffd5b6020840193505b828410156141105783516140ff8161388f565b8252602093840193909101906140ec565b809450505050509250929050565b5f5f5f5f5f60a08688031215614132575f5ffd5b85516001600160401b03811115614147575f5ffd5b61415388828901613fee565b95505060208601516141648161388f565b60408701519094506141758161388f565b6060870151608090970151959894975095949392505050565b5f5f5f5f608085870312156141a1575f5ffd5b84516001600160401b038111156141b6575f5ffd5b6141c287828801613fee565b94505060208501516141d38161388f565b60408601519093506141e48161388f565b6060959095015193969295505050565b5f82518060208501845e5f920191825250919050565b5f6020828403121561421a575f5ffd5b5051919050565b5f60208284031215614231575f5ffd5b8151612d588161397d56fe7b1bcf1ccf901a11589afff5504d59fd0a53780eed2a952adade0348985139e0a15f49e7e7f833c9795f12c74a559a980f5a3077671216c0ab946965cc5592194b469083b7fc028ef4f7d26a6d9bebac1069d4328d1acefbe4af53db05acf20ea2646970667358221220d8f57ca28a19fb725f8bd6db27ce12aa3166ed24425ac08378a7c100e4e02a6264736f6c634300081e0033",
			"opcodes": "PUSH1 0xA0 PUSH1 0x40 MSTORE CALLVALUE DUP1 ISZERO PUSH2 0xF JUMPI PUSH0 PUSH0 REVERT JUMPDEST POP CALLER PUSH1 0x80 MSTORE TIMESTAMP PUSH1 0x4 SSTORE PUSH1 0x80 MLOAD PUSH2 0x42D2 PUSH2 0x7D PUSH0 CODECOPY PUSH0 DUP2 DUP2 PUSH2 0x69E ADD MSTORE DUP2 DUP2 PUSH2 0x783 ADD MSTORE DUP2 DUP2 PUSH2 0x8BD ADD MSTORE DUP2 DUP2 PUSH2 0xAF5 ADD MSTORE DUP2 DUP2 PUSH2 0xC8E ADD MSTORE DUP2 DUP2 PUSH2 0x1806 ADD MSTORE DUP2 DUP2 PUSH2 0x1A65 ADD MSTORE DUP2 DUP2 PUSH2 0x2069 ADD MSTORE DUP2 DUP2 PUSH2 0x210F ADD MSTORE DUP2 DUP2 PUSH2 0x2250 ADD MSTORE DUP2 DUP2 PUSH2 0x24F3 ADD MSTORE PUSH2 0x25B2 ADD MSTORE PUSH2 0x42D2 PUSH0 RETURN INVALID PUSH1 0x80 PUSH1 0x40 MSTORE PUSH1 0x4 CALLDATASIZE LT PUSH2 0x21B JUMPI PUSH0 CALLDATALOAD PUSH1 0xE0 SHR DUP1 PUSH4 0x79C8BFA5 GT PUSH2 0x121 JUMPI DUP1 PUSH4 0xCC3C74A1 GT PUSH2 0xA4 JUMPI DUP1 PUSH4 0xE615193A GT PUSH2 0x6B JUMPI DUP1 PUSH4 0xE615193A EQ PUSH2 0x6F4 JUMPI DUP1 PUSH4 0xE9411223 EQ PUSH2 0x709 JUMPI DUP1 PUSH4 0xF8B2CB4F EQ PUSH2 0x71E JUMPI DUP1 PUSH4 0xFE9FBB80 EQ PUSH2 0x73D JUMPI DUP1 PUSH4 0xFEB5C1DE EQ PUSH2 0x76B JUMPI STOP JUMPDEST DUP1 PUSH4 0xCC3C74A1 EQ PUSH2 0x663 JUMPI DUP1 PUSH4 0xD56D6810 EQ PUSH2 0x678 JUMPI DUP1 PUSH4 0xD5F39488 EQ PUSH2 0x68D JUMPI DUP1 PUSH4 0xDA742228 EQ PUSH2 0x6C0 JUMPI DUP1 PUSH4 0xE229CD76 EQ PUSH2 0x6DF JUMPI STOP JUMPDEST DUP1 PUSH4 0x8B1E24AB GT PUSH2 0xE8 JUMPI DUP1 PUSH4 0x8B1E24AB EQ PUSH2 0x577 JUMPI DUP1 PUSH4 0x8DBC4515 EQ PUSH2 0x58B JUMPI DUP1 PUSH4 0x95874631 EQ PUSH2 0x5AA JUMPI DUP1 PUSH4 0xAFCDB131 EQ PUSH2 0x5C9 JUMPI DUP1 PUSH4 0xC66DA997 EQ PUSH2 0x5E2 JUMPI STOP JUMPDEST DUP1 PUSH4 0x79C8BFA5 EQ PUSH2 0x4E2 JUMPI DUP1 PUSH4 0x7DA0A877 EQ PUSH2 0x4F7 JUMPI DUP1 PUSH4 0x7F264076 EQ PUSH2 0x52E JUMPI DUP1 PUSH4 0x7F917D0B EQ PUSH2 0x544 JUMPI DUP1 PUSH4 0x8456CB59 EQ PUSH2 0x563 JUMPI STOP JUMPDEST DUP1 PUSH4 0x2E2B4FEF GT PUSH2 0x1A9 JUMPI DUP1 PUSH4 0x4BFEA816 GT PUSH2 0x170 JUMPI DUP1 PUSH4 0x4BFEA816 EQ PUSH2 0x424 JUMPI DUP1 PUSH4 0x4C88848A EQ PUSH2 0x45A JUMPI DUP1 PUSH4 0x5C975ABB EQ PUSH2 0x479 JUMPI DUP1 PUSH4 0x6B696D86 EQ PUSH2 0x498 JUMPI DUP1 PUSH4 0x75B3A9BA EQ PUSH2 0x4C3 JUMPI STOP JUMPDEST DUP1 PUSH4 0x2E2B4FEF EQ PUSH2 0x376 JUMPI DUP1 PUSH4 0x30AAE043 EQ PUSH2 0x3A1 JUMPI DUP1 PUSH4 0x32ED5B12 EQ PUSH2 0x3C0 JUMPI DUP1 PUSH4 0x37376CA8 EQ PUSH2 0x3F1 JUMPI DUP1 PUSH4 0x3F4BA83A EQ PUSH2 0x410 JUMPI STOP JUMPDEST DUP1 PUSH4 0x1BDD0702 GT PUSH2 0x1ED JUMPI DUP1 PUSH4 0x1BDD0702 EQ PUSH2 0x2F7 JUMPI DUP1 PUSH4 0x23CDC3F1 EQ PUSH2 0x2FF JUMPI DUP1 PUSH4 0x241B1695 EQ PUSH2 0x31E JUMPI DUP1 PUSH4 0x29C8DAEE EQ PUSH2 0x33D JUMPI DUP1 PUSH4 0x2BEE5FAB EQ PUSH2 0x35C JUMPI STOP JUMPDEST DUP1 PUSH4 0x13270BB8 EQ PUSH2 0x258 JUMPI DUP1 PUSH4 0x14F64796 EQ PUSH2 0x288 JUMPI DUP1 PUSH4 0x151EE122 EQ PUSH2 0x2AA JUMPI DUP1 PUSH4 0x158EF93E EQ PUSH2 0x2C9 JUMPI STOP JUMPDEST CALLDATASIZE PUSH2 0x256 JUMPI PUSH1 0x40 MLOAD CALLVALUE DUP2 MSTORE CALLER SWAP1 PUSH32 0x6C703791F399558807424F489CCD811C72B4FF0B74AF547264FAD7C646776DF0 SWAP1 PUSH1 0x20 ADD PUSH1 0x40 MLOAD DUP1 SWAP2 SUB SWAP1 LOG2 JUMPDEST STOP JUMPDEST CALLVALUE DUP1 ISZERO PUSH2 0x263 JUMPI PUSH0 PUSH0 REVERT JUMPDEST POP PUSH1 0x3 SLOAD PUSH2 0x271 SWAP1 PUSH1 0xFF AND DUP2 JUMP JUMPDEST PUSH1 0x40 MLOAD PUSH1 0xFF SWAP1 SWAP2 AND DUP2 MSTORE PUSH1 0x20 ADD JUMPDEST PUSH1 0x40 MLOAD DUP1 SWAP2 SUB SWAP1 RETURN JUMPDEST CALLVALUE DUP1 ISZERO PUSH2 0x293 JUMPI PUSH0 PUSH0 REVERT JUMPDEST POP PUSH2 0x29C PUSH1 0x32 DUP2 JUMP JUMPDEST PUSH1 0x40 MLOAD SWAP1 DUP2 MSTORE PUSH1 0x20 ADD PUSH2 0x27F JUMP JUMPDEST CALLVALUE DUP1 ISZERO PUSH2 0x2B5 JUMPI PUSH0 PUSH0 REVERT JUMPDEST POP PUSH2 0x256 PUSH2 0x2C4 CALLDATASIZE PUSH1 0x4 PUSH2 0x38B1 JUMP JUMPDEST PUSH2 0x780 JUMP JUMPDEST CALLVALUE DUP1 ISZERO PUSH2 0x2D4 JUMPI PUSH0 PUSH0 REVERT JUMPDEST POP PUSH1 0x3 SLOAD PUSH2 0x2E7 SWAP1 PUSH2 0x100 SWAP1 DIV PUSH1 0xFF AND DUP2 JUMP JUMPDEST PUSH1 0x40 MLOAD SWAP1 ISZERO ISZERO DUP2 MSTORE PUSH1 0x20 ADD PUSH2 0x27F JUMP JUMPDEST PUSH2 0x256 PUSH2 0xA71 JUMP JUMPDEST CALLVALUE DUP1 ISZERO PUSH2 0x30A JUMPI PUSH0 PUSH0 REVERT JUMPDEST POP PUSH2 0x2E7 PUSH2 0x319 CALLDATASIZE PUSH1 0x4 PUSH2 0x394F JUMP JUMPDEST PUSH2 0xAC6 JUMP JUMPDEST CALLVALUE DUP1 ISZERO PUSH2 0x329 JUMPI PUSH0 PUSH0 REVERT JUMPDEST POP PUSH2 0x256 PUSH2 0x338 CALLDATASIZE PUSH1 0x4 PUSH2 0x398A JUMP JUMPDEST PUSH2 0xAF2 JUMP JUMPDEST CALLVALUE DUP1 ISZERO PUSH2 0x348 JUMPI PUSH0 PUSH0 REVERT JUMPDEST POP PUSH2 0x256 PUSH2 0x357 CALLDATASIZE PUSH1 0x4 PUSH2 0x39BC JUMP JUMPDEST PUSH2 0xB94 JUMP JUMPDEST CALLVALUE DUP1 ISZERO PUSH2 0x367 JUMPI PUSH0 PUSH0 REVERT JUMPDEST POP PUSH2 0x29C PUSH7 0xB1A2BC2EC50000 DUP2 JUMP JUMPDEST CALLVALUE DUP1 ISZERO PUSH2 0x381 JUMPI PUSH0 PUSH0 REVERT JUMPDEST POP PUSH2 0x29C PUSH2 0x390 CALLDATASIZE PUSH1 0x4 PUSH2 0x3A34 JUMP JUMPDEST PUSH1 0xD PUSH1 0x20 MSTORE PUSH0 SWAP1 DUP2 MSTORE PUSH1 0x40 SWAP1 KECCAK256 SLOAD DUP2 JUMP JUMPDEST CALLVALUE DUP1 ISZERO PUSH2 0x3AC JUMPI PUSH0 PUSH0 REVERT JUMPDEST POP PUSH2 0x256 PUSH2 0x3BB CALLDATASIZE PUSH1 0x4 PUSH2 0x3A4B JUMP JUMPDEST PUSH2 0x1113 JUMP JUMPDEST CALLVALUE DUP1 ISZERO PUSH2 0x3CB JUMPI PUSH0 PUSH0 REVERT JUMPDEST POP PUSH2 0x3DF PUSH2 0x3DA CALLDATASIZE PUSH1 0x4 PUSH2 0x3A34 JUMP JUMPDEST PUSH2 0x15A1 JUMP JUMPDEST PUSH1 0x40 MLOAD PUSH2 0x27F SWAP7 SWAP6 SWAP5 SWAP4 SWAP3 SWAP2 SWAP1 PUSH2 0x3A99 JUMP JUMPDEST CALLVALUE DUP1 ISZERO PUSH2 0x3FC JUMPI PUSH0 PUSH0 REVERT JUMPDEST POP PUSH2 0x256 PUSH2 0x40B CALLDATASIZE PUSH1 0x4 PUSH2 0x3A34 JUMP JUMPDEST PUSH2 0x1681 JUMP JUMPDEST CALLVALUE DUP1 ISZERO PUSH2 0x41B JUMPI PUSH0 PUSH0 REVERT JUMPDEST POP PUSH2 0x256 PUSH2 0x1803 JUMP JUMPDEST CALLVALUE DUP1 ISZERO PUSH2 0x42F JUMPI PUSH0 PUSH0 REVERT JUMPDEST POP PUSH2 0x29C PUSH2 0x43E CALLDATASIZE PUSH1 0x4 PUSH2 0x3B07 JUMP JUMPDEST PUSH1 0xC PUSH1 0x20 SWAP1 DUP2 MSTORE PUSH0 SWAP3 DUP4 MSTORE PUSH1 0x40 DUP1 DUP5 KECCAK256 SWAP1 SWAP2 MSTORE SWAP1 DUP3 MSTORE SWAP1 KECCAK256 SLOAD DUP2 JUMP JUMPDEST CALLVALUE DUP1 ISZERO PUSH2 0x465 JUMPI PUSH0 PUSH0 REVERT JUMPDEST POP PUSH2 0x256 PUSH2 0x474 CALLDATASIZE PUSH1 0x4 PUSH2 0x3B31 JUMP JUMPDEST PUSH2 0x1884 JUMP JUMPDEST CALLVALUE DUP1 ISZERO PUSH2 0x484 JUMPI PUSH0 PUSH0 REVERT JUMPDEST POP PUSH1 0x3 SLOAD PUSH2 0x2E7 SWAP1 PUSH3 0x10000 SWAP1 DIV PUSH1 0xFF AND DUP2 JUMP JUMPDEST CALLVALUE DUP1 ISZERO PUSH2 0x4A3 JUMPI PUSH0 PUSH0 REVERT JUMPDEST POP PUSH2 0x29C PUSH2 0x4B2 CALLDATASIZE PUSH1 0x4 PUSH2 0x3BEB JUMP JUMPDEST PUSH1 0xB PUSH1 0x20 MSTORE PUSH0 SWAP1 DUP2 MSTORE PUSH1 0x40 SWAP1 KECCAK256 SLOAD DUP2 JUMP JUMPDEST CALLVALUE DUP1 ISZERO PUSH2 0x4CE JUMPI PUSH0 PUSH0 REVERT JUMPDEST POP PUSH2 0x256 PUSH2 0x4DD CALLDATASIZE PUSH1 0x4 PUSH2 0x3A34 JUMP JUMPDEST PUSH2 0x1A62 JUMP JUMPDEST CALLVALUE DUP1 ISZERO PUSH2 0x4ED JUMPI PUSH0 PUSH0 REVERT JUMPDEST POP PUSH2 0x29C PUSH1 0x4 SLOAD DUP2 JUMP JUMPDEST CALLVALUE DUP1 ISZERO PUSH2 0x502 JUMPI PUSH0 PUSH0 REVERT JUMPDEST POP PUSH1 0x6 SLOAD PUSH2 0x516 SWAP1 PUSH1 0x1 PUSH1 0x1 PUSH1 0xA0 SHL SUB AND DUP2 JUMP JUMPDEST PUSH1 0x40 MLOAD PUSH1 0x1 PUSH1 0x1 PUSH1 0xA0 SHL SUB SWAP1 SWAP2 AND DUP2 MSTORE PUSH1 0x20 ADD PUSH2 0x27F JUMP JUMPDEST CALLVALUE DUP1 ISZERO PUSH2 0x539 JUMPI PUSH0 PUSH0 REVERT JUMPDEST POP PUSH2 0x29C PUSH3 0x13C680 DUP2 JUMP JUMPDEST CALLVALUE DUP1 ISZERO PUSH2 0x54F JUMPI PUSH0 PUSH0 REVERT JUMPDEST POP PUSH2 0x256 PUSH2 0x55E CALLDATASIZE PUSH1 0x4 PUSH2 0x3C06 JUMP JUMPDEST PUSH2 0x1BE2 JUMP JUMPDEST CALLVALUE DUP1 ISZERO PUSH2 0x56E JUMPI PUSH0 PUSH0 REVERT JUMPDEST POP PUSH2 0x256 PUSH2 0x2066 JUMP JUMPDEST CALLVALUE DUP1 ISZERO PUSH2 0x582 JUMPI PUSH0 PUSH0 REVERT JUMPDEST POP PUSH2 0x271 PUSH2 0x20FE JUMP JUMPDEST CALLVALUE DUP1 ISZERO PUSH2 0x596 JUMPI PUSH0 PUSH0 REVERT JUMPDEST POP PUSH2 0x256 PUSH2 0x5A5 CALLDATASIZE PUSH1 0x4 PUSH2 0x38B1 JUMP JUMPDEST PUSH2 0x210C JUMP JUMPDEST CALLVALUE DUP1 ISZERO PUSH2 0x5B5 JUMPI PUSH0 PUSH0 REVERT JUMPDEST POP PUSH2 0x516 PUSH2 0x5C4 CALLDATASIZE PUSH1 0x4 PUSH2 0x3A34 JUMP JUMPDEST PUSH2 0x2588 JUMP JUMPDEST CALLVALUE DUP1 ISZERO PUSH2 0x5D4 JUMPI PUSH0 PUSH0 REVERT JUMPDEST POP PUSH1 0x9 SLOAD PUSH2 0x2E7 SWAP1 PUSH1 0xFF AND DUP2 JUMP JUMPDEST CALLVALUE DUP1 ISZERO PUSH2 0x5ED JUMPI PUSH0 PUSH0 REVERT JUMPDEST POP PUSH2 0x631 PUSH2 0x5FC CALLDATASIZE PUSH1 0x4 PUSH2 0x3A34 JUMP JUMPDEST PUSH0 SWAP1 DUP2 MSTORE PUSH1 0x2 PUSH1 0x20 MSTORE PUSH1 0x40 SWAP1 KECCAK256 PUSH1 0x1 ADD SLOAD PUSH1 0xFF DUP1 DUP3 AND SWAP3 PUSH2 0x100 DUP4 DIV PUSH5 0xFFFFFFFFFF AND SWAP3 PUSH1 0x1 PUSH1 0x30 SHL SWAP1 DIV SWAP1 SWAP2 AND SWAP1 TIMESTAMP DUP4 LT SWAP1 JUMP JUMPDEST PUSH1 0x40 DUP1 MLOAD PUSH1 0xFF SWAP1 SWAP6 AND DUP6 MSTORE PUSH5 0xFFFFFFFFFF SWAP1 SWAP4 AND PUSH1 0x20 DUP6 ADD MSTORE SWAP1 ISZERO ISZERO SWAP2 DUP4 ADD SWAP2 SWAP1 SWAP2 MSTORE ISZERO ISZERO PUSH1 0x60 DUP3 ADD MSTORE PUSH1 0x80 ADD PUSH2 0x27F JUMP JUMPDEST CALLVALUE DUP1 ISZERO PUSH2 0x66E JUMPI PUSH0 PUSH0 REVERT JUMPDEST POP PUSH2 0x29C PUSH1 0x5 SLOAD DUP2 JUMP JUMPDEST CALLVALUE DUP1 ISZERO PUSH2 0x683 JUMPI PUSH0 PUSH0 REVERT JUMPDEST POP PUSH2 0x29C PUSH1 0xA SLOAD DUP2 JUMP JUMPDEST CALLVALUE DUP1 ISZERO PUSH2 0x698 JUMPI PUSH0 PUSH0 REVERT JUMPDEST POP PUSH2 0x516 PUSH32 0x0 DUP2 JUMP JUMPDEST CALLVALUE DUP1 ISZERO PUSH2 0x6CB JUMPI PUSH0 PUSH0 REVERT JUMPDEST POP PUSH2 0x256 PUSH2 0x6DA CALLDATASIZE PUSH1 0x4 PUSH2 0x3BEB JUMP JUMPDEST PUSH2 0x25AF JUMP JUMPDEST CALLVALUE DUP1 ISZERO PUSH2 0x6EA JUMPI PUSH0 PUSH0 REVERT JUMPDEST POP PUSH2 0x29C PUSH2 0x1F4 DUP2 JUMP JUMPDEST CALLVALUE DUP1 ISZERO PUSH2 0x6FF JUMPI PUSH0 PUSH0 REVERT JUMPDEST POP PUSH2 0x29C PUSH2 0xE10 DUP2 JUMP JUMPDEST CALLVALUE DUP1 ISZERO PUSH2 0x714 JUMPI PUSH0 PUSH0 REVERT JUMPDEST POP PUSH2 0x29C PUSH1 0x8 SLOAD DUP2 JUMP JUMPDEST CALLVALUE DUP1 ISZERO PUSH2 0x729 JUMPI PUSH0 PUSH0 REVERT JUMPDEST POP PUSH2 0x29C PUSH2 0x738 CALLDATASIZE PUSH1 0x4 PUSH2 0x3BEB JUMP JUMPDEST PUSH2 0x2670 JUMP JUMPDEST CALLVALUE DUP1 ISZERO PUSH2 0x748 JUMPI PUSH0 PUSH0 REVERT JUMPDEST POP PUSH2 0x2E7 PUSH2 0x757 CALLDATASIZE PUSH1 0x4 PUSH2 0x3BEB JUMP JUMPDEST PUSH1 0x1 PUSH1 0x20 MSTORE PUSH0 SWAP1 DUP2 MSTORE PUSH1 0x40 SWAP1 KECCAK256 SLOAD PUSH1 0xFF AND DUP2 JUMP JUMPDEST CALLVALUE DUP1 ISZERO PUSH2 0x776 JUMPI PUSH0 PUSH0 REVERT JUMPDEST POP PUSH2 0x29C PUSH1 0x7 SLOAD DUP2 JUMP JUMPDEST CALLER PUSH32 0x0 PUSH1 0x1 PUSH1 0x1 PUSH1 0xA0 SHL SUB AND EQ PUSH2 0x7C9 JUMPI PUSH1 0x40 MLOAD PUSH4 0x8B906C97 PUSH1 0xE0 SHL DUP2 MSTORE PUSH1 0x4 ADD PUSH1 0x40 MLOAD DUP1 SWAP2 SUB SWAP1 REVERT JUMPDEST PUSH1 0x3 SLOAD PUSH3 0x10000 SWAP1 DIV PUSH1 0xFF AND ISZERO PUSH2 0x7F3 JUMPI PUSH1 0x40 MLOAD PUSH4 0xECEADE9 PUSH1 0xE3 SHL DUP2 MSTORE PUSH1 0x4 ADD PUSH1 0x40 MLOAD DUP1 SWAP2 SUB SWAP1 REVERT JUMPDEST PUSH1 0x3 SLOAD PUSH2 0x100 SWAP1 DIV PUSH1 0xFF AND ISZERO PUSH2 0x81B JUMPI PUSH1 0x40 MLOAD PUSH3 0xDC149F PUSH1 0xE4 SHL DUP2 MSTORE PUSH1 0x4 ADD PUSH1 0x40 MLOAD DUP1 SWAP2 SUB SWAP1 REVERT JUMPDEST PUSH1 0x3 DUP2 MLOAD LT ISZERO PUSH2 0x83E JUMPI PUSH1 0x40 MLOAD PUSH4 0xABC0965 PUSH1 0xE0 SHL DUP2 MSTORE PUSH1 0x4 ADD PUSH1 0x40 MLOAD DUP1 SWAP2 SUB SWAP1 REVERT JUMPDEST PUSH1 0x32 DUP2 MLOAD GT ISZERO PUSH2 0x861 JUMPI PUSH1 0x40 MLOAD PUSH4 0x7E1D76FB PUSH1 0xE0 SHL DUP2 MSTORE PUSH1 0x4 ADD PUSH1 0x40 MLOAD DUP1 SWAP2 SUB SWAP1 REVERT JUMPDEST PUSH0 JUMPDEST DUP2 MLOAD DUP2 LT ISZERO PUSH2 0x982 JUMPI PUSH0 DUP3 DUP3 DUP2 MLOAD DUP2 LT PUSH2 0x87F JUMPI PUSH2 0x87F PUSH2 0x3C4B JUMP JUMPDEST PUSH1 0x20 MUL PUSH1 0x20 ADD ADD MLOAD SWAP1 POP PUSH0 PUSH1 0x1 PUSH1 0x1 PUSH1 0xA0 SHL SUB AND DUP2 PUSH1 0x1 PUSH1 0x1 PUSH1 0xA0 SHL SUB AND SUB PUSH2 0x8BB JUMPI PUSH1 0x40 MLOAD PUSH4 0xE6C4247B PUSH1 0xE0 SHL DUP2 MSTORE PUSH1 0x4 ADD PUSH1 0x40 MLOAD DUP1 SWAP2 SUB SWAP1 REVERT JUMPDEST PUSH32 0x0 PUSH1 0x1 PUSH1 0x1 PUSH1 0xA0 SHL SUB AND DUP2 PUSH1 0x1 PUSH1 0x1 PUSH1 0xA0 SHL SUB AND SUB PUSH2 0x90D JUMPI PUSH1 0x40 MLOAD PUSH4 0x261E30E9 PUSH1 0xE0 SHL DUP2 MSTORE PUSH1 0x4 ADD PUSH1 0x40 MLOAD DUP1 SWAP2 SUB SWAP1 REVERT JUMPDEST PUSH0 PUSH2 0x919 DUP4 PUSH1 0x1 PUSH2 0x3C73 JUMP JUMPDEST SWAP1 POP JUMPDEST DUP4 MLOAD DUP2 LT ISZERO PUSH2 0x978 JUMPI DUP4 DUP2 DUP2 MLOAD DUP2 LT PUSH2 0x937 JUMPI PUSH2 0x937 PUSH2 0x3C4B JUMP JUMPDEST PUSH1 0x20 MUL PUSH1 0x20 ADD ADD MLOAD PUSH1 0x1 PUSH1 0x1 PUSH1 0xA0 SHL SUB AND DUP3 PUSH1 0x1 PUSH1 0x1 PUSH1 0xA0 SHL SUB AND SUB PUSH2 0x970 JUMPI PUSH1 0x40 MLOAD PUSH4 0x148F8AB PUSH1 0xE3 SHL DUP2 MSTORE PUSH1 0x4 ADD PUSH1 0x40 MLOAD DUP1 SWAP2 SUB SWAP1 REVERT JUMPDEST PUSH1 0x1 ADD PUSH2 0x91C JUMP JUMPDEST POP POP PUSH1 0x1 ADD PUSH2 0x863 JUMP JUMPDEST POP DUP1 MLOAD PUSH2 0x995 SWAP1 PUSH0 SWAP1 PUSH1 0x20 DUP5 ADD SWAP1 PUSH2 0x37B2 JUMP JUMPDEST POP DUP1 MLOAD PUSH1 0x3 DUP1 SLOAD PUSH1 0xFF NOT AND PUSH1 0xFF DUP4 AND OR SWAP1 SSTORE PUSH0 JUMPDEST DUP2 DUP2 LT ISZERO PUSH2 0xA59 JUMPI PUSH1 0x1 DUP1 PUSH0 DUP6 DUP5 DUP2 MLOAD DUP2 LT PUSH2 0x9C7 JUMPI PUSH2 0x9C7 PUSH2 0x3C4B JUMP JUMPDEST PUSH1 0x20 SWAP1 DUP2 MUL SWAP2 SWAP1 SWAP2 ADD DUP2 ADD MLOAD PUSH1 0x1 PUSH1 0x1 PUSH1 0xA0 SHL SUB AND DUP3 MSTORE DUP2 ADD SWAP2 SWAP1 SWAP2 MSTORE PUSH1 0x40 ADD PUSH0 KECCAK256 DUP1 SLOAD PUSH1 0xFF NOT AND SWAP2 ISZERO ISZERO SWAP2 SWAP1 SWAP2 OR SWAP1 SSTORE CALLER PUSH1 0x1 PUSH1 0x1 PUSH1 0xA0 SHL SUB AND DUP4 DUP3 DUP2 MLOAD DUP2 LT PUSH2 0xA14 JUMPI PUSH2 0xA14 PUSH2 0x3C4B JUMP JUMPDEST PUSH1 0x20 MUL PUSH1 0x20 ADD ADD MLOAD PUSH1 0x1 PUSH1 0x1 PUSH1 0xA0 SHL SUB AND PUSH32 0x7221372411F0405C58B7B48E3951C448BB594DAD75F79BF6AEFA69AF430D6062 PUSH1 0x40 MLOAD PUSH1 0x40 MLOAD DUP1 SWAP2 SUB SWAP1 LOG3 PUSH1 0x1 ADD PUSH2 0x9A9 JUMP JUMPDEST POP POP PUSH1 0x3 DUP1 SLOAD PUSH2 0xFF00 NOT AND PUSH2 0x100 OR SWAP1 SSTORE POP TIMESTAMP PUSH1 0x4 SSTORE JUMP JUMPDEST CALLVALUE PUSH1 0x7 PUSH0 DUP3 DUP3 SLOAD PUSH2 0xA82 SWAP2 SWAP1 PUSH2 0x3C73 JUMP JUMPDEST SWAP1 SWAP2 SSTORE POP POP PUSH1 0x7 SLOAD PUSH1 0x40 DUP1 MLOAD CALLVALUE DUP2 MSTORE PUSH1 0x20 DUP2 ADD SWAP3 SWAP1 SWAP3 MSTORE PUSH32 0x1D998B34013C7206CCAC82F58A2E346D08BBF2BC5A9545C089CA5653A69DCFB5 SWAP2 ADD PUSH1 0x40 MLOAD DUP1 SWAP2 SUB SWAP1 LOG1 JUMP JUMPDEST PUSH0 DUP3 DUP2 MSTORE PUSH1 0x2 PUSH1 0x20 SWAP1 DUP2 MSTORE PUSH1 0x40 DUP1 DUP4 KECCAK256 PUSH1 0x1 PUSH1 0x1 PUSH1 0xA0 SHL SUB DUP6 AND DUP5 MSTORE SWAP1 SWAP2 MSTORE SWAP1 KECCAK256 SLOAD PUSH1 0xFF AND JUMPDEST SWAP3 SWAP2 POP POP JUMP JUMPDEST CALLER PUSH32 0x0 PUSH1 0x1 PUSH1 0x1 PUSH1 0xA0 SHL SUB AND EQ PUSH2 0xB3B JUMPI PUSH1 0x40 MLOAD PUSH4 0x8B906C97 PUSH1 0xE0 SHL DUP2 MSTORE PUSH1 0x4 ADD PUSH1 0x40 MLOAD DUP1 SWAP2 SUB SWAP1 REVERT JUMPDEST PUSH1 0x9 DUP1 SLOAD PUSH1 0xFF NOT AND DUP5 ISZERO ISZERO SWAP1 DUP2 OR SWAP1 SWAP2 SSTORE PUSH1 0x8 DUP4 SWAP1 SSTORE PUSH1 0xA DUP3 SWAP1 SSTORE PUSH1 0x40 DUP1 MLOAD SWAP2 DUP3 MSTORE PUSH1 0x20 DUP3 ADD DUP5 SWAP1 MSTORE PUSH32 0x4A5B1819E69EA9A8E928C484746CDA0D3EF678B0ABFC9A113D7748A3EBB87018 SWAP2 ADD PUSH1 0x40 MLOAD DUP1 SWAP2 SUB SWAP1 LOG1 POP POP POP JUMP JUMPDEST CALLER PUSH0 SWAP1 DUP2 MSTORE PUSH1 0x1 PUSH1 0x20 MSTORE PUSH1 0x40 SWAP1 KECCAK256 SLOAD PUSH1 0xFF AND PUSH2 0xBC3 JUMPI PUSH1 0x40 MLOAD PUSH4 0xEA8E4EB5 PUSH1 0xE0 SHL DUP2 MSTORE PUSH1 0x4 ADD PUSH1 0x40 MLOAD DUP1 SWAP2 SUB SWAP1 REVERT JUMPDEST PUSH1 0x3 SLOAD PUSH3 0x10000 SWAP1 DIV PUSH1 0xFF AND ISZERO PUSH2 0xBED JUMPI PUSH1 0x40 MLOAD PUSH4 0xECEADE9 PUSH1 0xE3 SHL DUP2 MSTORE PUSH1 0x4 ADD PUSH1 0x40 MLOAD DUP1 SWAP2 SUB SWAP1 REVERT JUMPDEST PUSH1 0x3 DUP2 LT ISZERO PUSH2 0xC0F JUMPI PUSH1 0x40 MLOAD PUSH4 0xABC0965 PUSH1 0xE0 SHL DUP2 MSTORE PUSH1 0x4 ADD PUSH1 0x40 MLOAD DUP1 SWAP2 SUB SWAP1 REVERT JUMPDEST PUSH1 0x32 DUP2 GT ISZERO PUSH2 0xC31 JUMPI PUSH1 0x40 MLOAD PUSH4 0x7E1D76FB PUSH1 0xE0 SHL DUP2 MSTORE PUSH1 0x4 ADD PUSH1 0x40 MLOAD DUP1 SWAP2 SUB SWAP1 REVERT JUMPDEST PUSH0 JUMPDEST DUP2 DUP2 LT ISZERO PUSH2 0xD98 JUMPI PUSH0 DUP4 DUP4 DUP4 DUP2 DUP2 LT PUSH2 0xC4E JUMPI PUSH2 0xC4E PUSH2 0x3C4B JUMP JUMPDEST SWAP1 POP PUSH1 0x20 MUL ADD PUSH1 0x20 DUP2 ADD SWAP1 PUSH2 0xC63 SWAP2 SWAP1 PUSH2 0x3BEB JUMP JUMPDEST SWAP1 POP PUSH1 0x1 PUSH1 0x1 PUSH1 0xA0 SHL SUB DUP2 AND PUSH2 0xC8C JUMPI PUSH1 0x40 MLOAD PUSH4 0xE6C4247B PUSH1 0xE0 SHL DUP2 MSTORE PUSH1 0x4 ADD PUSH1 0x40 MLOAD DUP1 SWAP2 SUB SWAP1 REVERT JUMPDEST PUSH32 0x0 PUSH1 0x1 PUSH1 0x1 PUSH1 0xA0 SHL SUB AND DUP2 PUSH1 0x1 PUSH1 0x1 PUSH1 0xA0 SHL SUB AND SUB PUSH2 0xCDE JUMPI PUSH1 0x40 MLOAD PUSH4 0x261E30E9 PUSH1 0xE0 SHL DUP2 MSTORE PUSH1 0x4 ADD PUSH1 0x40 MLOAD DUP1 SWAP2 SUB SWAP1 REVERT JUMPDEST PUSH1 0x1 PUSH1 0x1 PUSH1 0xA0 SHL SUB DUP2 AND PUSH0 SWAP1 DUP2 MSTORE PUSH1 0x1 PUSH1 0x20 MSTORE PUSH1 0x40 SWAP1 KECCAK256 SLOAD PUSH1 0xFF AND ISZERO PUSH2 0xD17 JUMPI PUSH1 0x40 MLOAD PUSH4 0x6CD46A3 PUSH1 0xE1 SHL DUP2 MSTORE PUSH1 0x4 ADD PUSH1 0x40 MLOAD DUP1 SWAP2 SUB SWAP1 REVERT JUMPDEST PUSH0 PUSH2 0xD23 DUP4 PUSH1 0x1 PUSH2 0x3C73 JUMP JUMPDEST SWAP1 POP JUMPDEST DUP4 DUP2 LT ISZERO PUSH2 0xD8E JUMPI DUP5 DUP5 DUP3 DUP2 DUP2 LT PUSH2 0xD40 JUMPI PUSH2 0xD40 PUSH2 0x3C4B JUMP JUMPDEST SWAP1 POP PUSH1 0x20 MUL ADD PUSH1 0x20 DUP2 ADD SWAP1 PUSH2 0xD55 SWAP2 SWAP1 PUSH2 0x3BEB JUMP JUMPDEST PUSH1 0x1 PUSH1 0x1 PUSH1 0xA0 SHL SUB AND DUP3 PUSH1 0x1 PUSH1 0x1 PUSH1 0xA0 SHL SUB AND SUB PUSH2 0xD86 JUMPI PUSH1 0x40 MLOAD PUSH4 0x148F8AB PUSH1 0xE3 SHL DUP2 MSTORE PUSH1 0x4 ADD PUSH1 0x40 MLOAD DUP1 SWAP2 SUB SWAP1 REVERT JUMPDEST PUSH1 0x1 ADD PUSH2 0xD26 JUMP JUMPDEST POP POP PUSH1 0x1 ADD PUSH2 0xC33 JUMP JUMPDEST POP CALLER PUSH0 PUSH2 0xDA5 DUP6 DUP4 PUSH2 0x2695 JUMP JUMPDEST SWAP1 POP PUSH0 DUP5 DUP5 PUSH1 0x40 MLOAD PUSH1 0x20 ADD PUSH2 0xDBB SWAP3 SWAP2 SWAP1 PUSH2 0x3C86 JUMP JUMPDEST PUSH1 0x40 DUP1 MLOAD DUP1 DUP4 SUB PUSH1 0x1F NOT ADD DUP2 MSTORE SWAP2 DUP2 MSTORE PUSH0 DUP5 DUP2 MSTORE PUSH1 0x2 PUSH1 0x20 MSTORE SWAP1 DUP2 KECCAK256 PUSH1 0x1 DUP2 ADD SLOAD SWAP3 SWAP4 POP SWAP2 PUSH2 0x100 SWAP1 DIV PUSH5 0xFFFFFFFFFF AND SWAP1 SUB PUSH2 0xE9C JUMPI PUSH2 0xDFE PUSH2 0xE10 TIMESTAMP PUSH2 0x3C73 JUMP JUMPDEST PUSH1 0x1 DUP3 ADD DUP1 SLOAD PUSH8 0xFFFF000000000100 PUSH1 0x1 PUSH1 0xE0 SHL SUB NOT AND PUSH2 0x100 PUSH5 0xFFFFFFFFFF SWAP4 SWAP1 SWAP4 AND SWAP3 SWAP1 SWAP3 MUL PUSH1 0x1 PUSH1 0x40 SHL PUSH1 0x1 PUSH1 0xE0 SHL SUB NOT AND SWAP2 SWAP1 SWAP2 OR PUSH1 0x1 PUSH1 0x40 SHL PUSH1 0x1 PUSH1 0x1 PUSH1 0xA0 SHL SUB DUP8 AND MUL OR SWAP1 SSTORE PUSH1 0x2 DUP2 ADD PUSH2 0xE58 DUP4 DUP3 PUSH2 0x3D7A JUMP JUMPDEST POP PUSH1 0x1 DUP2 ADD SLOAD PUSH1 0x40 MLOAD PUSH2 0x100 SWAP1 SWAP2 DIV PUSH5 0xFFFFFFFFFF AND DUP2 MSTORE PUSH1 0x1 PUSH1 0x1 PUSH1 0xA0 SHL SUB DUP6 AND SWAP1 DUP5 SWAP1 PUSH0 MLOAD PUSH1 0x20 PUSH2 0x427D PUSH0 CODECOPY PUSH0 MLOAD SWAP1 PUSH0 MSTORE SWAP1 PUSH1 0x20 ADD PUSH1 0x40 MLOAD DUP1 SWAP2 SUB SWAP1 LOG3 PUSH2 0xEDA JUMP JUMPDEST DUP2 MLOAD PUSH1 0x20 DUP4 ADD KECCAK256 PUSH1 0x40 MLOAD PUSH2 0xEB4 SWAP1 PUSH1 0x2 DUP5 ADD SWAP1 PUSH2 0x3E34 JUMP JUMPDEST PUSH1 0x40 MLOAD DUP1 SWAP2 SUB SWAP1 KECCAK256 EQ PUSH2 0xEDA JUMPI PUSH1 0x40 MLOAD PUSH4 0x4CD6F7C3 PUSH1 0xE0 SHL DUP2 MSTORE PUSH1 0x4 ADD PUSH1 0x40 MLOAD DUP1 SWAP2 SUB SWAP1 REVERT JUMPDEST PUSH1 0x1 DUP2 ADD SLOAD PUSH2 0x100 SWAP1 DIV PUSH5 0xFFFFFFFFFF AND TIMESTAMP GT ISZERO PUSH2 0xF0B JUMPI PUSH1 0x40 MLOAD PUSH4 0x28A72379 PUSH1 0xE0 SHL DUP2 MSTORE PUSH1 0x4 ADD PUSH1 0x40 MLOAD DUP1 SWAP2 SUB SWAP1 REVERT JUMPDEST PUSH1 0x1 DUP2 ADD SLOAD PUSH1 0x1 PUSH1 0x30 SHL SWAP1 DIV PUSH1 0xFF AND ISZERO PUSH2 0xF38 JUMPI PUSH1 0x40 MLOAD PUSH4 0xDC10197 PUSH1 0xE0 SHL DUP2 MSTORE PUSH1 0x4 ADD PUSH1 0x40 MLOAD DUP1 SWAP2 SUB SWAP1 REVERT JUMPDEST PUSH1 0x1 DUP2 ADD SLOAD PUSH1 0x1 PUSH1 0x38 SHL SWAP1 DIV PUSH1 0xFF AND ISZERO PUSH2 0xF65 JUMPI PUSH1 0x40 MLOAD PUSH4 0x28A72379 PUSH1 0xE0 SHL DUP2 MSTORE PUSH1 0x4 ADD PUSH1 0x40 MLOAD DUP1 SWAP2 SUB SWAP1 REVERT JUMPDEST PUSH1 0x1 PUSH1 0x1 PUSH1 0xA0 SHL SUB DUP5 AND PUSH0 SWAP1 DUP2 MSTORE PUSH1 0x20 DUP3 SWAP1 MSTORE PUSH1 0x40 SWAP1 KECCAK256 SLOAD PUSH1 0xFF AND ISZERO PUSH2 0xF9E JUMPI PUSH1 0x40 MLOAD PUSH4 0x80FC0BD PUSH1 0xE1 SHL DUP2 MSTORE PUSH1 0x4 ADD PUSH1 0x40 MLOAD DUP1 SWAP2 SUB SWAP1 REVERT JUMPDEST PUSH1 0x1 PUSH1 0x1 PUSH1 0xA0 SHL SUB DUP5 AND PUSH0 SWAP1 DUP2 MSTORE PUSH1 0x20 DUP3 SWAP1 MSTORE PUSH1 0x40 DUP2 KECCAK256 DUP1 SLOAD PUSH1 0xFF NOT AND PUSH1 0x1 SWAP1 DUP2 OR SWAP1 SWAP2 SSTORE DUP3 ADD DUP1 SLOAD DUP3 SWAP1 PUSH2 0xFD5 SWAP1 PUSH1 0xFF AND PUSH2 0x3EA5 JUMP JUMPDEST SWAP2 SWAP1 PUSH2 0x100 EXP DUP2 SLOAD DUP2 PUSH1 0xFF MUL NOT AND SWAP1 DUP4 PUSH1 0xFF AND MUL OR SWAP1 SSTORE SWAP1 POP DUP5 PUSH1 0x1 PUSH1 0x1 PUSH1 0xA0 SHL SUB AND DUP5 PUSH0 MLOAD PUSH1 0x20 PUSH2 0x425D PUSH0 CODECOPY PUSH0 MLOAD SWAP1 PUSH0 MSTORE DUP4 PUSH1 0x40 MLOAD PUSH2 0x101E SWAP2 SWAP1 PUSH1 0xFF SWAP2 SWAP1 SWAP2 AND DUP2 MSTORE PUSH1 0x20 ADD SWAP1 JUMP JUMPDEST PUSH1 0x40 MLOAD DUP1 SWAP2 SUB SWAP1 LOG3 PUSH0 PUSH2 0x102F PUSH2 0x27C7 JUMP JUMPDEST SWAP1 POP DUP1 PUSH1 0xFF AND DUP3 PUSH1 0xFF AND LT PUSH2 0x1108 JUMPI PUSH1 0x1 DUP4 ADD DUP1 SLOAD PUSH1 0xFF PUSH1 0x30 SHL NOT AND PUSH1 0x1 PUSH1 0x30 SHL OR SWAP1 SSTORE PUSH1 0x2 DUP4 ADD DUP1 SLOAD PUSH2 0x10E8 SWAP2 SWAP1 PUSH2 0x1067 SWAP1 PUSH2 0x3CF7 JUMP JUMPDEST DUP1 PUSH1 0x1F ADD PUSH1 0x20 DUP1 SWAP2 DIV MUL PUSH1 0x20 ADD PUSH1 0x40 MLOAD SWAP1 DUP2 ADD PUSH1 0x40 MSTORE DUP1 SWAP3 SWAP2 SWAP1 DUP2 DUP2 MSTORE PUSH1 0x20 ADD DUP3 DUP1 SLOAD PUSH2 0x1093 SWAP1 PUSH2 0x3CF7 JUMP JUMPDEST DUP1 ISZERO PUSH2 0x10DE JUMPI DUP1 PUSH1 0x1F LT PUSH2 0x10B5 JUMPI PUSH2 0x100 DUP1 DUP4 SLOAD DIV MUL DUP4 MSTORE SWAP2 PUSH1 0x20 ADD SWAP2 PUSH2 0x10DE JUMP JUMPDEST DUP3 ADD SWAP2 SWAP1 PUSH0 MSTORE PUSH1 0x20 PUSH0 KECCAK256 SWAP1 JUMPDEST DUP2 SLOAD DUP2 MSTORE SWAP1 PUSH1 0x1 ADD SWAP1 PUSH1 0x20 ADD DUP1 DUP4 GT PUSH2 0x10C1 JUMPI DUP3 SWAP1 SUB PUSH1 0x1F AND DUP3 ADD SWAP2 JUMPDEST POP POP POP POP POP PUSH2 0x27F1 JUMP JUMPDEST PUSH1 0x40 MLOAD DUP6 SWAP1 PUSH0 MLOAD PUSH1 0x20 PUSH2 0x423D PUSH0 CODECOPY PUSH0 MLOAD SWAP1 PUSH0 MSTORE SWAP1 PUSH0 SWAP1 LOG2 PUSH2 0x1108 DUP7 PUSH2 0x2A53 JUMP JUMPDEST POP POP POP POP POP POP POP POP POP JUMP JUMPDEST CALLER PUSH0 SWAP1 DUP2 MSTORE PUSH1 0x1 PUSH1 0x20 MSTORE PUSH1 0x40 SWAP1 KECCAK256 SLOAD PUSH1 0xFF AND PUSH2 0x1142 JUMPI PUSH1 0x40 MLOAD PUSH4 0xEA8E4EB5 PUSH1 0xE0 SHL DUP2 MSTORE PUSH1 0x4 ADD PUSH1 0x40 MLOAD DUP1 SWAP2 SUB SWAP1 REVERT JUMPDEST PUSH1 0x3 SLOAD PUSH3 0x10000 SWAP1 DIV PUSH1 0xFF AND ISZERO PUSH2 0x116C JUMPI PUSH1 0x40 MLOAD PUSH4 0xECEADE9 PUSH1 0xE3 SHL DUP2 MSTORE PUSH1 0x4 ADD PUSH1 0x40 MLOAD DUP1 SWAP2 SUB SWAP1 REVERT JUMPDEST PUSH1 0x3 SLOAD PUSH4 0x1000000 SWAP1 DIV PUSH1 0xFF AND ISZERO PUSH2 0x1197 JUMPI PUSH1 0x40 MLOAD PUSH4 0x45F5CE8B PUSH1 0xE1 SHL DUP2 MSTORE PUSH1 0x4 ADD PUSH1 0x40 MLOAD DUP1 SWAP2 SUB SWAP1 REVERT JUMPDEST PUSH1 0x3 DUP1 SLOAD PUSH4 0xFF000000 NOT AND PUSH4 0x1000000 OR SWAP1 SSTORE PUSH1 0x1 PUSH1 0x1 PUSH1 0xA0 SHL SUB DUP4 AND PUSH2 0x11D1 JUMPI PUSH1 0x40 MLOAD PUSH4 0xE6C4247B PUSH1 0xE0 SHL DUP2 MSTORE PUSH1 0x4 ADD PUSH1 0x40 MLOAD DUP1 SWAP2 SUB SWAP1 REVERT JUMPDEST DUP2 PUSH0 SUB PUSH2 0x11F1 JUMPI PUSH1 0x40 MLOAD PUSH4 0x162908E3 PUSH1 0xE1 SHL DUP2 MSTORE PUSH1 0x4 ADD PUSH1 0x40 MLOAD DUP1 SWAP2 SUB SWAP1 REVERT JUMPDEST PUSH2 0x1F4 DUP2 GT ISZERO PUSH2 0x1214 JUMPI PUSH1 0x40 MLOAD PUSH4 0xFAA34455 PUSH1 0xE0 SHL DUP2 MSTORE PUSH1 0x4 ADD PUSH1 0x40 MLOAD DUP1 SWAP2 SUB SWAP1 REVERT JUMPDEST CALLER PUSH0 PUSH2 0x1220 DUP8 DUP4 PUSH2 0x2695 JUMP JUMPDEST SWAP1 POP PUSH0 DUP7 DUP7 DUP7 DUP7 PUSH1 0x40 MLOAD PUSH1 0x20 ADD PUSH2 0x123A SWAP5 SWAP4 SWAP3 SWAP2 SWAP1 PUSH2 0x3EC3 JUMP JUMPDEST PUSH1 0x40 DUP1 MLOAD DUP1 DUP4 SUB PUSH1 0x1F NOT ADD DUP2 MSTORE SWAP2 DUP2 MSTORE PUSH0 DUP5 DUP2 MSTORE PUSH1 0x2 PUSH1 0x20 MSTORE SWAP1 DUP2 KECCAK256 PUSH1 0x1 DUP2 ADD SLOAD SWAP3 SWAP4 POP SWAP2 PUSH2 0x100 SWAP1 DIV PUSH5 0xFFFFFFFFFF AND SWAP1 SUB PUSH2 0x131B JUMPI PUSH2 0x127D PUSH2 0xE10 TIMESTAMP PUSH2 0x3C73 JUMP JUMPDEST PUSH1 0x1 DUP3 ADD DUP1 SLOAD PUSH8 0xFFFF000000000100 PUSH1 0x1 PUSH1 0xE0 SHL SUB NOT AND PUSH2 0x100 PUSH5 0xFFFFFFFFFF SWAP4 SWAP1 SWAP4 AND SWAP3 SWAP1 SWAP3 MUL PUSH1 0x1 PUSH1 0x40 SHL PUSH1 0x1 PUSH1 0xE0 SHL SUB NOT AND SWAP2 SWAP1 SWAP2 OR PUSH1 0x1 PUSH1 0x40 SHL PUSH1 0x1 PUSH1 0x1 PUSH1 0xA0 SHL SUB DUP8 AND MUL OR SWAP1 SSTORE PUSH1 0x2 DUP2 ADD PUSH2 0x12D7 DUP4 DUP3 PUSH2 0x3D7A JUMP JUMPDEST POP PUSH1 0x1 DUP2 ADD SLOAD PUSH1 0x40 MLOAD PUSH2 0x100 SWAP1 SWAP2 DIV PUSH5 0xFFFFFFFFFF AND DUP2 MSTORE PUSH1 0x1 PUSH1 0x1 PUSH1 0xA0 SHL SUB DUP6 AND SWAP1 DUP5 SWAP1 PUSH0 MLOAD PUSH1 0x20 PUSH2 0x427D PUSH0 CODECOPY PUSH0 MLOAD SWAP1 PUSH0 MSTORE SWAP1 PUSH1 0x20 ADD PUSH1 0x40 MLOAD DUP1 SWAP2 SUB SWAP1 LOG3 PUSH2 0x1359 JUMP JUMPDEST DUP2 MLOAD PUSH1 0x20 DUP4 ADD KECCAK256 PUSH1 0x40 MLOAD PUSH2 0x1333 SWAP1 PUSH1 0x2 DUP5 ADD SWAP1 PUSH2 0x3E34 JUMP JUMPDEST PUSH1 0x40 MLOAD DUP1 SWAP2 SUB SWAP1 KECCAK256 EQ PUSH2 0x1359 JUMPI PUSH1 0x40 MLOAD PUSH4 0x4CD6F7C3 PUSH1 0xE0 SHL DUP2 MSTORE PUSH1 0x4 ADD PUSH1 0x40 MLOAD DUP1 SWAP2 SUB SWAP1 REVERT JUMPDEST PUSH1 0x1 DUP2 ADD SLOAD PUSH2 0x100 SWAP1 DIV PUSH5 0xFFFFFFFFFF AND TIMESTAMP GT ISZERO PUSH2 0x138A JUMPI PUSH1 0x40 MLOAD PUSH4 0x28A72379 PUSH1 0xE0 SHL DUP2 MSTORE PUSH1 0x4 ADD PUSH1 0x40 MLOAD DUP1 SWAP2 SUB SWAP1 REVERT JUMPDEST PUSH1 0x1 DUP2 ADD SLOAD PUSH1 0x1 PUSH1 0x30 SHL SWAP1 DIV PUSH1 0xFF AND ISZERO PUSH2 0x13B7 JUMPI PUSH1 0x40 MLOAD PUSH4 0xDC10197 PUSH1 0xE0 SHL DUP2 MSTORE PUSH1 0x4 ADD PUSH1 0x40 MLOAD DUP1 SWAP2 SUB SWAP1 REVERT JUMPDEST PUSH1 0x1 DUP2 ADD SLOAD PUSH1 0x1 PUSH1 0x38 SHL SWAP1 DIV PUSH1 0xFF AND ISZERO PUSH2 0x13E4 JUMPI PUSH1 0x40 MLOAD PUSH4 0x28A72379 PUSH1 0xE0 SHL DUP2 MSTORE PUSH1 0x4 ADD PUSH1 0x40 MLOAD DUP1 SWAP2 SUB SWAP1 REVERT JUMPDEST PUSH1 0x1 PUSH1 0x1 PUSH1 0xA0 SHL SUB DUP5 AND PUSH0 SWAP1 DUP2 MSTORE PUSH1 0x20 DUP3 SWAP1 MSTORE PUSH1 0x40 SWAP1 KECCAK256 SLOAD PUSH1 0xFF AND ISZERO PUSH2 0x141D JUMPI PUSH1 0x40 MLOAD PUSH4 0x80FC0BD PUSH1 0xE1 SHL DUP2 MSTORE PUSH1 0x4 ADD PUSH1 0x40 MLOAD DUP1 SWAP2 SUB SWAP1 REVERT JUMPDEST PUSH1 0x1 PUSH1 0x1 PUSH1 0xA0 SHL SUB DUP5 AND PUSH0 SWAP1 DUP2 MSTORE PUSH1 0x20 DUP3 SWAP1 MSTORE PUSH1 0x40 DUP2 KECCAK256 DUP1 SLOAD PUSH1 0xFF NOT AND PUSH1 0x1 SWAP1 DUP2 OR SWAP1 SWAP2 SSTORE DUP3 ADD DUP1 SLOAD DUP3 SWAP1 PUSH2 0x1454 SWAP1 PUSH1 0xFF AND PUSH2 0x3EA5 JUMP JUMPDEST SWAP2 SWAP1 PUSH2 0x100 EXP DUP2 SLOAD DUP2 PUSH1 0xFF MUL NOT AND SWAP1 DUP4 PUSH1 0xFF AND MUL OR SWAP1 SSTORE SWAP1 POP DUP5 PUSH1 0x1 PUSH1 0x1 PUSH1 0xA0 SHL SUB AND DUP5 PUSH0 MLOAD PUSH1 0x20 PUSH2 0x425D PUSH0 CODECOPY PUSH0 MLOAD SWAP1 PUSH0 MSTORE DUP4 PUSH1 0x40 MLOAD PUSH2 0x149D SWAP2 SWAP1 PUSH1 0xFF SWAP2 SWAP1 SWAP2 AND DUP2 MSTORE PUSH1 0x20 ADD SWAP1 JUMP JUMPDEST PUSH1 0x40 MLOAD DUP1 SWAP2 SUB SWAP1 LOG3 PUSH0 PUSH2 0x14AE PUSH2 0x27C7 JUMP JUMPDEST SWAP1 POP DUP1 PUSH1 0xFF AND DUP3 PUSH1 0xFF AND LT PUSH2 0x1587 JUMPI PUSH1 0x1 DUP4 ADD DUP1 SLOAD PUSH1 0xFF PUSH1 0x30 SHL NOT AND PUSH1 0x1 PUSH1 0x30 SHL OR SWAP1 SSTORE PUSH1 0x2 DUP4 ADD DUP1 SLOAD PUSH2 0x1567 SWAP2 SWAP1 PUSH2 0x14E6 SWAP1 PUSH2 0x3CF7 JUMP JUMPDEST DUP1 PUSH1 0x1F ADD PUSH1 0x20 DUP1 SWAP2 DIV MUL PUSH1 0x20 ADD PUSH1 0x40 MLOAD SWAP1 DUP2 ADD PUSH1 0x40 MSTORE DUP1 SWAP3 SWAP2 SWAP1 DUP2 DUP2 MSTORE PUSH1 0x20 ADD DUP3 DUP1 SLOAD PUSH2 0x1512 SWAP1 PUSH2 0x3CF7 JUMP JUMPDEST DUP1 ISZERO PUSH2 0x155D JUMPI DUP1 PUSH1 0x1F LT PUSH2 0x1534 JUMPI PUSH2 0x100 DUP1 DUP4 SLOAD DIV MUL DUP4 MSTORE SWAP2 PUSH1 0x20 ADD SWAP2 PUSH2 0x155D JUMP JUMPDEST DUP3 ADD SWAP2 SWAP1 PUSH0 MSTORE PUSH1 0x20 PUSH0 KECCAK256 SWAP1 JUMPDEST DUP2 SLOAD DUP2 MSTORE SWAP1 PUSH1 0x1 ADD SWAP1 PUSH1 0x20 ADD DUP1 DUP4 GT PUSH2 0x1540 JUMPI DUP3 SWAP1 SUB PUSH1 0x1F AND DUP3 ADD SWAP2 JUMPDEST POP POP POP POP POP PUSH2 0x2B50 JUMP JUMPDEST PUSH1 0x40 MLOAD DUP6 SWAP1 PUSH0 MLOAD PUSH1 0x20 PUSH2 0x423D PUSH0 CODECOPY PUSH0 MLOAD SWAP1 PUSH0 MSTORE SWAP1 PUSH0 SWAP1 LOG2 PUSH2 0x1587 DUP7 PUSH2 0x2A53 JUMP JUMPDEST POP POP PUSH1 0x3 DUP1 SLOAD PUSH4 0xFF000000 NOT AND SWAP1 SSTORE POP POP POP POP POP POP POP POP POP JUMP JUMPDEST PUSH1 0x2 PUSH1 0x20 DUP2 SWAP1 MSTORE PUSH0 SWAP2 DUP3 MSTORE PUSH1 0x40 SWAP1 SWAP2 KECCAK256 PUSH1 0x1 DUP2 ADD SLOAD SWAP2 DUP2 ADD DUP1 SLOAD PUSH1 0xFF DUP1 DUP6 AND SWAP5 PUSH2 0x100 DUP2 DIV PUSH5 0xFFFFFFFFFF AND SWAP5 PUSH1 0x1 PUSH1 0x30 SHL DUP3 DIV DUP4 AND SWAP5 PUSH1 0x1 PUSH1 0x38 SHL DUP4 DIV SWAP1 SWAP4 AND SWAP4 PUSH1 0x1 PUSH1 0x40 SHL SWAP1 SWAP3 DIV PUSH1 0x1 PUSH1 0x1 PUSH1 0xA0 SHL SUB AND SWAP3 SWAP1 SWAP2 PUSH2 0x1600 SWAP1 PUSH2 0x3CF7 JUMP JUMPDEST DUP1 PUSH1 0x1F ADD PUSH1 0x20 DUP1 SWAP2 DIV MUL PUSH1 0x20 ADD PUSH1 0x40 MLOAD SWAP1 DUP2 ADD PUSH1 0x40 MSTORE DUP1 SWAP3 SWAP2 SWAP1 DUP2 DUP2 MSTORE PUSH1 0x20 ADD DUP3 DUP1 SLOAD PUSH2 0x162C SWAP1 PUSH2 0x3CF7 JUMP JUMPDEST DUP1 ISZERO PUSH2 0x1677 JUMPI DUP1 PUSH1 0x1F LT PUSH2 0x164E JUMPI PUSH2 0x100 DUP1 DUP4 SLOAD DIV MUL DUP4 MSTORE SWAP2 PUSH1 0x20 ADD SWAP2 PUSH2 0x1677 JUMP JUMPDEST DUP3 ADD SWAP2 SWAP1 PUSH0 MSTORE PUSH1 0x20 PUSH0 KECCAK256 SWAP1 JUMPDEST DUP2 SLOAD DUP2 MSTORE SWAP1 PUSH1 0x1 ADD SWAP1 PUSH1 0x20 ADD DUP1 DUP4 GT PUSH2 0x165A JUMPI DUP3 SWAP1 SUB PUSH1 0x1F AND DUP3 ADD SWAP2 JUMPDEST POP POP POP POP POP SWAP1 POP DUP7 JUMP JUMPDEST CALLER PUSH0 SWAP1 DUP2 MSTORE PUSH1 0x1 PUSH1 0x20 MSTORE PUSH1 0x40 SWAP1 KECCAK256 SLOAD PUSH1 0xFF AND PUSH2 0x16B0 JUMPI PUSH1 0x40 MLOAD PUSH4 0xEA8E4EB5 PUSH1 0xE0 SHL DUP2 MSTORE PUSH1 0x4 ADD PUSH1 0x40 MLOAD DUP1 SWAP2 SUB SWAP1 REVERT JUMPDEST PUSH1 0x3 SLOAD PUSH3 0x10000 SWAP1 DIV PUSH1 0xFF AND ISZERO PUSH2 0x16DA JUMPI PUSH1 0x40 MLOAD PUSH4 0xECEADE9 PUSH1 0xE3 SHL DUP2 MSTORE PUSH1 0x4 ADD PUSH1 0x40 MLOAD DUP1 SWAP2 SUB SWAP1 REVERT JUMPDEST PUSH0 DUP2 DUP2 MSTORE PUSH1 0x2 PUSH1 0x20 MSTORE PUSH1 0x40 DUP2 KECCAK256 PUSH1 0x1 DUP2 ADD SLOAD SWAP1 SWAP2 PUSH2 0x100 SWAP1 SWAP2 DIV PUSH5 0xFFFFFFFFFF AND SWAP1 SUB PUSH2 0x171A JUMPI PUSH1 0x40 MLOAD PUSH4 0x28A72379 PUSH1 0xE0 SHL DUP2 MSTORE PUSH1 0x4 ADD PUSH1 0x40 MLOAD DUP1 SWAP2 SUB SWAP1 REVERT JUMPDEST PUSH1 0x1 DUP2 ADD SLOAD PUSH1 0x1 PUSH1 0x30 SHL SWAP1 DIV PUSH1 0xFF AND ISZERO PUSH2 0x1747 JUMPI PUSH1 0x40 MLOAD PUSH4 0x60BF3177 PUSH1 0xE0 SHL DUP2 MSTORE PUSH1 0x4 ADD PUSH1 0x40 MLOAD DUP1 SWAP2 SUB SWAP1 REVERT JUMPDEST PUSH1 0x1 DUP2 ADD SLOAD PUSH1 0x1 PUSH1 0x38 SHL SWAP1 DIV PUSH1 0xFF AND ISZERO PUSH2 0x1774 JUMPI PUSH1 0x40 MLOAD PUSH4 0x28A72379 PUSH1 0xE0 SHL DUP2 MSTORE PUSH1 0x4 ADD PUSH1 0x40 MLOAD DUP1 SWAP2 SUB SWAP1 REVERT JUMPDEST PUSH1 0x1 DUP2 ADD SLOAD PUSH1 0x1 PUSH1 0x1 PUSH1 0xA0 SHL SUB PUSH1 0x1 PUSH1 0x40 SHL SWAP1 SWAP2 DIV AND CALLER EQ PUSH2 0x17A9 JUMPI PUSH1 0x40 MLOAD PUSH4 0x21C95721 PUSH1 0xE2 SHL DUP2 MSTORE PUSH1 0x4 ADD PUSH1 0x40 MLOAD DUP1 SWAP2 SUB SWAP1 REVERT JUMPDEST PUSH1 0x1 DUP2 ADD DUP1 SLOAD PUSH8 0xFF00000000000000 NOT AND PUSH1 0x1 PUSH1 0x38 SHL OR SWAP1 SSTORE PUSH2 0x17C9 CALLER SWAP1 JUMP JUMPDEST PUSH1 0x1 PUSH1 0x1 PUSH1 0xA0 SHL SUB AND DUP3 PUSH32 0x56A54393C88FB71D37DC109609D88E0B586637DEB2452AEF5F41D3EB32ADEDFC PUSH1 0x40 MLOAD PUSH1 0x40 MLOAD DUP1 SWAP2 SUB SWAP1 LOG3 POP POP JUMP JUMPDEST CALLER PUSH32 0x0 PUSH1 0x1 PUSH1 0x1 PUSH1 0xA0 SHL SUB AND EQ PUSH2 0x184C JUMPI PUSH1 0x40 MLOAD PUSH4 0x8B906C97 PUSH1 0xE0 SHL DUP2 MSTORE PUSH1 0x4 ADD PUSH1 0x40 MLOAD DUP1 SWAP2 SUB SWAP1 REVERT JUMPDEST PUSH1 0x3 DUP1 SLOAD PUSH3 0xFF0000 NOT AND SWAP1 SSTORE PUSH1 0x40 MLOAD CALLER SWAP1 PUSH32 0x5B65B0C1363B3003DB9BCC5E1FD8805A6D6BF5BF6DC9D3431EE4494CD7D11766 SWAP1 PUSH0 SWAP1 LOG2 JUMP JUMPDEST PUSH1 0x3 SLOAD PUSH4 0x1000000 SWAP1 DIV PUSH1 0xFF AND ISZERO PUSH2 0x18AF JUMPI PUSH1 0x40 MLOAD PUSH4 0x45F5CE8B PUSH1 0xE1 SHL DUP2 MSTORE PUSH1 0x4 ADD PUSH1 0x40 MLOAD DUP1 SWAP2 SUB SWAP1 REVERT JUMPDEST PUSH1 0x3 DUP1 SLOAD PUSH4 0xFF000000 NOT AND PUSH4 0x1000000 OR SWAP1 DUP2 SWAP1 SSTORE PUSH3 0x10000 SWAP1 DIV PUSH1 0xFF AND ISZERO PUSH2 0x18EB JUMPI PUSH1 0x40 MLOAD PUSH4 0xECEADE9 PUSH1 0xE3 SHL DUP2 MSTORE PUSH1 0x4 ADD PUSH1 0x40 MLOAD DUP1 SWAP2 SUB SWAP1 REVERT JUMPDEST PUSH1 0x40 MLOAD PUSH22 0x9892A2AA928892A8B2BEA8829C96BE9A8AA882BEA8B PUSH1 0x53 SHL PUSH1 0x20 DUP3 ADD MSTORE PUSH12 0xFFFFFFFFFFFFFFFFFFFFFFFF NOT PUSH1 0x60 DUP11 DUP2 SHL DUP3 AND PUSH1 0x36 DUP5 ADD MSTORE PUSH1 0x4A DUP4 ADD DUP9 SWAP1 MSTORE DUP7 DUP2 SHL DUP3 AND PUSH1 0x6A DUP5 ADD MSTORE DUP6 DUP2 SHL DUP3 AND PUSH1 0x7E DUP5 ADD MSTORE PUSH1 0x92 DUP4 ADD DUP6 SWAP1 MSTORE PUSH1 0xB2 DUP4 ADD DUP5 SWAP1 MSTORE CHAINID PUSH1 0xD2 DUP5 ADD MSTORE ADDRESS SWAP1 SHL AND PUSH1 0xF2 DUP3 ADD MSTORE PUSH0 SWAP1 PUSH2 0x106 ADD PUSH1 0x40 MLOAD PUSH1 0x20 DUP2 DUP4 SUB SUB DUP2 MSTORE SWAP1 PUSH1 0x40 MSTORE DUP1 MLOAD SWAP1 PUSH1 0x20 ADD KECCAK256 SWAP1 POP PUSH0 DUP2 PUSH1 0x40 MLOAD PUSH1 0x20 ADD PUSH2 0x19BB SWAP2 SWAP1 PUSH32 0x19457468657265756D205369676E6564204D6573736167653A0A333200000000 DUP2 MSTORE PUSH1 0x1C DUP2 ADD SWAP2 SWAP1 SWAP2 MSTORE PUSH1 0x3C ADD SWAP1 JUMP JUMPDEST PUSH1 0x40 MLOAD PUSH1 0x20 DUP2 DUP4 SUB SUB DUP2 MSTORE SWAP1 PUSH1 0x40 MSTORE DUP1 MLOAD SWAP1 PUSH1 0x20 ADD KECCAK256 SWAP1 POP PUSH0 PUSH2 0x19DF DUP3 DUP12 DUP12 PUSH2 0x2CDA JUMP JUMPDEST SWAP1 POP DUP11 PUSH1 0x1 PUSH1 0x1 PUSH1 0xA0 SHL SUB AND DUP2 PUSH1 0x1 PUSH1 0x1 PUSH1 0xA0 SHL SUB AND EQ PUSH2 0x1A13 JUMPI PUSH1 0x40 MLOAD PUSH4 0x8BAA579F PUSH1 0xE0 SHL DUP2 MSTORE PUSH1 0x4 ADD PUSH1 0x40 MLOAD DUP1 SWAP2 SUB SWAP1 REVERT JUMPDEST PUSH1 0x1 PUSH1 0x1 PUSH1 0xA0 SHL SUB DUP12 AND PUSH0 SWAP1 DUP2 MSTORE PUSH1 0x1 PUSH1 0x20 MSTORE PUSH1 0x40 SWAP1 KECCAK256 SLOAD PUSH1 0xFF AND PUSH2 0x1A4B JUMPI PUSH1 0x40 MLOAD PUSH4 0xEA8E4EB5 PUSH1 0xE0 SHL DUP2 MSTORE PUSH1 0x4 ADD PUSH1 0x40 MLOAD DUP1 SWAP2 SUB SWAP1 REVERT JUMPDEST PUSH2 0x1A59 DUP12 DUP10 DUP10 DUP10 DUP10 DUP10 PUSH2 0x2D5F JUMP JUMPDEST PUSH2 0x1587 ORIGIN PUSH2 0x2A53 JUMP JUMPDEST CALLER PUSH32 0x0 PUSH1 0x1 PUSH1 0x1 PUSH1 0xA0 SHL SUB AND EQ PUSH2 0x1AAB JUMPI PUSH1 0x40 MLOAD PUSH4 0x8B906C97 PUSH1 0xE0 SHL DUP2 MSTORE PUSH1 0x4 ADD PUSH1 0x40 MLOAD DUP1 SWAP2 SUB SWAP1 REVERT JUMPDEST DUP1 PUSH1 0x7 SLOAD LT ISZERO PUSH2 0x1B02 JUMPI PUSH1 0x40 MLOAD PUSH3 0x461BCD PUSH1 0xE5 SHL DUP2 MSTORE PUSH1 0x20 PUSH1 0x4 DUP3 ADD MSTORE PUSH1 0x19 PUSH1 0x24 DUP3 ADD MSTORE PUSH32 0x496E73756666696369656E74207375627369647920706F6F6C00000000000000 PUSH1 0x44 DUP3 ADD MSTORE PUSH1 0x64 ADD JUMPDEST PUSH1 0x40 MLOAD DUP1 SWAP2 SUB SWAP1 REVERT JUMPDEST DUP1 PUSH1 0x7 PUSH0 DUP3 DUP3 SLOAD PUSH2 0x1B13 SWAP2 SWAP1 PUSH2 0x3F0B JUMP JUMPDEST SWAP1 SWAP2 SSTORE POP POP PUSH1 0x40 MLOAD PUSH0 SWAP1 CALLER SWAP1 DUP4 SWAP1 DUP4 DUP2 DUP2 DUP2 DUP6 DUP8 GAS CALL SWAP3 POP POP POP RETURNDATASIZE DUP1 PUSH0 DUP2 EQ PUSH2 0x1B57 JUMPI PUSH1 0x40 MLOAD SWAP2 POP PUSH1 0x1F NOT PUSH1 0x3F RETURNDATASIZE ADD AND DUP3 ADD PUSH1 0x40 MSTORE RETURNDATASIZE DUP3 MSTORE RETURNDATASIZE PUSH0 PUSH1 0x20 DUP5 ADD RETURNDATACOPY PUSH2 0x1B5C JUMP JUMPDEST PUSH1 0x60 SWAP2 POP JUMPDEST POP POP SWAP1 POP DUP1 PUSH2 0x1BA1 JUMPI PUSH1 0x40 MLOAD PUSH3 0x461BCD PUSH1 0xE5 SHL DUP2 MSTORE PUSH1 0x20 PUSH1 0x4 DUP3 ADD MSTORE PUSH1 0x11 PUSH1 0x24 DUP3 ADD MSTORE PUSH17 0x15DA5D1A191C985DD85B0819985A5B1959 PUSH1 0x7A SHL PUSH1 0x44 DUP3 ADD MSTORE PUSH1 0x64 ADD PUSH2 0x1AF9 JUMP JUMPDEST PUSH1 0x7 SLOAD PUSH1 0x40 DUP1 MLOAD DUP5 DUP2 MSTORE PUSH1 0x20 DUP2 ADD SWAP3 SWAP1 SWAP3 MSTORE PUSH32 0xFDACDC45DB6850BEB9A5A6B43E615107B2A87AD8B9CD28217F324B65687FD310 SWAP2 ADD PUSH1 0x40 MLOAD DUP1 SWAP2 SUB SWAP1 LOG1 POP POP JUMP JUMPDEST CALLER PUSH0 SWAP1 DUP2 MSTORE PUSH1 0x1 PUSH1 0x20 MSTORE PUSH1 0x40 SWAP1 KECCAK256 SLOAD PUSH1 0xFF AND PUSH2 0x1C11 JUMPI PUSH1 0x40 MLOAD PUSH4 0xEA8E4EB5 PUSH1 0xE0 SHL DUP2 MSTORE PUSH1 0x4 ADD PUSH1 0x40 MLOAD DUP1 SWAP2 SUB SWAP1 REVERT JUMPDEST PUSH1 0x3 SLOAD PUSH3 0x10000 SWAP1 DIV PUSH1 0xFF AND ISZERO PUSH2 0x1C3B JUMPI PUSH1 0x40 MLOAD PUSH4 0xECEADE9 PUSH1 0xE3 SHL DUP2 MSTORE PUSH1 0x4 ADD PUSH1 0x40 MLOAD DUP1 SWAP2 SUB SWAP1 REVERT JUMPDEST PUSH1 0x3 SLOAD PUSH4 0x1000000 SWAP1 DIV PUSH1 0xFF AND ISZERO PUSH2 0x1C66 JUMPI PUSH1 0x40 MLOAD PUSH4 0x45F5CE8B PUSH1 0xE1 SHL DUP2 MSTORE PUSH1 0x4 ADD PUSH1 0x40 MLOAD DUP1 SWAP2 SUB SWAP1 REVERT JUMPDEST PUSH1 0x3 DUP1 SLOAD PUSH4 0xFF000000 NOT AND PUSH4 0x1000000 OR SWAP1 SSTORE PUSH1 0x1 PUSH1 0x1 PUSH1 0xA0 SHL SUB DUP3 AND PUSH2 0x1CA0 JUMPI PUSH1 0x40 MLOAD PUSH4 0xE6C4247B PUSH1 0xE0 SHL DUP2 MSTORE PUSH1 0x4 ADD PUSH1 0x40 MLOAD DUP1 SWAP2 SUB SWAP1 REVERT JUMPDEST DUP1 PUSH0 SUB PUSH2 0x1CC0 JUMPI PUSH1 0x40 MLOAD PUSH4 0x162908E3 PUSH1 0xE1 SHL DUP2 MSTORE PUSH1 0x4 ADD PUSH1 0x40 MLOAD DUP1 SWAP2 SUB SWAP1 REVERT JUMPDEST PUSH1 0x40 DUP1 MLOAD PUSH1 0x80 PUSH1 0x20 DUP1 DUP4 ADD DUP3 SWAP1 MSTORE PUSH1 0x9 PUSH1 0xA0 DUP5 ADD MSTORE PUSH9 0x454D455247454E4359 PUSH1 0xB8 SHL PUSH1 0xC0 DUP1 DUP6 ADD SWAP2 SWAP1 SWAP2 MSTORE PUSH1 0x1 PUSH1 0x1 PUSH1 0xA0 SHL SUB DUP9 DUP2 AND DUP6 DUP8 ADD MSTORE DUP8 AND PUSH1 0x60 DUP6 ADD MSTORE SWAP2 DUP4 ADD DUP6 SWAP1 MSTORE DUP4 MLOAD DUP1 DUP5 SUB SWAP1 SWAP3 ADD DUP3 MSTORE PUSH1 0xE0 SWAP1 SWAP3 ADD DUP4 MSTORE PUSH0 DUP8 DUP2 MSTORE PUSH1 0x2 SWAP1 SWAP3 MSTORE SWAP2 DUP2 KECCAK256 PUSH1 0x1 DUP2 ADD SLOAD SWAP1 SWAP2 CALLER SWAP2 PUSH2 0x100 SWAP1 DIV PUSH5 0xFFFFFFFFFF AND SWAP1 SUB PUSH2 0x1DE9 JUMPI PUSH2 0x1D4B PUSH2 0xE10 TIMESTAMP PUSH2 0x3C73 JUMP JUMPDEST PUSH1 0x1 DUP4 ADD DUP1 SLOAD PUSH8 0xFFFF000000000100 PUSH1 0x1 PUSH1 0xE0 SHL SUB NOT AND PUSH2 0x100 PUSH5 0xFFFFFFFFFF SWAP4 SWAP1 SWAP4 AND SWAP3 SWAP1 SWAP3 MUL PUSH1 0x1 PUSH1 0x40 SHL PUSH1 0x1 PUSH1 0xE0 SHL SUB NOT AND SWAP2 SWAP1 SWAP2 OR PUSH1 0x1 PUSH1 0x40 SHL PUSH1 0x1 PUSH1 0x1 PUSH1 0xA0 SHL SUB DUP5 AND MUL OR SWAP1 SSTORE PUSH1 0x2 DUP3 ADD PUSH2 0x1DA5 DUP5 DUP3 PUSH2 0x3D7A JUMP JUMPDEST POP PUSH1 0x1 DUP3 ADD SLOAD PUSH1 0x40 MLOAD PUSH2 0x100 SWAP1 SWAP2 DIV PUSH5 0xFFFFFFFFFF AND DUP2 MSTORE PUSH1 0x1 PUSH1 0x1 PUSH1 0xA0 SHL SUB DUP3 AND SWAP1 DUP9 SWAP1 PUSH0 MLOAD PUSH1 0x20 PUSH2 0x427D PUSH0 CODECOPY PUSH0 MLOAD SWAP1 PUSH0 MSTORE SWAP1 PUSH1 0x20 ADD PUSH1 0x40 MLOAD DUP1 SWAP2 SUB SWAP1 LOG3 PUSH2 0x1E27 JUMP JUMPDEST DUP3 MLOAD PUSH1 0x20 DUP5 ADD KECCAK256 PUSH1 0x40 MLOAD PUSH2 0x1E01 SWAP1 PUSH1 0x2 DUP6 ADD SWAP1 PUSH2 0x3E34 JUMP JUMPDEST PUSH1 0x40 MLOAD DUP1 SWAP2 SUB SWAP1 KECCAK256 EQ PUSH2 0x1E27 JUMPI PUSH1 0x40 MLOAD PUSH4 0x4CD6F7C3 PUSH1 0xE0 SHL DUP2 MSTORE PUSH1 0x4 ADD PUSH1 0x40 MLOAD DUP1 SWAP2 SUB SWAP1 REVERT JUMPDEST PUSH1 0x1 DUP3 ADD SLOAD PUSH2 0x100 SWAP1 DIV PUSH5 0xFFFFFFFFFF AND TIMESTAMP GT ISZERO PUSH2 0x1E58 JUMPI PUSH1 0x40 MLOAD PUSH4 0x28A72379 PUSH1 0xE0 SHL DUP2 MSTORE PUSH1 0x4 ADD PUSH1 0x40 MLOAD DUP1 SWAP2 SUB SWAP1 REVERT JUMPDEST PUSH1 0x1 DUP3 ADD SLOAD PUSH1 0x1 PUSH1 0x30 SHL SWAP1 DIV PUSH1 0xFF AND ISZERO PUSH2 0x1E85 JUMPI PUSH1 0x40 MLOAD PUSH4 0xDC10197 PUSH1 0xE0 SHL DUP2 MSTORE PUSH1 0x4 ADD PUSH1 0x40 MLOAD DUP1 SWAP2 SUB SWAP1 REVERT JUMPDEST PUSH1 0x1 DUP3 ADD SLOAD PUSH1 0x1 PUSH1 0x38 SHL SWAP1 DIV PUSH1 0xFF AND ISZERO PUSH2 0x1EB2 JUMPI PUSH1 0x40 MLOAD PUSH4 0x28A72379 PUSH1 0xE0 SHL DUP2 MSTORE PUSH1 0x4 ADD PUSH1 0x40 MLOAD DUP1 SWAP2 SUB SWAP1 REVERT JUMPDEST PUSH1 0x1 PUSH1 0x1 PUSH1 0xA0 SHL SUB DUP2 AND PUSH0 SWAP1 DUP2 MSTORE PUSH1 0x20 DUP4 SWAP1 MSTORE PUSH1 0x40 SWAP1 KECCAK256 SLOAD PUSH1 0xFF AND ISZERO PUSH2 0x1EEB JUMPI PUSH1 0x40 MLOAD PUSH4 0x80FC0BD PUSH1 0xE1 SHL DUP2 MSTORE PUSH1 0x4 ADD PUSH1 0x40 MLOAD DUP1 SWAP2 SUB SWAP1 REVERT JUMPDEST PUSH1 0x1 PUSH1 0x1 PUSH1 0xA0 SHL SUB DUP2 AND PUSH0 SWAP1 DUP2 MSTORE PUSH1 0x20 DUP4 SWAP1 MSTORE PUSH1 0x40 DUP2 KECCAK256 DUP1 SLOAD PUSH1 0xFF NOT AND PUSH1 0x1 SWAP1 DUP2 OR SWAP1 SWAP2 SSTORE DUP4 ADD DUP1 SLOAD DUP3 SWAP1 PUSH2 0x1F22 SWAP1 PUSH1 0xFF AND PUSH2 0x3EA5 JUMP JUMPDEST SWAP2 SWAP1 PUSH2 0x100 EXP DUP2 SLOAD DUP2 PUSH1 0xFF MUL NOT AND SWAP1 DUP4 PUSH1 0xFF AND MUL OR SWAP1 SSTORE SWAP1 POP DUP2 PUSH1 0x1 PUSH1 0x1 PUSH1 0xA0 SHL SUB AND DUP9 PUSH0 MLOAD PUSH1 0x20 PUSH2 0x425D PUSH0 CODECOPY PUSH0 MLOAD SWAP1 PUSH0 MSTORE DUP4 PUSH1 0x40 MLOAD PUSH2 0x1F6B SWAP2 SWAP1 PUSH1 0xFF SWAP2 SWAP1 SWAP2 AND DUP2 MSTORE PUSH1 0x20 ADD SWAP1 JUMP JUMPDEST PUSH1 0x40 MLOAD DUP1 SWAP2 SUB SWAP1 LOG3 PUSH0 PUSH2 0x1F7C PUSH2 0x27C7 JUMP JUMPDEST SWAP1 POP DUP1 PUSH1 0xFF AND DUP3 PUSH1 0xFF AND LT PUSH2 0x204E JUMPI PUSH1 0x1 DUP5 ADD DUP1 SLOAD PUSH1 0xFF PUSH1 0x30 SHL NOT AND PUSH1 0x1 PUSH1 0x30 SHL OR SWAP1 SSTORE PUSH1 0x2 DUP5 ADD DUP1 SLOAD PUSH2 0x2036 SWAP2 DUP12 SWAP2 PUSH2 0x1FB5 SWAP1 PUSH2 0x3CF7 JUMP JUMPDEST DUP1 PUSH1 0x1F ADD PUSH1 0x20 DUP1 SWAP2 DIV MUL PUSH1 0x20 ADD PUSH1 0x40 MLOAD SWAP1 DUP2 ADD PUSH1 0x40 MSTORE DUP1 SWAP3 SWAP2 SWAP1 DUP2 DUP2 MSTORE PUSH1 0x20 ADD DUP3 DUP1 SLOAD PUSH2 0x1FE1 SWAP1 PUSH2 0x3CF7 JUMP JUMPDEST DUP1 ISZERO PUSH2 0x202C JUMPI DUP1 PUSH1 0x1F LT PUSH2 0x2003 JUMPI PUSH2 0x100 DUP1 DUP4 SLOAD DIV MUL DUP4 MSTORE SWAP2 PUSH1 0x20 ADD SWAP2 PUSH2 0x202C JUMP JUMPDEST DUP3 ADD SWAP2 SWAP1 PUSH0 MSTORE PUSH1 0x20 PUSH0 KECCAK256 SWAP1 JUMPDEST DUP2 SLOAD DUP2 MSTORE SWAP1 PUSH1 0x1 ADD SWAP1 PUSH1 0x20 ADD DUP1 DUP4 GT PUSH2 0x200F JUMPI DUP3 SWAP1 SUB PUSH1 0x1F AND DUP3 ADD SWAP2 JUMPDEST POP POP POP POP POP PUSH2 0x30BF JUMP JUMPDEST PUSH1 0x40 MLOAD DUP10 SWAP1 PUSH0 MLOAD PUSH1 0x20 PUSH2 0x423D PUSH0 CODECOPY PUSH0 MLOAD SWAP1 PUSH0 MSTORE SWAP1 PUSH0 SWAP1 LOG2 JUMPDEST POP POP PUSH1 0x3 DUP1 SLOAD PUSH4 0xFF000000 NOT AND SWAP1 SSTORE POP POP POP POP POP POP POP JUMP JUMPDEST CALLER PUSH32 0x0 PUSH1 0x1 PUSH1 0x1 PUSH1 0xA0 SHL SUB AND EQ PUSH2 0x20AF JUMPI PUSH1 0x40 MLOAD PUSH4 0x8B906C97 PUSH1 0xE0 SHL DUP2 MSTORE PUSH1 0x4 ADD PUSH1 0x40 MLOAD DUP1 SWAP2 SUB SWAP1 REVERT JUMPDEST PUSH1 0x3 DUP1 SLOAD PUSH3 0xFF0000 NOT AND PUSH3 0x10000 OR SWAP1 SSTORE PUSH2 0x20C7 CALLER SWAP1 JUMP JUMPDEST PUSH1 0x1 PUSH1 0x1 PUSH1 0xA0 SHL SUB AND PUSH32 0x81990FD9A5C552B8E3677917D8A03C07678F0D2CB68F88B634ACA2022E9BD19F PUSH1 0x40 MLOAD PUSH1 0x40 MLOAD DUP1 SWAP2 SUB SWAP1 LOG2 JUMP JUMPDEST PUSH0 PUSH2 0x2107 PUSH2 0x27C7 JUMP JUMPDEST SWAP1 POP SWAP1 JUMP JUMPDEST CALLER PUSH32 0x0 PUSH1 0x1 PUSH1 0x1 PUSH1 0xA0 SHL SUB AND EQ PUSH2 0x2155 JUMPI PUSH1 0x40 MLOAD PUSH4 0x8B906C97 PUSH1 0xE0 SHL DUP2 MSTORE PUSH1 0x4 ADD PUSH1 0x40 MLOAD DUP1 SWAP2 SUB SWAP1 REVERT JUMPDEST PUSH1 0x3 SLOAD PUSH2 0x100 SWAP1 DIV PUSH1 0xFF AND PUSH2 0x217D JUMPI PUSH1 0x40 MLOAD PUSH4 0x21C4E357 PUSH1 0xE2 SHL DUP2 MSTORE PUSH1 0x4 ADD PUSH1 0x40 MLOAD DUP1 SWAP2 SUB SWAP1 REVERT JUMPDEST PUSH3 0x13C680 PUSH1 0x4 SLOAD PUSH2 0x218E SWAP2 SWAP1 PUSH2 0x3C73 JUMP JUMPDEST TIMESTAMP LT ISZERO PUSH2 0x21AE JUMPI PUSH1 0x40 MLOAD PUSH4 0x7EEF315 PUSH1 0xE0 SHL DUP2 MSTORE PUSH1 0x4 ADD PUSH1 0x40 MLOAD DUP1 SWAP2 SUB SWAP1 REVERT JUMPDEST PUSH1 0x3 DUP2 MLOAD LT ISZERO PUSH2 0x21D1 JUMPI PUSH1 0x40 MLOAD PUSH4 0xABC0965 PUSH1 0xE0 SHL DUP2 MSTORE PUSH1 0x4 ADD PUSH1 0x40 MLOAD DUP1 SWAP2 SUB SWAP1 REVERT JUMPDEST PUSH1 0x32 DUP2 MLOAD GT ISZERO PUSH2 0x21F4 JUMPI PUSH1 0x40 MLOAD PUSH4 0x7E1D76FB PUSH1 0xE0 SHL DUP2 MSTORE PUSH1 0x4 ADD PUSH1 0x40 MLOAD DUP1 SWAP2 SUB SWAP1 REVERT JUMPDEST PUSH0 JUMPDEST DUP2 MLOAD DUP2 LT ISZERO PUSH2 0x2315 JUMPI PUSH0 DUP3 DUP3 DUP2 MLOAD DUP2 LT PUSH2 0x2212 JUMPI PUSH2 0x2212 PUSH2 0x3C4B JUMP JUMPDEST PUSH1 0x20 MUL PUSH1 0x20 ADD ADD MLOAD SWAP1 POP PUSH0 PUSH1 0x1 PUSH1 0x1 PUSH1 0xA0 SHL SUB AND DUP2 PUSH1 0x1 PUSH1 0x1 PUSH1 0xA0 SHL SUB AND SUB PUSH2 0x224E JUMPI PUSH1 0x40 MLOAD PUSH4 0xE6C4247B PUSH1 0xE0 SHL DUP2 MSTORE PUSH1 0x4 ADD PUSH1 0x40 MLOAD DUP1 SWAP2 SUB SWAP1 REVERT JUMPDEST PUSH32 0x0 PUSH1 0x1 PUSH1 0x1 PUSH1 0xA0 SHL SUB AND DUP2 PUSH1 0x1 PUSH1 0x1 PUSH1 0xA0 SHL SUB AND SUB PUSH2 0x22A0 JUMPI PUSH1 0x40 MLOAD PUSH4 0x261E30E9 PUSH1 0xE0 SHL DUP2 MSTORE PUSH1 0x4 ADD PUSH1 0x40 MLOAD DUP1 SWAP2 SUB SWAP1 REVERT JUMPDEST PUSH0 PUSH2 0x22AC DUP4 PUSH1 0x1 PUSH2 0x3C73 JUMP JUMPDEST SWAP1 POP JUMPDEST DUP4 MLOAD DUP2 LT ISZERO PUSH2 0x230B JUMPI DUP4 DUP2 DUP2 MLOAD DUP2 LT PUSH2 0x22CA JUMPI PUSH2 0x22CA PUSH2 0x3C4B JUMP JUMPDEST PUSH1 0x20 MUL PUSH1 0x20 ADD ADD MLOAD PUSH1 0x1 PUSH1 0x1 PUSH1 0xA0 SHL SUB AND DUP3 PUSH1 0x1 PUSH1 0x1 PUSH1 0xA0 SHL SUB AND SUB PUSH2 0x2303 JUMPI PUSH1 0x40 MLOAD PUSH4 0x148F8AB PUSH1 0xE3 SHL DUP2 MSTORE PUSH1 0x4 ADD PUSH1 0x40 MLOAD DUP1 SWAP2 SUB SWAP1 REVERT JUMPDEST PUSH1 0x1 ADD PUSH2 0x22AF JUMP JUMPDEST POP POP PUSH1 0x1 ADD PUSH2 0x21F6 JUMP JUMPDEST POP PUSH0 DUP1 SLOAD PUSH1 0x40 DUP1 MLOAD PUSH1 0x20 DUP1 DUP5 MUL DUP3 ADD DUP2 ADD SWAP1 SWAP3 MSTORE DUP3 DUP2 MSTORE SWAP2 DUP4 SWAP2 DUP4 ADD DUP3 DUP3 DUP1 ISZERO PUSH2 0x2366 JUMPI PUSH1 0x20 MUL DUP3 ADD SWAP2 SWAP1 PUSH0 MSTORE PUSH1 0x20 PUSH0 KECCAK256 SWAP1 JUMPDEST DUP2 SLOAD PUSH1 0x1 PUSH1 0x1 PUSH1 0xA0 SHL SUB AND DUP2 MSTORE PUSH1 0x1 SWAP1 SWAP2 ADD SWAP1 PUSH1 0x20 ADD DUP1 DUP4 GT PUSH2 0x2348 JUMPI JUMPDEST POP POP PUSH0 DUP1 SLOAD SWAP5 SWAP6 POP SWAP3 POP POP POP JUMPDEST DUP2 DUP2 LT ISZERO PUSH2 0x240A JUMPI PUSH0 PUSH0 DUP3 DUP2 SLOAD DUP2 LT PUSH2 0x238E JUMPI PUSH2 0x238E PUSH2 0x3C4B JUMP JUMPDEST PUSH0 SWAP2 DUP3 MSTORE PUSH1 0x20 DUP1 DUP4 KECCAK256 SWAP1 SWAP2 ADD SLOAD PUSH1 0x1 PUSH1 0x1 PUSH1 0xA0 SHL SUB AND DUP1 DUP4 MSTORE PUSH1 0x1 SWAP1 SWAP2 MSTORE PUSH1 0x40 SWAP1 SWAP2 KECCAK256 DUP1 SLOAD PUSH1 0xFF NOT AND SWAP1 SSTORE SWAP1 POP PUSH2 0x23C2 CALLER SWAP1 JUMP JUMPDEST PUSH1 0x1 PUSH1 0x1 PUSH1 0xA0 SHL SUB AND DUP2 PUSH1 0x1 PUSH1 0x1 PUSH1 0xA0 SHL SUB AND PUSH32 0x203A04209F1AE06508132AC82E6AD3B28D9E9BA11F97CC9934B4D9E6A83DD24E PUSH1 0x40 MLOAD PUSH1 0x40 MLOAD DUP1 SWAP2 SUB SWAP1 LOG3 POP PUSH1 0x1 ADD PUSH2 0x2373 JUMP JUMPDEST POP DUP3 MLOAD PUSH2 0x241D SWAP1 PUSH0 SWAP1 PUSH1 0x20 DUP7 ADD SWAP1 PUSH2 0x37B2 JUMP JUMPDEST POP DUP3 MLOAD PUSH1 0x3 DUP1 SLOAD PUSH1 0xFF NOT AND PUSH1 0xFF DUP4 AND OR SWAP1 SSTORE PUSH0 JUMPDEST DUP2 DUP2 LT ISZERO PUSH2 0x24E1 JUMPI PUSH1 0x1 DUP1 PUSH0 DUP8 DUP5 DUP2 MLOAD DUP2 LT PUSH2 0x244F JUMPI PUSH2 0x244F PUSH2 0x3C4B JUMP JUMPDEST PUSH1 0x20 SWAP1 DUP2 MUL SWAP2 SWAP1 SWAP2 ADD DUP2 ADD MLOAD PUSH1 0x1 PUSH1 0x1 PUSH1 0xA0 SHL SUB AND DUP3 MSTORE DUP2 ADD SWAP2 SWAP1 SWAP2 MSTORE PUSH1 0x40 ADD PUSH0 KECCAK256 DUP1 SLOAD PUSH1 0xFF NOT AND SWAP2 ISZERO ISZERO SWAP2 SWAP1 SWAP2 OR SWAP1 SSTORE CALLER PUSH1 0x1 PUSH1 0x1 PUSH1 0xA0 SHL SUB AND DUP6 DUP3 DUP2 MLOAD DUP2 LT PUSH2 0x249C JUMPI PUSH2 0x249C PUSH2 0x3C4B JUMP JUMPDEST PUSH1 0x20 MUL PUSH1 0x20 ADD ADD MLOAD PUSH1 0x1 PUSH1 0x1 PUSH1 0xA0 SHL SUB AND PUSH32 0x7221372411F0405C58B7B48E3951C448BB594DAD75F79BF6AEFA69AF430D6062 PUSH1 0x40 MLOAD PUSH1 0x40 MLOAD DUP1 SWAP2 SUB SWAP1 LOG3 PUSH1 0x1 ADD PUSH2 0x2431 JUMP JUMPDEST POP TIMESTAMP PUSH1 0x4 SSTORE PUSH1 0x40 MLOAD PUSH1 0x1 PUSH1 0x1 PUSH1 0xA0 SHL SUB PUSH32 0x0 AND SWAP1 PUSH32 0xA1CAAE6F900F4FA4EB75DEC03DA51798C26797D3C0DAD1FC4F8A2781E8F709A1 SWAP1 PUSH2 0x2541 SWAP1 DUP8 SWAP1 PUSH2 0x3F61 JUMP JUMPDEST PUSH1 0x40 MLOAD DUP1 SWAP2 SUB SWAP1 LOG2 PUSH32 0xCE17463359238459F0EF8F3FEAF8E16899556077FEE8F2CD9923322A17FDD600 DUP4 DUP6 PUSH1 0x40 MLOAD PUSH2 0x257A SWAP3 SWAP2 SWAP1 PUSH2 0x3F73 JUMP JUMPDEST PUSH1 0x40 MLOAD DUP1 SWAP2 SUB SWAP1 LOG1 POP POP POP POP JUMP JUMPDEST PUSH0 DUP2 DUP2 SLOAD DUP2 LT PUSH2 0x2596 JUMPI PUSH0 DUP1 REVERT JUMPDEST PUSH0 SWAP2 DUP3 MSTORE PUSH1 0x20 SWAP1 SWAP2 KECCAK256 ADD SLOAD PUSH1 0x1 PUSH1 0x1 PUSH1 0xA0 SHL SUB AND SWAP1 POP DUP2 JUMP JUMPDEST CALLER PUSH32 0x0 PUSH1 0x1 PUSH1 0x1 PUSH1 0xA0 SHL SUB AND EQ PUSH2 0x25F8 JUMPI PUSH1 0x40 MLOAD PUSH4 0x8B906C97 PUSH1 0xE0 SHL DUP2 MSTORE PUSH1 0x4 ADD PUSH1 0x40 MLOAD DUP1 SWAP2 SUB SWAP1 REVERT JUMPDEST PUSH1 0x1 PUSH1 0x1 PUSH1 0xA0 SHL SUB DUP2 AND PUSH2 0x261F JUMPI PUSH1 0x40 MLOAD PUSH4 0x698AC923 PUSH1 0xE0 SHL DUP2 MSTORE PUSH1 0x4 ADD PUSH1 0x40 MLOAD DUP1 SWAP2 SUB SWAP1 REVERT JUMPDEST PUSH1 0x6 DUP1 SLOAD PUSH1 0x1 PUSH1 0x1 PUSH1 0xA0 SHL SUB DUP4 DUP2 AND PUSH1 0x1 PUSH1 0x1 PUSH1 0xA0 SHL SUB NOT DUP4 AND DUP2 OR SWAP1 SWAP4 SSTORE PUSH1 0x40 MLOAD SWAP2 AND SWAP2 SWAP1 DUP3 SWAP1 PUSH32 0x6710129FBC2650F48C82631EDCEA255E102CD5E17C444DEB7273855CFB5E77D SWAP1 PUSH0 SWAP1 LOG3 POP POP JUMP JUMPDEST PUSH0 PUSH1 0x1 PUSH1 0x1 PUSH1 0xA0 SHL SUB DUP3 AND PUSH2 0x2686 JUMPI POP SELFBALANCE SWAP2 SWAP1 POP JUMP JUMPDEST PUSH2 0xAEC DUP3 ADDRESS PUSH2 0x3213 JUMP JUMPDEST SWAP2 SWAP1 POP JUMP JUMPDEST PUSH1 0x5 DUP1 SLOAD PUSH0 SWAP2 DUP3 SWAP2 SWAP1 DUP3 PUSH2 0x26A8 DUP4 PUSH2 0x3FA0 JUMP JUMPDEST SWAP1 SWAP2 SSTORE POP SWAP1 POP PUSH0 PUSH2 0x26BA PUSH1 0x1 NUMBER PUSH2 0x3F0B JUMP JUMPDEST BLOCKHASH TIMESTAMP PREVRANDAO DUP7 DUP9 DUP7 ADDRESS GAS PUSH1 0x40 DUP1 MLOAD PUSH1 0x20 DUP2 ADD SWAP10 SWAP1 SWAP10 MSTORE DUP9 ADD SWAP7 SWAP1 SWAP7 MSTORE PUSH1 0x60 DUP1 DUP9 ADD SWAP6 SWAP1 SWAP6 MSTORE PUSH12 0xFFFFFFFFFFFFFFFFFFFFFFFF NOT SWAP4 DUP6 SHL DUP5 AND PUSH1 0x80 DUP9 ADD MSTORE PUSH1 0x94 DUP8 ADD SWAP3 SWAP1 SWAP3 MSTORE PUSH1 0xB4 DUP7 ADD MSTORE SWAP1 SWAP2 SHL AND PUSH1 0xD4 DUP4 ADD MSTORE PUSH1 0xE8 DUP3 ADD MSTORE PUSH2 0x108 ADD PUSH1 0x40 DUP1 MLOAD PUSH1 0x1F NOT DUP2 DUP5 SUB ADD DUP2 MSTORE DUP3 DUP3 MSTORE DUP1 MLOAD PUSH1 0x20 SWAP2 DUP3 ADD KECCAK256 SWAP1 DUP4 ADD DUP2 SWAP1 MSTORE SWAP1 DUP3 ADD DUP5 SWAP1 MSTORE PUSH32 0x4C49515549444954595F54414E4B5F50524F504F53414C000000000000000000 PUSH1 0x60 DUP4 ADD MSTORE SWAP2 POP PUSH1 0x77 ADD PUSH1 0x40 MLOAD PUSH1 0x20 DUP2 DUP4 SUB SUB DUP2 MSTORE SWAP1 PUSH1 0x40 MSTORE DUP1 MLOAD SWAP1 PUSH1 0x20 ADD KECCAK256 SWAP3 POP DUP4 PUSH1 0x1 PUSH1 0x1 PUSH1 0xA0 SHL SUB AND DUP4 PUSH32 0x1266E7D4A6CAA526436AFCFF045381A45C3E4C9EEB7711606479CB9E6DE38383 DUP8 PUSH1 0x40 MLOAD PUSH2 0x27B7 SWAP2 DUP2 MSTORE PUSH1 0x20 ADD SWAP1 JUMP JUMPDEST PUSH1 0x40 MLOAD DUP1 SWAP2 SUB SWAP1 LOG3 POP POP SWAP3 SWAP2 POP POP JUMP JUMPDEST PUSH1 0x3 DUP1 SLOAD PUSH0 SWAP2 SWAP1 PUSH2 0x27DC SWAP1 PUSH1 0xFF AND PUSH1 0x2 PUSH2 0x3FB8 JUMP JUMPDEST PUSH2 0x27E7 SWAP1 PUSH1 0x2 PUSH2 0x3C73 JUMP JUMPDEST PUSH2 0x2107 SWAP2 SWAP1 PUSH2 0x3FCF JUMP JUMPDEST PUSH0 PUSH0 DUP3 DUP1 PUSH1 0x20 ADD SWAP1 MLOAD DUP2 ADD SWAP1 PUSH2 0x2807 SWAP2 SWAP1 PUSH2 0x4059 JUMP JUMPDEST SWAP2 POP SWAP2 POP PUSH32 0xAF17183F3FFA290329C64B18A81E23BDA5E429587FC385A8E5BFD1A64522BFA0 DUP3 DUP1 MLOAD SWAP1 PUSH1 0x20 ADD KECCAK256 EQ PUSH2 0x2852 JUMPI PUSH1 0x40 MLOAD PUSH4 0x4A7F394F PUSH1 0xE0 SHL DUP2 MSTORE PUSH1 0x4 ADD PUSH1 0x40 MLOAD DUP1 SWAP2 SUB SWAP1 REVERT JUMPDEST PUSH0 DUP1 SLOAD PUSH1 0x40 DUP1 MLOAD PUSH1 0x20 DUP1 DUP5 MUL DUP3 ADD DUP2 ADD SWAP1 SWAP3 MSTORE DUP3 DUP2 MSTORE SWAP2 DUP4 SWAP2 DUP4 ADD DUP3 DUP3 DUP1 ISZERO PUSH2 0x28A2 JUMPI PUSH1 0x20 MUL DUP3 ADD SWAP2 SWAP1 PUSH0 MSTORE PUSH1 0x20 PUSH0 KECCAK256 SWAP1 JUMPDEST DUP2 SLOAD PUSH1 0x1 PUSH1 0x1 PUSH1 0xA0 SHL SUB AND DUP2 MSTORE PUSH1 0x1 SWAP1 SWAP2 ADD SWAP1 PUSH1 0x20 ADD DUP1 DUP4 GT PUSH2 0x2884 JUMPI JUMPDEST POP POP PUSH0 DUP1 SLOAD SWAP5 SWAP6 POP SWAP3 POP POP POP JUMPDEST DUP2 DUP2 LT ISZERO PUSH2 0x292A JUMPI PUSH0 PUSH0 DUP3 DUP2 SLOAD DUP2 LT PUSH2 0x28CA JUMPI PUSH2 0x28CA PUSH2 0x3C4B JUMP JUMPDEST PUSH0 SWAP2 DUP3 MSTORE PUSH1 0x20 DUP1 DUP4 KECCAK256 SWAP1 SWAP2 ADD SLOAD PUSH1 0x1 PUSH1 0x1 PUSH1 0xA0 SHL SUB AND DUP1 DUP4 MSTORE PUSH1 0x1 SWAP1 SWAP2 MSTORE PUSH1 0x40 DUP1 DUP4 KECCAK256 DUP1 SLOAD PUSH1 0xFF NOT AND SWAP1 SSTORE MLOAD SWAP1 SWAP3 POP ADDRESS SWAP2 DUP4 SWAP2 PUSH32 0x203A04209F1AE06508132AC82E6AD3B28D9E9BA11F97CC9934B4D9E6A83DD24E SWAP2 SWAP1 LOG3 POP PUSH1 0x1 ADD PUSH2 0x28AF JUMP JUMPDEST POP DUP3 MLOAD PUSH2 0x293D SWAP1 PUSH0 SWAP1 PUSH1 0x20 DUP7 ADD SWAP1 PUSH2 0x37B2 JUMP JUMPDEST POP DUP3 MLOAD PUSH1 0x3 DUP1 SLOAD PUSH1 0xFF NOT AND PUSH1 0xFF DUP4 AND OR SWAP1 SSTORE PUSH0 JUMPDEST DUP2 DUP2 LT ISZERO PUSH2 0x2A0D JUMPI PUSH1 0x1 DUP1 PUSH0 DUP8 DUP5 DUP2 MLOAD DUP2 LT PUSH2 0x296F JUMPI PUSH2 0x296F PUSH2 0x3C4B JUMP JUMPDEST PUSH1 0x20 MUL PUSH1 0x20 ADD ADD MLOAD PUSH1 0x1 PUSH1 0x1 PUSH1 0xA0 SHL SUB AND PUSH1 0x1 PUSH1 0x1 PUSH1 0xA0 SHL SUB AND DUP2 MSTORE PUSH1 0x20 ADD SWAP1 DUP2 MSTORE PUSH1 0x20 ADD PUSH0 KECCAK256 PUSH0 PUSH2 0x100 EXP DUP2 SLOAD DUP2 PUSH1 0xFF MUL NOT AND SWAP1 DUP4 ISZERO ISZERO MUL OR SWAP1 SSTORE POP ADDRESS PUSH1 0x1 PUSH1 0x1 PUSH1 0xA0 SHL SUB AND DUP6 DUP3 DUP2 MLOAD DUP2 LT PUSH2 0x29C8 JUMPI PUSH2 0x29C8 PUSH2 0x3C4B JUMP JUMPDEST PUSH1 0x20 MUL PUSH1 0x20 ADD ADD MLOAD PUSH1 0x1 PUSH1 0x1 PUSH1 0xA0 SHL SUB AND PUSH32 0x7221372411F0405C58B7B48E3951C448BB594DAD75F79BF6AEFA69AF430D6062 PUSH1 0x40 MLOAD PUSH1 0x40 MLOAD DUP1 SWAP2 SUB SWAP1 LOG3 PUSH1 0x1 ADD PUSH2 0x2951 JUMP JUMPDEST POP PUSH32 0xCE17463359238459F0EF8F3FEAF8E16899556077FEE8F2CD9923322A17FDD600 DUP4 DUP6 PUSH1 0x40 MLOAD PUSH2 0x2A3F SWAP3 SWAP2 SWAP1 PUSH2 0x3F73 JUMP JUMPDEST PUSH1 0x40 MLOAD DUP1 SWAP2 SUB SWAP1 LOG1 POP POP TIMESTAMP PUSH1 0x4 SSTORE POP POP POP POP JUMP JUMPDEST PUSH1 0x9 SLOAD PUSH1 0xFF AND PUSH2 0x2A60 JUMPI POP JUMP JUMPDEST PUSH0 GASPRICE PUSH2 0x8FC GAS PUSH2 0x2A70 SWAP2 SWAP1 PUSH2 0x3F0B JUMP JUMPDEST PUSH2 0x2A7A SWAP2 SWAP1 PUSH2 0x3FB8 JUMP JUMPDEST SWAP1 POP PUSH1 0x8 SLOAD DUP2 GT ISZERO PUSH2 0x2A8B JUMPI POP PUSH1 0x8 SLOAD JUMPDEST DUP1 PUSH1 0x7 SLOAD LT ISZERO PUSH2 0x2A99 JUMPI POP POP JUMP JUMPDEST DUP1 PUSH1 0x7 PUSH0 DUP3 DUP3 SLOAD PUSH2 0x2AAA SWAP2 SWAP1 PUSH2 0x3F0B JUMP JUMPDEST SWAP1 SWAP2 SSTORE POP POP PUSH1 0x40 MLOAD PUSH0 SWAP1 PUSH1 0x1 PUSH1 0x1 PUSH1 0xA0 SHL SUB DUP5 AND SWAP1 DUP4 SWAP1 DUP4 DUP2 DUP2 DUP2 DUP6 DUP8 GAS CALL SWAP3 POP POP POP RETURNDATASIZE DUP1 PUSH0 DUP2 EQ PUSH2 0x2AF7 JUMPI PUSH1 0x40 MLOAD SWAP2 POP PUSH1 0x1F NOT PUSH1 0x3F RETURNDATASIZE ADD AND DUP3 ADD PUSH1 0x40 MSTORE RETURNDATASIZE DUP3 MSTORE RETURNDATASIZE PUSH0 PUSH1 0x20 DUP5 ADD RETURNDATACOPY PUSH2 0x2AFC JUMP JUMPDEST PUSH1 0x60 SWAP2 POP JUMPDEST POP POP SWAP1 POP DUP1 ISZERO PUSH2 0x2B4B JUMPI PUSH1 0x40 DUP1 MLOAD DUP4 DUP2 MSTORE PUSH1 0x20 DUP2 ADD DUP5 SWAP1 MSTORE PUSH1 0x1 PUSH1 0x1 PUSH1 0xA0 SHL SUB DUP6 AND SWAP2 PUSH32 0x114D6A915F75B8E760A79A80329A967B0809F710FD290A4FB55D085965A4A225 SWAP2 ADD PUSH1 0x40 MLOAD DUP1 SWAP2 SUB SWAP1 LOG2 JUMPDEST POP POP POP JUMP JUMPDEST PUSH0 PUSH0 PUSH0 PUSH0 PUSH0 DUP6 DUP1 PUSH1 0x20 ADD SWAP1 MLOAD DUP2 ADD SWAP1 PUSH2 0x2B69 SWAP2 SWAP1 PUSH2 0x411E JUMP JUMPDEST SWAP5 POP SWAP5 POP SWAP5 POP SWAP5 POP SWAP5 POP PUSH32 0x9143236D81225394F3BD65B44E6E29FDF4D7BA0773D9BB3F5CC15EB80BA37777 DUP6 DUP1 MLOAD SWAP1 PUSH1 0x20 ADD KECCAK256 EQ PUSH2 0x2BBA JUMPI PUSH1 0x40 MLOAD PUSH4 0x4A7F394F PUSH1 0xE0 SHL DUP2 MSTORE PUSH1 0x4 ADD PUSH1 0x40 MLOAD DUP1 SWAP2 SUB SWAP1 REVERT JUMPDEST PUSH0 PUSH1 0x1 PUSH1 0x1 PUSH1 0xA0 SHL SUB DUP6 AND PUSH2 0x2C63 JUMPI DUP3 SELFBALANCE LT ISZERO PUSH2 0x2BEA JUMPI PUSH1 0x40 MLOAD PUSH4 0x1E9ACF17 PUSH1 0xE3 SHL DUP2 MSTORE PUSH1 0x4 ADD PUSH1 0x40 MLOAD DUP1 SWAP2 SUB SWAP1 REVERT JUMPDEST PUSH0 DUP5 PUSH1 0x1 PUSH1 0x1 PUSH1 0xA0 SHL SUB AND DUP5 PUSH1 0x40 MLOAD PUSH0 PUSH1 0x40 MLOAD DUP1 DUP4 SUB DUP2 DUP6 DUP8 GAS CALL SWAP3 POP POP POP RETURNDATASIZE DUP1 PUSH0 DUP2 EQ PUSH2 0x2C33 JUMPI PUSH1 0x40 MLOAD SWAP2 POP PUSH1 0x1F NOT PUSH1 0x3F RETURNDATASIZE ADD AND DUP3 ADD PUSH1 0x40 MSTORE RETURNDATASIZE DUP3 MSTORE RETURNDATASIZE PUSH0 PUSH1 0x20 DUP5 ADD RETURNDATACOPY PUSH2 0x2C38 JUMP JUMPDEST PUSH1 0x60 SWAP2 POP JUMPDEST POP POP SWAP1 POP DUP1 PUSH2 0x2C5A JUMPI PUSH1 0x40 MLOAD PUSH4 0x12171D83 PUSH1 0xE3 SHL DUP2 MSTORE PUSH1 0x4 ADD PUSH1 0x40 MLOAD DUP1 SWAP2 SUB SWAP1 REVERT JUMPDEST DUP4 SWAP2 POP POP PUSH2 0x2C7B JUMP JUMPDEST PUSH2 0x2C6C DUP6 PUSH2 0x32E2 JUMP JUMPDEST PUSH2 0x2C78 DUP6 DUP6 DUP6 DUP6 PUSH2 0x348C JUMP JUMPDEST SWAP1 POP JUMPDEST DUP4 PUSH1 0x1 PUSH1 0x1 PUSH1 0xA0 SHL SUB AND DUP6 PUSH1 0x1 PUSH1 0x1 PUSH1 0xA0 SHL SUB AND PUSH32 0x8E386EA29F37964FDBDB87193D773DEA74E258B0F6108461C88C712051FB27BC DUP6 DUP5 PUSH1 0x40 MLOAD PUSH2 0x2CC9 SWAP3 SWAP2 SWAP1 SWAP2 DUP3 MSTORE PUSH1 0x20 DUP3 ADD MSTORE PUSH1 0x40 ADD SWAP1 JUMP JUMPDEST PUSH1 0x40 MLOAD DUP1 SWAP2 SUB SWAP1 LOG3 POP POP POP POP POP POP POP JUMP JUMPDEST PUSH0 PUSH1 0x41 DUP3 EQ PUSH2 0x2CEA JUMPI POP PUSH0 PUSH2 0x2D58 JUMP JUMPDEST PUSH1 0x40 DUP1 MLOAD PUSH0 DUP1 DUP3 MSTORE PUSH1 0x20 DUP1 DUP4 ADD DUP1 DUP6 MSTORE DUP9 SWAP1 MSTORE DUP7 DUP5 ADD CALLDATALOAD SWAP1 SWAP2 BYTE SWAP3 DUP3 ADD DUP4 SWAP1 MSTORE DUP6 CALLDATALOAD PUSH1 0x60 DUP4 ADD DUP2 SWAP1 MSTORE SWAP1 DUP7 ADD CALLDATALOAD PUSH1 0x80 DUP4 ADD DUP2 SWAP1 MSTORE SWAP1 SWAP3 SWAP1 SWAP2 PUSH1 0x1 SWAP1 PUSH1 0xA0 ADD PUSH1 0x20 PUSH1 0x40 MLOAD PUSH1 0x20 DUP2 SUB SWAP1 DUP1 DUP5 SUB SWAP1 DUP6 GAS STATICCALL ISZERO DUP1 ISZERO PUSH2 0x2D48 JUMPI RETURNDATASIZE PUSH0 PUSH0 RETURNDATACOPY RETURNDATASIZE PUSH0 REVERT JUMPDEST POP POP POP PUSH1 0x20 PUSH1 0x40 MLOAD SUB MLOAD SWAP4 POP POP POP POP JUMPDEST SWAP4 SWAP3 POP POP POP JUMP JUMPDEST PUSH1 0x1 PUSH1 0x1 PUSH1 0xA0 SHL SUB DUP4 AND PUSH2 0x2D86 JUMPI PUSH1 0x40 MLOAD PUSH4 0xE6C4247B PUSH1 0xE0 SHL DUP2 MSTORE PUSH1 0x4 ADD PUSH1 0x40 MLOAD DUP1 SWAP2 SUB SWAP1 REVERT JUMPDEST DUP2 PUSH0 SUB PUSH2 0x2DA6 JUMPI PUSH1 0x40 MLOAD PUSH4 0x162908E3 PUSH1 0xE1 SHL DUP2 MSTORE PUSH1 0x4 ADD PUSH1 0x40 MLOAD DUP1 SWAP2 SUB SWAP1 REVERT JUMPDEST PUSH2 0x1F4 DUP2 GT ISZERO PUSH2 0x2DC9 JUMPI PUSH1 0x40 MLOAD PUSH4 0xFAA34455 PUSH1 0xE0 SHL DUP2 MSTORE PUSH1 0x4 ADD PUSH1 0x40 MLOAD DUP1 SWAP2 SUB SWAP1 REVERT JUMPDEST PUSH0 PUSH2 0x2DD4 DUP7 DUP9 PUSH2 0x2695 JUMP JUMPDEST SWAP1 POP PUSH0 DUP6 DUP6 DUP6 DUP6 PUSH1 0x40 MLOAD PUSH1 0x20 ADD PUSH2 0x2DEE SWAP5 SWAP4 SWAP3 SWAP2 SWAP1 PUSH2 0x3EC3 JUMP JUMPDEST PUSH1 0x40 DUP1 MLOAD DUP1 DUP4 SUB PUSH1 0x1F NOT ADD DUP2 MSTORE SWAP2 DUP2 MSTORE PUSH0 DUP5 DUP2 MSTORE PUSH1 0x2 PUSH1 0x20 MSTORE SWAP1 DUP2 KECCAK256 PUSH1 0x1 DUP2 ADD SLOAD SWAP3 SWAP4 POP SWAP2 PUSH2 0x100 SWAP1 DIV PUSH5 0xFFFFFFFFFF AND SWAP1 SUB PUSH2 0x2ECF JUMPI PUSH2 0x2E31 PUSH2 0xE10 TIMESTAMP PUSH2 0x3C73 JUMP JUMPDEST PUSH1 0x1 DUP3 ADD DUP1 SLOAD PUSH8 0xFFFF000000000100 PUSH1 0x1 PUSH1 0xE0 SHL SUB NOT AND PUSH2 0x100 PUSH5 0xFFFFFFFFFF SWAP4 SWAP1 SWAP4 AND SWAP3 SWAP1 SWAP3 MUL PUSH1 0x1 PUSH1 0x40 SHL PUSH1 0x1 PUSH1 0xE0 SHL SUB NOT AND SWAP2 SWAP1 SWAP2 OR PUSH1 0x1 PUSH1 0x40 SHL PUSH1 0x1 PUSH1 0x1 PUSH1 0xA0 SHL SUB DUP13 AND MUL OR SWAP1 SSTORE PUSH1 0x2 DUP2 ADD PUSH2 0x2E8B DUP4 DUP3 PUSH2 0x3D7A JUMP JUMPDEST POP PUSH1 0x1 DUP2 ADD SLOAD PUSH1 0x40 MLOAD PUSH2 0x100 SWAP1 SWAP2 DIV PUSH5 0xFFFFFFFFFF AND DUP2 MSTORE PUSH1 0x1 PUSH1 0x1 PUSH1 0xA0 SHL SUB DUP11 AND SWAP1 DUP5 SWAP1 PUSH0 MLOAD PUSH1 0x20 PUSH2 0x427D PUSH0 CODECOPY PUSH0 MLOAD SWAP1 PUSH0 MSTORE SWAP1 PUSH1 0x20 ADD PUSH1 0x40 MLOAD DUP1 SWAP2 SUB SWAP1 LOG3 PUSH2 0x2F0D JUMP JUMPDEST DUP2 MLOAD PUSH1 0x20 DUP4 ADD KECCAK256 PUSH1 0x40 MLOAD PUSH2 0x2EE7 SWAP1 PUSH1 0x2 DUP5 ADD SWAP1 PUSH2 0x3E34 JUMP JUMPDEST PUSH1 0x40 MLOAD DUP1 SWAP2 SUB SWAP1 KECCAK256 EQ PUSH2 0x2F0D JUMPI PUSH1 0x40 MLOAD PUSH4 0x4CD6F7C3 PUSH1 0xE0 SHL DUP2 MSTORE PUSH1 0x4 ADD PUSH1 0x40 MLOAD DUP1 SWAP2 SUB SWAP1 REVERT JUMPDEST PUSH1 0x1 DUP2 ADD SLOAD PUSH2 0x100 SWAP1 DIV PUSH5 0xFFFFFFFFFF AND TIMESTAMP GT ISZERO PUSH2 0x2F3E JUMPI PUSH1 0x40 MLOAD PUSH4 0x28A72379 PUSH1 0xE0 SHL DUP2 MSTORE PUSH1 0x4 ADD PUSH1 0x40 MLOAD DUP1 SWAP2 SUB SWAP1 REVERT JUMPDEST PUSH1 0x1 DUP2 ADD SLOAD PUSH1 0x1 PUSH1 0x30 SHL SWAP1 DIV PUSH1 0xFF AND ISZERO PUSH2 0x2F6B JUMPI PUSH1 0x40 MLOAD PUSH4 0xDC10197 PUSH1 0xE0 SHL DUP2 MSTORE PUSH1 0x4 ADD PUSH1 0x40 MLOAD DUP1 SWAP2 SUB SWAP1 REVERT JUMPDEST PUSH1 0x1 DUP2 ADD SLOAD PUSH1 0x1 PUSH1 0x38 SHL SWAP1 DIV PUSH1 0xFF AND ISZERO PUSH2 0x2F98 JUMPI PUSH1 0x40 MLOAD PUSH4 0x28A72379 PUSH1 0xE0 SHL DUP2 MSTORE PUSH1 0x4 ADD PUSH1 0x40 MLOAD DUP1 SWAP2 SUB SWAP1 REVERT JUMPDEST PUSH1 0x1 PUSH1 0x1 PUSH1 0xA0 SHL SUB DUP10 AND PUSH0 SWAP1 DUP2 MSTORE PUSH1 0x20 DUP3 SWAP1 MSTORE PUSH1 0x40 SWAP1 KECCAK256 SLOAD PUSH1 0xFF AND ISZERO PUSH2 0x2FD1 JUMPI PUSH1 0x40 MLOAD PUSH4 0x80FC0BD PUSH1 0xE1 SHL DUP2 MSTORE PUSH1 0x4 ADD PUSH1 0x40 MLOAD DUP1 SWAP2 SUB SWAP1 REVERT JUMPDEST PUSH1 0x1 PUSH1 0x1 PUSH1 0xA0 SHL SUB DUP10 AND PUSH0 SWAP1 DUP2 MSTORE PUSH1 0x20 DUP3 SWAP1 MSTORE PUSH1 0x40 DUP2 KECCAK256 DUP1 SLOAD PUSH1 0xFF NOT AND PUSH1 0x1 SWAP1 DUP2 OR SWAP1 SWAP2 SSTORE DUP3 ADD DUP1 SLOAD DUP3 SWAP1 PUSH2 0x3008 SWAP1 PUSH1 0xFF AND PUSH2 0x3EA5 JUMP JUMPDEST SWAP2 SWAP1 PUSH2 0x100 EXP DUP2 SLOAD DUP2 PUSH1 0xFF MUL NOT AND SWAP1 DUP4 PUSH1 0xFF AND MUL OR SWAP1 SSTORE SWAP1 POP DUP10 PUSH1 0x1 PUSH1 0x1 PUSH1 0xA0 SHL SUB AND DUP5 PUSH0 MLOAD PUSH1 0x20 PUSH2 0x425D PUSH0 CODECOPY PUSH0 MLOAD SWAP1 PUSH0 MSTORE DUP4 PUSH1 0x40 MLOAD PUSH2 0x3051 SWAP2 SWAP1 PUSH1 0xFF SWAP2 SWAP1 SWAP2 AND DUP2 MSTORE PUSH1 0x20 ADD SWAP1 JUMP JUMPDEST PUSH1 0x40 MLOAD DUP1 SWAP2 SUB SWAP1 LOG3 PUSH0 PUSH2 0x3062 PUSH2 0x27C7 JUMP JUMPDEST SWAP1 POP DUP1 PUSH1 0xFF AND DUP3 PUSH1 0xFF AND LT PUSH2 0x30B2 JUMPI PUSH1 0x1 DUP4 ADD DUP1 SLOAD PUSH1 0xFF PUSH1 0x30 SHL NOT AND PUSH1 0x1 PUSH1 0x30 SHL OR SWAP1 SSTORE PUSH1 0x2 DUP4 ADD DUP1 SLOAD PUSH2 0x309A SWAP2 SWAP1 PUSH2 0x14E6 SWAP1 PUSH2 0x3CF7 JUMP JUMPDEST PUSH1 0x40 MLOAD DUP6 SWAP1 PUSH0 MLOAD PUSH1 0x20 PUSH2 0x423D PUSH0 CODECOPY PUSH0 MLOAD SWAP1 PUSH0 MSTORE SWAP1 PUSH0 SWAP1 LOG2 JUMPDEST POP POP POP POP POP POP POP POP POP POP POP JUMP JUMPDEST PUSH0 PUSH0 PUSH0 PUSH0 DUP5 DUP1 PUSH1 0x20 ADD SWAP1 MLOAD DUP2 ADD SWAP1 PUSH2 0x30D7 SWAP2 SWAP1 PUSH2 0x418E JUMP JUMPDEST SWAP4 POP SWAP4 POP SWAP4 POP SWAP4 POP PUSH32 0x76B1A12AC8D9ED64DE3C0F66C2A19B21C0A3F9A1AFEC3F75BCD45F7B0794A1DE DUP5 DUP1 MLOAD SWAP1 PUSH1 0x20 ADD KECCAK256 EQ PUSH2 0x3126 JUMPI PUSH1 0x40 MLOAD PUSH4 0x4A7F394F PUSH1 0xE0 SHL DUP2 MSTORE PUSH1 0x4 ADD PUSH1 0x40 MLOAD DUP1 SWAP2 SUB SWAP1 REVERT JUMPDEST PUSH1 0x1 PUSH1 0x1 PUSH1 0xA0 SHL SUB DUP4 AND PUSH2 0x31AA JUMPI PUSH0 DUP3 PUSH1 0x1 PUSH1 0x1 PUSH1 0xA0 SHL SUB AND DUP3 PUSH1 0x40 MLOAD PUSH0 PUSH1 0x40 MLOAD DUP1 DUP4 SUB DUP2 DUP6 DUP8 GAS CALL SWAP3 POP POP POP RETURNDATASIZE DUP1 PUSH0 DUP2 EQ PUSH2 0x317D JUMPI PUSH1 0x40 MLOAD SWAP2 POP PUSH1 0x1F NOT PUSH1 0x3F RETURNDATASIZE ADD AND DUP3 ADD PUSH1 0x40 MSTORE RETURNDATASIZE DUP3 MSTORE RETURNDATASIZE PUSH0 PUSH1 0x20 DUP5 ADD RETURNDATACOPY PUSH2 0x3182 JUMP JUMPDEST PUSH1 0x60 SWAP2 POP JUMPDEST POP POP SWAP1 POP DUP1 PUSH2 0x31A4 JUMPI PUSH1 0x40 MLOAD PUSH4 0x12171D83 PUSH1 0xE3 SHL DUP2 MSTORE PUSH1 0x4 ADD PUSH1 0x40 MLOAD DUP1 SWAP2 SUB SWAP1 REVERT JUMPDEST POP PUSH2 0x31BE JUMP JUMPDEST PUSH2 0x31B3 DUP4 PUSH2 0x32E2 JUMP JUMPDEST PUSH2 0x31BE DUP4 DUP4 DUP4 PUSH2 0x35D3 JUMP JUMPDEST DUP2 PUSH1 0x1 PUSH1 0x1 PUSH1 0xA0 SHL SUB AND DUP4 PUSH1 0x1 PUSH1 0x1 PUSH1 0xA0 SHL SUB AND PUSH32 0x9495D03190A79A43E534C9E328FF322F6283261383F5F19C809564F6AD5A57B3 DUP4 PUSH1 0x40 MLOAD PUSH2 0x3203 SWAP2 DUP2 MSTORE PUSH1 0x20 ADD SWAP1 JUMP JUMPDEST PUSH1 0x40 MLOAD DUP1 SWAP2 SUB SWAP1 LOG3 POP POP POP POP POP POP JUMP JUMPDEST PUSH1 0x40 DUP1 MLOAD PUSH1 0x1 PUSH1 0x1 PUSH1 0xA0 SHL SUB DUP4 DUP2 AND PUSH1 0x24 DUP1 DUP5 ADD SWAP2 SWAP1 SWAP2 MSTORE DUP4 MLOAD DUP1 DUP5 SUB SWAP1 SWAP2 ADD DUP2 MSTORE PUSH1 0x44 SWAP1 SWAP3 ADD DUP4 MSTORE PUSH1 0x20 DUP3 ADD DUP1 MLOAD PUSH1 0x1 PUSH1 0x1 PUSH1 0xE0 SHL SUB AND PUSH4 0x70A08231 PUSH1 0xE0 SHL OR SWAP1 MSTORE SWAP2 MLOAD PUSH0 SWAP3 DUP4 SWAP2 DUP3 SWAP2 DUP8 AND SWAP1 PUSH2 0x326C SWAP1 DUP6 SWAP1 PUSH2 0x41F4 JUMP JUMPDEST PUSH0 PUSH1 0x40 MLOAD DUP1 DUP4 SUB DUP2 DUP6 GAS STATICCALL SWAP2 POP POP RETURNDATASIZE DUP1 PUSH0 DUP2 EQ PUSH2 0x32A4 JUMPI PUSH1 0x40 MLOAD SWAP2 POP PUSH1 0x1F NOT PUSH1 0x3F RETURNDATASIZE ADD AND DUP3 ADD PUSH1 0x40 MSTORE RETURNDATASIZE DUP3 MSTORE RETURNDATASIZE PUSH0 PUSH1 0x20 DUP5 ADD RETURNDATACOPY PUSH2 0x32A9 JUMP JUMPDEST PUSH1 0x60 SWAP2 POP JUMPDEST POP SWAP2 POP SWAP2 POP DUP2 DUP1 ISZERO PUSH2 0x32BD JUMPI POP PUSH1 0x20 DUP2 MLOAD LT ISZERO JUMPDEST ISZERO PUSH2 0x32D9 JUMPI DUP1 DUP1 PUSH1 0x20 ADD SWAP1 MLOAD DUP2 ADD SWAP1 PUSH2 0x32D6 SWAP2 SWAP1 PUSH2 0x420A JUMP JUMPDEST SWAP4 POP JUMPDEST POP POP POP SWAP3 SWAP2 POP POP JUMP JUMPDEST PUSH1 0x1 PUSH1 0x1 PUSH1 0xA0 SHL SUB DUP2 AND PUSH2 0x3309 JUMPI PUSH1 0x40 MLOAD PUSH4 0xA6F7ECD PUSH1 0xE2 SHL DUP2 MSTORE PUSH1 0x4 ADD PUSH1 0x40 MLOAD DUP1 SWAP2 SUB SWAP1 REVERT JUMPDEST DUP1 EXTCODESIZE PUSH0 DUP2 SWAP1 SUB PUSH2 0x332C JUMPI PUSH1 0x40 MLOAD PUSH4 0xA6F7ECD PUSH1 0xE2 SHL DUP2 MSTORE PUSH1 0x4 ADD PUSH1 0x40 MLOAD DUP1 SWAP2 SUB SWAP1 REVERT JUMPDEST PUSH1 0x40 DUP1 MLOAD PUSH0 PUSH1 0x24 DUP3 ADD DUP2 SWAP1 MSTORE PUSH1 0x44 DUP1 DUP4 ADD DUP3 SWAP1 MSTORE DUP4 MLOAD DUP1 DUP5 SUB SWAP1 SWAP2 ADD DUP2 MSTORE PUSH1 0x64 SWAP1 SWAP3 ADD DUP4 MSTORE PUSH1 0x20 DUP3 ADD DUP1 MLOAD PUSH1 0x1 PUSH1 0x1 PUSH1 0xE0 SHL SUB AND PUSH4 0xA9059CBB PUSH1 0xE0 SHL OR SWAP1 MSTORE SWAP2 MLOAD SWAP1 SWAP2 SWAP1 PUSH1 0x1 PUSH1 0x1 PUSH1 0xA0 SHL SUB DUP6 AND SWAP1 PUSH2 0x3386 SWAP1 DUP5 SWAP1 PUSH2 0x41F4 JUMP JUMPDEST PUSH0 PUSH1 0x40 MLOAD DUP1 DUP4 SUB DUP2 DUP6 GAS STATICCALL SWAP2 POP POP RETURNDATASIZE DUP1 PUSH0 DUP2 EQ PUSH2 0x33BE JUMPI PUSH1 0x40 MLOAD SWAP2 POP PUSH1 0x1F NOT PUSH1 0x3F RETURNDATASIZE ADD AND DUP3 ADD PUSH1 0x40 MSTORE RETURNDATASIZE DUP3 MSTORE RETURNDATASIZE PUSH0 PUSH1 0x20 DUP5 ADD RETURNDATACOPY PUSH2 0x33C3 JUMP JUMPDEST PUSH1 0x60 SWAP2 POP JUMPDEST POP POP PUSH1 0x40 DUP1 MLOAD PUSH0 PUSH1 0x24 DUP1 DUP4 ADD DUP3 SWAP1 MSTORE DUP4 MLOAD DUP1 DUP5 SUB SWAP1 SWAP2 ADD DUP2 MSTORE PUSH1 0x44 SWAP1 SWAP3 ADD DUP4 MSTORE PUSH1 0x20 DUP3 ADD DUP1 MLOAD PUSH1 0x1 PUSH1 0x1 PUSH1 0xE0 SHL SUB AND PUSH4 0x70A08231 PUSH1 0xE0 SHL OR SWAP1 MSTORE SWAP2 MLOAD SWAP3 SWAP4 POP SWAP2 PUSH1 0x1 PUSH1 0x1 PUSH1 0xA0 SHL SUB DUP8 AND SWAP1 PUSH2 0x3419 SWAP1 DUP5 SWAP1 PUSH2 0x41F4 JUMP JUMPDEST PUSH0 PUSH1 0x40 MLOAD DUP1 DUP4 SUB DUP2 DUP6 GAS STATICCALL SWAP2 POP POP RETURNDATASIZE DUP1 PUSH0 DUP2 EQ PUSH2 0x3451 JUMPI PUSH1 0x40 MLOAD SWAP2 POP PUSH1 0x1F NOT PUSH1 0x3F RETURNDATASIZE ADD AND DUP3 ADD PUSH1 0x40 MSTORE RETURNDATASIZE DUP3 MSTORE RETURNDATASIZE PUSH0 PUSH1 0x20 DUP5 ADD RETURNDATACOPY PUSH2 0x3456 JUMP JUMPDEST PUSH1 0x60 SWAP2 POP JUMPDEST POP POP SWAP1 POP DUP3 ISZERO DUP1 ISZERO PUSH2 0x3466 JUMPI POP DUP1 ISZERO JUMPDEST ISZERO PUSH2 0x3484 JUMPI PUSH1 0x40 MLOAD PUSH4 0xA6F7ECD PUSH1 0xE2 SHL DUP2 MSTORE PUSH1 0x4 ADD PUSH1 0x40 MLOAD DUP1 SWAP2 SUB SWAP1 REVERT JUMPDEST POP POP POP POP POP POP JUMP JUMPDEST PUSH0 PUSH0 PUSH2 0x3498 DUP7 ADDRESS PUSH2 0x3213 JUMP JUMPDEST SWAP1 POP DUP4 DUP2 LT ISZERO PUSH2 0x34BB JUMPI PUSH1 0x40 MLOAD PUSH4 0x1E9ACF17 PUSH1 0xE3 SHL DUP2 MSTORE PUSH1 0x4 ADD PUSH1 0x40 MLOAD DUP1 SWAP2 SUB SWAP1 REVERT JUMPDEST PUSH0 PUSH2 0x34C6 DUP8 DUP8 PUSH2 0x3213 JUMP JUMPDEST SWAP1 POP PUSH2 0x34DC PUSH1 0x1 PUSH1 0x1 PUSH1 0xA0 SHL SUB DUP9 AND DUP8 DUP8 PUSH2 0x36F1 JUMP JUMPDEST PUSH0 PUSH2 0x34E7 DUP9 ADDRESS PUSH2 0x3213 JUMP JUMPDEST SWAP1 POP PUSH0 PUSH2 0x34F4 DUP10 DUP10 PUSH2 0x3213 JUMP JUMPDEST SWAP1 POP PUSH0 PUSH2 0x3501 DUP4 DUP7 PUSH2 0x3F0B JUMP JUMPDEST SWAP1 POP PUSH2 0x350D DUP5 DUP4 PUSH2 0x3F0B JUMP JUMPDEST SWAP6 POP PUSH0 PUSH2 0x2710 PUSH2 0x351D DUP10 DUP3 PUSH2 0x3F0B JUMP JUMPDEST PUSH2 0x3527 SWAP1 DUP12 PUSH2 0x3FB8 JUMP JUMPDEST PUSH2 0x3531 SWAP2 SWAP1 PUSH2 0x3FCF JUMP JUMPDEST SWAP1 POP PUSH0 PUSH2 0x2710 PUSH2 0x3541 DUP11 DUP3 PUSH2 0x3C73 JUMP JUMPDEST PUSH2 0x354B SWAP1 DUP13 PUSH2 0x3FB8 JUMP JUMPDEST PUSH2 0x3555 SWAP2 SWAP1 PUSH2 0x3FCF JUMP JUMPDEST SWAP1 POP DUP2 DUP9 LT ISZERO PUSH2 0x3578 JUMPI PUSH1 0x40 MLOAD PUSH4 0x8199F5F3 PUSH1 0xE0 SHL DUP2 MSTORE PUSH1 0x4 ADD PUSH1 0x40 MLOAD DUP1 SWAP2 SUB SWAP1 REVERT JUMPDEST DUP1 DUP4 GT ISZERO PUSH2 0x3599 JUMPI PUSH1 0x40 MLOAD PUSH4 0x8199F5F3 PUSH1 0xE0 SHL DUP2 MSTORE PUSH1 0x4 ADD PUSH1 0x40 MLOAD DUP1 SWAP2 SUB SWAP1 REVERT JUMPDEST PUSH2 0x35A4 DUP9 PUSH1 0x2 PUSH2 0x3FB8 JUMP JUMPDEST DUP4 GT ISZERO PUSH2 0x35C4 JUMPI PUSH1 0x40 MLOAD PUSH4 0x8199F5F3 PUSH1 0xE0 SHL DUP2 MSTORE PUSH1 0x4 ADD PUSH1 0x40 MLOAD DUP1 SWAP2 SUB SWAP1 REVERT JUMPDEST POP POP POP POP POP POP POP SWAP5 SWAP4 POP POP POP POP JUMP JUMPDEST PUSH0 PUSH2 0x35DE DUP5 ADDRESS PUSH2 0x3213 JUMP JUMPDEST SWAP1 POP DUP2 DUP2 LT ISZERO PUSH2 0x3601 JUMPI PUSH1 0x40 MLOAD PUSH4 0x1E9ACF17 PUSH1 0xE3 SHL DUP2 MSTORE PUSH1 0x4 ADD PUSH1 0x40 MLOAD DUP1 SWAP2 SUB SWAP1 REVERT JUMPDEST PUSH1 0x40 DUP1 MLOAD PUSH1 0x1 PUSH1 0x1 PUSH1 0xA0 SHL SUB DUP6 DUP2 AND PUSH1 0x24 DUP4 ADD MSTORE PUSH1 0x44 DUP1 DUP4 ADD DUP7 SWAP1 MSTORE DUP4 MLOAD DUP1 DUP5 SUB SWAP1 SWAP2 ADD DUP2 MSTORE PUSH1 0x64 SWAP1 SWAP3 ADD DUP4 MSTORE PUSH1 0x20 DUP3 ADD DUP1 MLOAD PUSH1 0x1 PUSH1 0x1 PUSH1 0xE0 SHL SUB AND PUSH4 0xA9059CBB PUSH1 0xE0 SHL OR SWAP1 MSTORE SWAP2 MLOAD SWAP1 SWAP2 PUSH0 SWAP2 DUP3 SWAP2 DUP9 AND SWAP1 PUSH2 0x365E SWAP1 DUP6 SWAP1 PUSH2 0x41F4 JUMP JUMPDEST PUSH0 PUSH1 0x40 MLOAD DUP1 DUP4 SUB DUP2 PUSH0 DUP7 GAS CALL SWAP2 POP POP RETURNDATASIZE DUP1 PUSH0 DUP2 EQ PUSH2 0x3697 JUMPI PUSH1 0x40 MLOAD SWAP2 POP PUSH1 0x1F NOT PUSH1 0x3F RETURNDATASIZE ADD AND DUP3 ADD PUSH1 0x40 MSTORE RETURNDATASIZE DUP3 MSTORE RETURNDATASIZE PUSH0 PUSH1 0x20 DUP5 ADD RETURNDATACOPY PUSH2 0x369C JUMP JUMPDEST PUSH1 0x60 SWAP2 POP JUMPDEST POP SWAP2 POP SWAP2 POP DUP2 ISZERO DUP1 PUSH2 0x36CA JUMPI POP PUSH0 DUP2 MLOAD GT DUP1 ISZERO PUSH2 0x36CA JUMPI POP DUP1 DUP1 PUSH1 0x20 ADD SWAP1 MLOAD DUP2 ADD SWAP1 PUSH2 0x36C8 SWAP2 SWAP1 PUSH2 0x4221 JUMP JUMPDEST ISZERO JUMPDEST ISZERO PUSH2 0x36E8 JUMPI PUSH1 0x40 MLOAD PUSH4 0x12171D83 PUSH1 0xE3 SHL DUP2 MSTORE PUSH1 0x4 ADD PUSH1 0x40 MLOAD DUP1 SWAP2 SUB SWAP1 REVERT JUMPDEST POP POP POP POP POP POP POP JUMP JUMPDEST PUSH1 0x40 DUP1 MLOAD PUSH1 0x1 PUSH1 0x1 PUSH1 0xA0 SHL SUB DUP5 AND PUSH1 0x24 DUP3 ADD MSTORE PUSH1 0x44 DUP1 DUP3 ADD DUP5 SWAP1 MSTORE DUP3 MLOAD DUP1 DUP4 SUB SWAP1 SWAP2 ADD DUP2 MSTORE PUSH1 0x64 SWAP1 SWAP2 ADD SWAP1 SWAP2 MSTORE PUSH1 0x20 DUP1 DUP3 ADD DUP1 MLOAD PUSH1 0x1 PUSH1 0x1 PUSH1 0xE0 SHL SUB AND PUSH4 0xA9059CBB PUSH1 0xE0 SHL OR DUP2 MSTORE DUP3 MLOAD PUSH2 0x2B4B SWAP4 DUP8 SWAP4 SWAP1 SWAP3 PUSH0 SWAP3 DUP4 SWAP3 SWAP2 DUP4 SWAP2 SWAP1 DUP3 DUP9 GAS CALL DUP1 PUSH2 0x375F JUMPI PUSH1 0x40 MLOAD RETURNDATASIZE PUSH0 DUP3 RETURNDATACOPY RETURNDATASIZE DUP2 REVERT JUMPDEST POP POP PUSH0 MLOAD RETURNDATASIZE SWAP2 POP DUP2 ISZERO PUSH2 0x3776 JUMPI DUP1 PUSH1 0x1 EQ ISZERO PUSH2 0x3783 JUMP JUMPDEST PUSH1 0x1 PUSH1 0x1 PUSH1 0xA0 SHL SUB DUP5 AND EXTCODESIZE ISZERO JUMPDEST ISZERO PUSH2 0x37AC JUMPI PUSH1 0x40 MLOAD PUSH4 0x5274AFE7 PUSH1 0xE0 SHL DUP2 MSTORE PUSH1 0x1 PUSH1 0x1 PUSH1 0xA0 SHL SUB DUP6 AND PUSH1 0x4 DUP3 ADD MSTORE PUSH1 0x24 ADD PUSH2 0x1AF9 JUMP JUMPDEST POP POP POP POP JUMP JUMPDEST DUP3 DUP1 SLOAD DUP3 DUP3 SSTORE SWAP1 PUSH0 MSTORE PUSH1 0x20 PUSH0 KECCAK256 SWAP1 DUP2 ADD SWAP3 DUP3 ISZERO PUSH2 0x3805 JUMPI SWAP2 PUSH1 0x20 MUL DUP3 ADD JUMPDEST DUP3 DUP2 GT ISZERO PUSH2 0x3805 JUMPI DUP3 MLOAD DUP3 SLOAD PUSH1 0x1 PUSH1 0x1 PUSH1 0xA0 SHL SUB NOT AND PUSH1 0x1 PUSH1 0x1 PUSH1 0xA0 SHL SUB SWAP1 SWAP2 AND OR DUP3 SSTORE PUSH1 0x20 SWAP1 SWAP3 ADD SWAP2 PUSH1 0x1 SWAP1 SWAP2 ADD SWAP1 PUSH2 0x37D0 JUMP JUMPDEST POP PUSH2 0x3811 SWAP3 SWAP2 POP PUSH2 0x3815 JUMP JUMPDEST POP SWAP1 JUMP JUMPDEST JUMPDEST DUP1 DUP3 GT ISZERO PUSH2 0x3811 JUMPI PUSH0 DUP2 SSTORE PUSH1 0x1 ADD PUSH2 0x3816 JUMP JUMPDEST PUSH4 0x4E487B71 PUSH1 0xE0 SHL PUSH0 MSTORE PUSH1 0x41 PUSH1 0x4 MSTORE PUSH1 0x24 PUSH0 REVERT JUMPDEST PUSH1 0x40 MLOAD PUSH1 0x1F DUP3 ADD PUSH1 0x1F NOT AND DUP2 ADD PUSH1 0x1 PUSH1 0x1 PUSH1 0x40 SHL SUB DUP2 GT DUP3 DUP3 LT OR ISZERO PUSH2 0x3865 JUMPI PUSH2 0x3865 PUSH2 0x3829 JUMP JUMPDEST PUSH1 0x40 MSTORE SWAP2 SWAP1 POP JUMP JUMPDEST PUSH0 PUSH1 0x1 PUSH1 0x1 PUSH1 0x40 SHL SUB DUP3 GT ISZERO PUSH2 0x3885 JUMPI PUSH2 0x3885 PUSH2 0x3829 JUMP JUMPDEST POP PUSH1 0x5 SHL PUSH1 0x20 ADD SWAP1 JUMP JUMPDEST PUSH1 0x1 PUSH1 0x1 PUSH1 0xA0 SHL SUB DUP2 AND DUP2 EQ PUSH2 0x38A3 JUMPI PUSH0 PUSH0 REVERT JUMPDEST POP JUMP JUMPDEST DUP1 CALLDATALOAD PUSH2 0x2690 DUP2 PUSH2 0x388F JUMP JUMPDEST PUSH0 PUSH1 0x20 DUP3 DUP5 SUB SLT ISZERO PUSH2 0x38C1 JUMPI PUSH0 PUSH0 REVERT JUMPDEST DUP2 CALLDATALOAD PUSH1 0x1 PUSH1 0x1 PUSH1 0x40 SHL SUB DUP2 GT ISZERO PUSH2 0x38D6 JUMPI PUSH0 PUSH0 REVERT JUMPDEST DUP3 ADD PUSH1 0x1F DUP2 ADD DUP5 SGT PUSH2 0x38E6 JUMPI PUSH0 PUSH0 REVERT JUMPDEST DUP1 CALLDATALOAD PUSH2 0x38F9 PUSH2 0x38F4 DUP3 PUSH2 0x386D JUMP JUMPDEST PUSH2 0x383D JUMP JUMPDEST DUP1 DUP3 DUP3 MSTORE PUSH1 0x20 DUP3 ADD SWAP2 POP PUSH1 0x20 DUP4 PUSH1 0x5 SHL DUP6 ADD ADD SWAP3 POP DUP7 DUP4 GT ISZERO PUSH2 0x391A JUMPI PUSH0 PUSH0 REVERT JUMPDEST PUSH1 0x20 DUP5 ADD SWAP4 POP JUMPDEST DUP3 DUP5 LT ISZERO PUSH2 0x3945 JUMPI DUP4 CALLDATALOAD PUSH2 0x3934 DUP2 PUSH2 0x388F JUMP JUMPDEST DUP3 MSTORE PUSH1 0x20 SWAP4 DUP5 ADD SWAP4 SWAP1 SWAP2 ADD SWAP1 PUSH2 0x3921 JUMP JUMPDEST SWAP7 SWAP6 POP POP POP POP POP POP JUMP JUMPDEST PUSH0 PUSH0 PUSH1 0x40 DUP4 DUP6 SUB SLT ISZERO PUSH2 0x3960 JUMPI PUSH0 PUSH0 REVERT JUMPDEST DUP3 CALLDATALOAD SWAP2 POP PUSH1 0x20 DUP4 ADD CALLDATALOAD PUSH2 0x3972 DUP2 PUSH2 0x388F JUMP JUMPDEST DUP1 SWAP2 POP POP SWAP3 POP SWAP3 SWAP1 POP JUMP JUMPDEST DUP1 ISZERO ISZERO DUP2 EQ PUSH2 0x38A3 JUMPI PUSH0 PUSH0 REVERT JUMPDEST PUSH0 PUSH0 PUSH0 PUSH1 0x60 DUP5 DUP7 SUB SLT ISZERO PUSH2 0x399C JUMPI PUSH0 PUSH0 REVERT JUMPDEST DUP4 CALLDATALOAD PUSH2 0x39A7 DUP2 PUSH2 0x397D JUMP JUMPDEST SWAP6 PUSH1 0x20 DUP6 ADD CALLDATALOAD SWAP6 POP PUSH1 0x40 SWAP1 SWAP5 ADD CALLDATALOAD SWAP4 SWAP3 POP POP POP JUMP JUMPDEST PUSH0 PUSH0 PUSH0 PUSH1 0x40 DUP5 DUP7 SUB SLT ISZERO PUSH2 0x39CE JUMPI PUSH0 PUSH0 REVERT JUMPDEST DUP4 CALLDATALOAD SWAP3 POP PUSH1 0x20 DUP5 ADD CALLDATALOAD PUSH1 0x1 PUSH1 0x1 PUSH1 0x40 SHL SUB DUP2 GT ISZERO PUSH2 0x39EA JUMPI PUSH0 PUSH0 REVERT JUMPDEST DUP5 ADD PUSH1 0x1F DUP2 ADD DUP7 SGT PUSH2 0x39FA JUMPI PUSH0 PUSH0 REVERT JUMPDEST DUP1 CALLDATALOAD PUSH1 0x1 PUSH1 0x1 PUSH1 0x40 SHL SUB DUP2 GT ISZERO PUSH2 0x3A0F JUMPI PUSH0 PUSH0 REVERT JUMPDEST DUP7 PUSH1 0x20 DUP3 PUSH1 0x5 SHL DUP5 ADD ADD GT ISZERO PUSH2 0x3A23 JUMPI PUSH0 PUSH0 REVERT JUMPDEST SWAP4 SWAP7 PUSH1 0x20 SWAP2 SWAP1 SWAP2 ADD SWAP6 POP SWAP3 SWAP4 POP POP POP JUMP JUMPDEST PUSH0 PUSH1 0x20 DUP3 DUP5 SUB SLT ISZERO PUSH2 0x3A44 JUMPI PUSH0 PUSH0 REVERT JUMPDEST POP CALLDATALOAD SWAP2 SWAP1 POP JUMP JUMPDEST PUSH0 PUSH0 PUSH0 PUSH0 PUSH0 PUSH1 0xA0 DUP7 DUP9 SUB SLT ISZERO PUSH2 0x3A5F JUMPI PUSH0 PUSH0 REVERT JUMPDEST DUP6 CALLDATALOAD SWAP5 POP PUSH1 0x20 DUP7 ADD CALLDATALOAD PUSH2 0x3A71 DUP2 PUSH2 0x388F JUMP JUMPDEST SWAP4 POP PUSH1 0x40 DUP7 ADD CALLDATALOAD PUSH2 0x3A81 DUP2 PUSH2 0x388F JUMP JUMPDEST SWAP5 SWAP8 SWAP4 SWAP7 POP SWAP4 SWAP5 PUSH1 0x60 DUP2 ADD CALLDATALOAD SWAP5 POP PUSH1 0x80 ADD CALLDATALOAD SWAP3 SWAP2 POP POP JUMP JUMPDEST PUSH1 0xFF DUP8 AND DUP2 MSTORE PUSH5 0xFFFFFFFFFF DUP7 AND PUSH1 0x20 DUP3 ADD MSTORE DUP5 ISZERO ISZERO PUSH1 0x40 DUP3 ADD MSTORE DUP4 ISZERO ISZERO PUSH1 0x60 DUP3 ADD MSTORE PUSH1 0x1 DUP1 PUSH1 0xA0 SHL SUB DUP4 AND PUSH1 0x80 DUP3 ADD MSTORE PUSH1 0xC0 PUSH1 0xA0 DUP3 ADD MSTORE PUSH0 DUP3 MLOAD DUP1 PUSH1 0xC0 DUP5 ADD MSTORE DUP1 PUSH1 0x20 DUP6 ADD PUSH1 0xE0 DUP6 ADD MCOPY PUSH0 PUSH1 0xE0 DUP3 DUP6 ADD ADD MSTORE PUSH1 0xE0 PUSH1 0x1F NOT PUSH1 0x1F DUP4 ADD AND DUP5 ADD ADD SWAP2 POP POP SWAP8 SWAP7 POP POP POP POP POP POP POP JUMP JUMPDEST PUSH0 PUSH0 PUSH1 0x40 DUP4 DUP6 SUB SLT ISZERO PUSH2 0x3B18 JUMPI PUSH0 PUSH0 REVERT JUMPDEST DUP3 CALLDATALOAD PUSH2 0x3B23 DUP2 PUSH2 0x388F JUMP JUMPDEST SWAP5 PUSH1 0x20 SWAP4 SWAP1 SWAP4 ADD CALLDATALOAD SWAP4 POP POP POP JUMP JUMPDEST PUSH0 PUSH0 PUSH0 PUSH0 PUSH0 PUSH0 PUSH0 PUSH0 PUSH1 0xE0 DUP10 DUP12 SUB SLT ISZERO PUSH2 0x3B48 JUMPI PUSH0 PUSH0 REVERT JUMPDEST DUP9 CALLDATALOAD PUSH2 0x3B53 DUP2 PUSH2 0x388F JUMP JUMPDEST SWAP8 POP PUSH1 0x20 DUP10 ADD CALLDATALOAD PUSH1 0x1 PUSH1 0x1 PUSH1 0x40 SHL SUB DUP2 GT ISZERO PUSH2 0x3B6D JUMPI PUSH0 PUSH0 REVERT JUMPDEST DUP10 ADD PUSH1 0x1F DUP2 ADD DUP12 SGT PUSH2 0x3B7D JUMPI PUSH0 PUSH0 REVERT JUMPDEST DUP1 CALLDATALOAD PUSH1 0x1 PUSH1 0x1 PUSH1 0x40 SHL SUB DUP2 GT ISZERO PUSH2 0x3B92 JUMPI PUSH0 PUSH0 REVERT JUMPDEST DUP12 PUSH1 0x20 DUP3 DUP5 ADD ADD GT ISZERO PUSH2 0x3BA3 JUMPI PUSH0 PUSH0 REVERT JUMPDEST PUSH1 0x20 SWAP2 SWAP1 SWAP2 ADD SWAP8 POP SWAP6 POP PUSH1 0x40 DUP10 ADD CALLDATALOAD SWAP5 POP PUSH2 0x3BC0 PUSH1 0x60 DUP11 ADD PUSH2 0x38A6 JUMP JUMPDEST SWAP4 POP PUSH2 0x3BCE PUSH1 0x80 DUP11 ADD PUSH2 0x38A6 JUMP JUMPDEST SWAP8 SWAP11 SWAP7 SWAP10 POP SWAP5 SWAP8 SWAP4 SWAP7 SWAP3 SWAP6 SWAP3 SWAP5 POP POP POP PUSH1 0xA0 DUP3 ADD CALLDATALOAD SWAP2 PUSH1 0xC0 ADD CALLDATALOAD SWAP1 JUMP JUMPDEST PUSH0 PUSH1 0x20 DUP3 DUP5 SUB SLT ISZERO PUSH2 0x3BFB JUMPI PUSH0 PUSH0 REVERT JUMPDEST DUP2 CALLDATALOAD PUSH2 0x2D58 DUP2 PUSH2 0x388F JUMP JUMPDEST PUSH0 PUSH0 PUSH0 PUSH0 PUSH1 0x80 DUP6 DUP8 SUB SLT ISZERO PUSH2 0x3C19 JUMPI PUSH0 PUSH0 REVERT JUMPDEST DUP5 CALLDATALOAD SWAP4 POP PUSH1 0x20 DUP6 ADD CALLDATALOAD PUSH2 0x3C2B DUP2 PUSH2 0x388F JUMP JUMPDEST SWAP3 POP PUSH1 0x40 DUP6 ADD CALLDATALOAD PUSH2 0x3C3B DUP2 PUSH2 0x388F JUMP JUMPDEST SWAP4 SWAP7 SWAP3 SWAP6 POP SWAP3 SWAP4 PUSH1 0x60 ADD CALLDATALOAD SWAP3 POP POP JUMP JUMPDEST PUSH4 0x4E487B71 PUSH1 0xE0 SHL PUSH0 MSTORE PUSH1 0x32 PUSH1 0x4 MSTORE PUSH1 0x24 PUSH0 REVERT JUMPDEST PUSH4 0x4E487B71 PUSH1 0xE0 SHL PUSH0 MSTORE PUSH1 0x11 PUSH1 0x4 MSTORE PUSH1 0x24 PUSH0 REVERT JUMPDEST DUP1 DUP3 ADD DUP1 DUP3 GT ISZERO PUSH2 0xAEC JUMPI PUSH2 0xAEC PUSH2 0x3C5F JUMP JUMPDEST PUSH1 0x40 DUP1 DUP3 MSTORE PUSH1 0xD SWAP1 DUP3 ADD MSTORE PUSH13 0x524F544154455F4F574E455253 PUSH1 0x98 SHL PUSH1 0x60 DUP3 ADD MSTORE PUSH1 0x80 PUSH1 0x20 DUP3 ADD DUP2 SWAP1 MSTORE DUP2 ADD DUP3 SWAP1 MSTORE PUSH0 DUP4 PUSH1 0xA0 DUP4 ADD DUP3 JUMPDEST DUP6 DUP2 LT ISZERO PUSH2 0x3CED JUMPI DUP3 CALLDATALOAD PUSH2 0x3CD0 DUP2 PUSH2 0x388F JUMP JUMPDEST PUSH1 0x1 PUSH1 0x1 PUSH1 0xA0 SHL SUB AND DUP3 MSTORE PUSH1 0x20 SWAP3 DUP4 ADD SWAP3 SWAP1 SWAP2 ADD SWAP1 PUSH1 0x1 ADD PUSH2 0x3CBD JUMP JUMPDEST POP SWAP6 SWAP5 POP POP POP POP POP JUMP JUMPDEST PUSH1 0x1 DUP2 DUP2 SHR SWAP1 DUP3 AND DUP1 PUSH2 0x3D0B JUMPI PUSH1 0x7F DUP3 AND SWAP2 POP JUMPDEST PUSH1 0x20 DUP3 LT DUP2 SUB PUSH2 0x3D29 JUMPI PUSH4 0x4E487B71 PUSH1 0xE0 SHL PUSH0 MSTORE PUSH1 0x22 PUSH1 0x4 MSTORE PUSH1 0x24 PUSH0 REVERT JUMPDEST POP SWAP2 SWAP1 POP JUMP JUMPDEST PUSH1 0x1F DUP3 GT ISZERO PUSH2 0x2B4B JUMPI DUP1 PUSH0 MSTORE PUSH1 0x20 PUSH0 KECCAK256 PUSH1 0x1F DUP5 ADD PUSH1 0x5 SHR DUP2 ADD PUSH1 0x20 DUP6 LT ISZERO PUSH2 0x3D54 JUMPI POP DUP1 JUMPDEST PUSH1 0x1F DUP5 ADD PUSH1 0x5 SHR DUP3 ADD SWAP2 POP JUMPDEST DUP2 DUP2 LT ISZERO PUSH2 0x3D73 JUMPI PUSH0 DUP2 SSTORE PUSH1 0x1 ADD PUSH2 0x3D60 JUMP JUMPDEST POP POP POP POP POP JUMP JUMPDEST DUP2 MLOAD PUSH1 0x1 PUSH1 0x1 PUSH1 0x40 SHL SUB DUP2 GT ISZERO PUSH2 0x3D93 JUMPI PUSH2 0x3D93 PUSH2 0x3829 JUMP JUMPDEST PUSH2 0x3DA7 DUP2 PUSH2 0x3DA1 DUP5 SLOAD PUSH2 0x3CF7 JUMP JUMPDEST DUP5 PUSH2 0x3D2F JUMP JUMPDEST PUSH1 0x20 PUSH1 0x1F DUP3 GT PUSH1 0x1 DUP2 EQ PUSH2 0x3DD9 JUMPI PUSH0 DUP4 ISZERO PUSH2 0x3DC2 JUMPI POP DUP5 DUP3 ADD MLOAD JUMPDEST PUSH0 NOT PUSH1 0x3 DUP6 SWAP1 SHL SHR NOT AND PUSH1 0x1 DUP5 SWAP1 SHL OR DUP5 SSTORE PUSH2 0x3D73 JUMP JUMPDEST PUSH0 DUP5 DUP2 MSTORE PUSH1 0x20 DUP2 KECCAK256 PUSH1 0x1F NOT DUP6 AND SWAP2 JUMPDEST DUP3 DUP2 LT ISZERO PUSH2 0x3E08 JUMPI DUP8 DUP6 ADD MLOAD DUP3 SSTORE PUSH1 0x20 SWAP5 DUP6 ADD SWAP5 PUSH1 0x1 SWAP1 SWAP3 ADD SWAP2 ADD PUSH2 0x3DE8 JUMP JUMPDEST POP DUP5 DUP3 LT ISZERO PUSH2 0x3E25 JUMPI DUP7 DUP5 ADD MLOAD PUSH0 NOT PUSH1 0x3 DUP8 SWAP1 SHL PUSH1 0xF8 AND SHR NOT AND DUP2 SSTORE JUMPDEST POP POP POP POP PUSH1 0x1 SWAP1 DUP2 SHL ADD SWAP1 SSTORE POP JUMP JUMPDEST PUSH0 PUSH0 DUP4 SLOAD PUSH2 0x3E41 DUP2 PUSH2 0x3CF7 JUMP JUMPDEST PUSH1 0x1 DUP3 AND DUP1 ISZERO PUSH2 0x3E58 JUMPI PUSH1 0x1 DUP2 EQ PUSH2 0x3E6D JUMPI PUSH2 0x3E9A JUMP JUMPDEST PUSH1 0xFF NOT DUP4 AND DUP7 MSTORE DUP2 ISZERO ISZERO DUP3 MUL DUP7 ADD SWAP4 POP PUSH2 0x3E9A JUMP JUMPDEST DUP7 PUSH0 MSTORE PUSH1 0x20 PUSH0 KECCAK256 PUSH0 JUMPDEST DUP4 DUP2 LT ISZERO PUSH2 0x3E92 JUMPI DUP2 SLOAD DUP9 DUP3 ADD MSTORE PUSH1 0x1 SWAP1 SWAP2 ADD SWAP1 PUSH1 0x20 ADD PUSH2 0x3E76 JUMP JUMPDEST POP POP DUP2 DUP7 ADD SWAP4 POP JUMPDEST POP SWAP2 SWAP6 SWAP5 POP POP POP POP POP JUMP JUMPDEST PUSH0 PUSH1 0xFF DUP3 AND PUSH1 0xFF DUP2 SUB PUSH2 0x3EBA JUMPI PUSH2 0x3EBA PUSH2 0x3C5F JUMP JUMPDEST PUSH1 0x1 ADD SWAP3 SWAP2 POP POP JUMP JUMPDEST PUSH1 0xA0 DUP1 DUP3 MSTORE PUSH1 0x8 SWAP1 DUP3 ADD MSTORE PUSH8 0x2A2920A729A322A9 PUSH1 0xC1 SHL PUSH1 0xC0 DUP3 ADD MSTORE PUSH1 0x1 PUSH1 0x1 PUSH1 0xA0 SHL SUB SWAP5 DUP6 AND PUSH1 0x20 DUP3 ADD MSTORE SWAP3 SWAP1 SWAP4 AND PUSH1 0x40 DUP4 ADD MSTORE PUSH1 0x60 DUP3 ADD MSTORE PUSH1 0x80 DUP2 ADD SWAP2 SWAP1 SWAP2 MSTORE PUSH1 0xE0 ADD SWAP1 JUMP JUMPDEST DUP2 DUP2 SUB DUP2 DUP2 GT ISZERO PUSH2 0xAEC JUMPI PUSH2 0xAEC PUSH2 0x3C5F JUMP JUMPDEST PUSH0 DUP2 MLOAD DUP1 DUP5 MSTORE PUSH1 0x20 DUP5 ADD SWAP4 POP PUSH1 0x20 DUP4 ADD PUSH0 JUMPDEST DUP3 DUP2 LT ISZERO PUSH2 0x3F57 JUMPI DUP2 MLOAD PUSH1 0x1 PUSH1 0x1 PUSH1 0xA0 SHL SUB AND DUP7 MSTORE PUSH1 0x20 SWAP6 DUP7 ADD SWAP6 SWAP1 SWAP2 ADD SWAP1 PUSH1 0x1 ADD PUSH2 0x3F30 JUMP JUMPDEST POP SWAP4 SWAP5 SWAP4 POP POP POP POP JUMP JUMPDEST PUSH1 0x20 DUP2 MSTORE PUSH0 PUSH2 0x2D58 PUSH1 0x20 DUP4 ADD DUP5 PUSH2 0x3F1E JUMP JUMPDEST PUSH1 0x40 DUP2 MSTORE PUSH0 PUSH2 0x3F85 PUSH1 0x40 DUP4 ADD DUP6 PUSH2 0x3F1E JUMP JUMPDEST DUP3 DUP2 SUB PUSH1 0x20 DUP5 ADD MSTORE PUSH2 0x3F97 DUP2 DUP6 PUSH2 0x3F1E JUMP JUMPDEST SWAP6 SWAP5 POP POP POP POP POP JUMP JUMPDEST PUSH0 PUSH1 0x1 DUP3 ADD PUSH2 0x3FB1 JUMPI PUSH2 0x3FB1 PUSH2 0x3C5F JUMP JUMPDEST POP PUSH1 0x1 ADD SWAP1 JUMP JUMPDEST DUP1 DUP3 MUL DUP2 ISZERO DUP3 DUP3 DIV DUP5 EQ OR PUSH2 0xAEC JUMPI PUSH2 0xAEC PUSH2 0x3C5F JUMP JUMPDEST PUSH0 DUP3 PUSH2 0x3FE9 JUMPI PUSH4 0x4E487B71 PUSH1 0xE0 SHL PUSH0 MSTORE PUSH1 0x12 PUSH1 0x4 MSTORE PUSH1 0x24 PUSH0 REVERT JUMPDEST POP DIV SWAP1 JUMP JUMPDEST PUSH0 DUP3 PUSH1 0x1F DUP4 ADD SLT PUSH2 0x3FFD JUMPI PUSH0 PUSH0 REVERT JUMPDEST DUP2 MLOAD PUSH1 0x1 PUSH1 0x1 PUSH1 0x40 SHL SUB DUP2 GT ISZERO PUSH2 0x4016 JUMPI PUSH2 0x4016 PUSH2 0x3829 JUMP JUMPDEST PUSH2 0x4029 PUSH1 0x1F DUP3 ADD PUSH1 0x1F NOT AND PUSH1 0x20 ADD PUSH2 0x383D JUMP JUMPDEST DUP2 DUP2 MSTORE DUP5 PUSH1 0x20 DUP4 DUP7 ADD ADD GT ISZERO PUSH2 0x403D JUMPI PUSH0 PUSH0 REVERT JUMPDEST DUP2 PUSH1 0x20 DUP6 ADD PUSH1 0x20 DUP4 ADD MCOPY PUSH0 SWAP2 DUP2 ADD PUSH1 0x20 ADD SWAP2 SWAP1 SWAP2 MSTORE SWAP4 SWAP3 POP POP POP JUMP JUMPDEST PUSH0 PUSH0 PUSH1 0x40 DUP4 DUP6 SUB SLT ISZERO PUSH2 0x406A JUMPI PUSH0 PUSH0 REVERT JUMPDEST DUP3 MLOAD PUSH1 0x1 PUSH1 0x1 PUSH1 0x40 SHL SUB DUP2 GT ISZERO PUSH2 0x407F JUMPI PUSH0 PUSH0 REVERT JUMPDEST PUSH2 0x408B DUP6 DUP3 DUP7 ADD PUSH2 0x3FEE JUMP JUMPDEST SWAP3 POP POP PUSH1 0x20 DUP4 ADD MLOAD PUSH1 0x1 PUSH1 0x1 PUSH1 0x40 SHL SUB DUP2 GT ISZERO PUSH2 0x40A6 JUMPI PUSH0 PUSH0 REVERT JUMPDEST DUP4 ADD PUSH1 0x1F DUP2 ADD DUP6 SGT PUSH2 0x40B6 JUMPI PUSH0 PUSH0 REVERT JUMPDEST DUP1 MLOAD PUSH2 0x40C4 PUSH2 0x38F4 DUP3 PUSH2 0x386D JUMP JUMPDEST DUP1 DUP3 DUP3 MSTORE PUSH1 0x20 DUP3 ADD SWAP2 POP PUSH1 0x20 DUP4 PUSH1 0x5 SHL DUP6 ADD ADD SWAP3 POP DUP8 DUP4 GT ISZERO PUSH2 0x40E5 JUMPI PUSH0 PUSH0 REVERT JUMPDEST PUSH1 0x20 DUP5 ADD SWAP4 POP JUMPDEST DUP3 DUP5 LT ISZERO PUSH2 0x4110 JUMPI DUP4 MLOAD PUSH2 0x40FF DUP2 PUSH2 0x388F JUMP JUMPDEST DUP3 MSTORE PUSH1 0x20 SWAP4 DUP5 ADD SWAP4 SWAP1 SWAP2 ADD SWAP1 PUSH2 0x40EC JUMP JUMPDEST DUP1 SWAP5 POP POP POP POP POP SWAP3 POP SWAP3 SWAP1 POP JUMP JUMPDEST PUSH0 PUSH0 PUSH0 PUSH0 PUSH0 PUSH1 0xA0 DUP7 DUP9 SUB SLT ISZERO PUSH2 0x4132 JUMPI PUSH0 PUSH0 REVERT JUMPDEST DUP6 MLOAD PUSH1 0x1 PUSH1 0x1 PUSH1 0x40 SHL SUB DUP2 GT ISZERO PUSH2 0x4147 JUMPI PUSH0 PUSH0 REVERT JUMPDEST PUSH2 0x4153 DUP9 DUP3 DUP10 ADD PUSH2 0x3FEE JUMP JUMPDEST SWAP6 POP POP PUSH1 0x20 DUP7 ADD MLOAD PUSH2 0x4164 DUP2 PUSH2 0x388F JUMP JUMPDEST PUSH1 0x40 DUP8 ADD MLOAD SWAP1 SWAP5 POP PUSH2 0x4175 DUP2 PUSH2 0x388F JUMP JUMPDEST PUSH1 0x60 DUP8 ADD MLOAD PUSH1 0x80 SWAP1 SWAP8 ADD MLOAD SWAP6 SWAP9 SWAP5 SWAP8 POP SWAP6 SWAP5 SWAP4 SWAP3 POP POP POP JUMP JUMPDEST PUSH0 PUSH0 PUSH0 PUSH0 PUSH1 0x80 DUP6 DUP8 SUB SLT ISZERO PUSH2 0x41A1 JUMPI PUSH0 PUSH0 REVERT JUMPDEST DUP5 MLOAD PUSH1 0x1 PUSH1 0x1 PUSH1 0x40 SHL SUB DUP2 GT ISZERO PUSH2 0x41B6 JUMPI PUSH0 PUSH0 REVERT JUMPDEST PUSH2 0x41C2 DUP8 DUP3 DUP9 ADD PUSH2 0x3FEE JUMP JUMPDEST SWAP5 POP POP PUSH1 0x20 DUP6 ADD MLOAD PUSH2 0x41D3 DUP2 PUSH2 0x388F JUMP JUMPDEST PUSH1 0x40 DUP7 ADD MLOAD SWAP1 SWAP4 POP PUSH2 0x41E4 DUP2 PUSH2 0x388F JUMP JUMPDEST PUSH1 0x60 SWAP6 SWAP1 SWAP6 ADD MLOAD SWAP4 SWAP7 SWAP3 SWAP6 POP POP POP JUMP JUMPDEST PUSH0 DUP3 MLOAD DUP1 PUSH1 0x20 DUP6 ADD DUP5 MCOPY PUSH0 SWAP3 ADD SWAP2 DUP3 MSTORE POP SWAP2 SWAP1 POP JUMP JUMPDEST PUSH0 PUSH1 0x20 DUP3 DUP5 SUB SLT ISZERO PUSH2 0x421A JUMPI PUSH0 PUSH0 REVERT JUMPDEST POP MLOAD SWAP2 SWAP1 POP JUMP JUMPDEST PUSH0 PUSH1 0x20 DUP3 DUP5 SUB SLT ISZERO PUSH2 0x4231 JUMPI PUSH0 PUSH0 REVERT JUMPDEST DUP2 MLOAD PUSH2 0x2D58 DUP2 PUSH2 0x397D JUMP INVALID PUSH28 0x1BCF1CCF901A11589AFFF5504D59FD0A53780EED2A952ADADE034898 MLOAD CODECOPY RJUMP 0xA15F BLOBHASH SWAPN 0xE7 EXTCALL CALLER 0xC9 PUSH26 0x5F12C74A559A980F5A3077671216C0AB946965CC5592194B4690 DUP4 0xB7 0xFC MUL DUP15 DELEGATECALL 0xF7 0xD2 PUSH11 0x6D9BEBAC1069D4328D1ACE EXTSTATICCALL RETF 0xAF MSTORE8 0xDB SDIV 0xAC CALLCODE 0xE LOG2 PUSH5 0x6970667358 0x22 SLT KECCAK256 0xD8 CREATE2 PUSH29 0xA28A19FB725F8BD6DB27CE12AA3166ED24425AC08378A7C100E4E02A62 PUSH5 0x736F6C6343 STOP ADDMOD 0x1E STOP CALLER "
		},
		"gasEstimates": {
			"creation": {
				"codeDepositCost": "3421200",
				"executionCost": "infinite",
				"totalCost": "infinite"
			},
			"external": {
				"": "207",
				"EMERGENCY_TIMEOUT()": "284",
				"MAX_AUTHORIZED_ADDRESSES()": "263",
				"MAX_DAILY_USER_SUBSIDY()": "328",
				"MAX_SLIPPAGE_BPS()": "327",
				"TIMEOUT_SECONDS()": "238",
				"authorizedAddresses(uint256)": "4699",
				"authorizedCount()": "2348",
				"cancelProposal(bytes32)": "39150",
				"checkProposalStatus(bytes32)": "2739",
				"configureGasSubsidy(bool,uint256,uint256)": "infinite",
				"dailySubsidyLimit()": "2361",
				"dailyTotalUsage(uint256)": "2481",
				"dailyUserUsage(address,uint256)": "2647",
				"deployer()": "infinite",
				"depositGasSubsidy()": "27902",
				"emergencyResetOwners(address[])": "infinite",
				"emergencyWithdraw(bytes32,address,address,uint256)": "infinite",
				"executeMetaTransaction(address,bytes,uint256,address,address,uint256,uint256)": "infinite",
				"gasSubsidyEnabled()": "2420",
				"gasSubsidyPool()": "2426",
				"gasSubsidyUsed(address)": "2621",
				"getBalance(address)": "infinite",
				"getRequiredApprovals()": "infinite",
				"hasApproved(bytes32,address)": "2730",
				"initialized()": "2433",
				"isAuthorized(address)": "2632",
				"lastOwnershipRotation()": "2340",
				"maxGasSubsidy()": "2360",
				"multisigTransfer(uint256,address,address,uint256,uint256)": "infinite",
				"pause()": "infinite",
				"paused()": "2409",
				"proposalNonce()": "2339",
				"proposals(bytes32)": "infinite",
				"proposeNextOwners(uint256,address[])": "infinite",
				"setAuthorizedAddresses(address[])": "infinite",
				"setTrustedForwarder(address)": "infinite",
				"trustedForwarder()": "2404",
				"unpause()": "infinite",
				"withdrawGasSubsidy(uint256)": "infinite"
			},
			"internal": {
				"_calculateRequiredApprovals()": "infinite",
				"_executeEmergencyWithdraw(bytes32,bytes memory)": "infinite",
				"_executeMetaMultisigTransfer(address,uint256,address,address,uint256,uint256)": "infinite",
				"_executeOwnershipRotation(bytes memory)": "infinite",
				"_executeTransfer(bytes memory)": "infinite",
				"_generateProposalId(uint256,address)": "infinite",
				"_getERC20Balance(address,address)": "infinite",
				"_msgSender()": "infinite",
				"_payGasFromPool(address)": "infinite",
				"_recoverSigner(bytes32,bytes calldata)": "infinite",
				"_safeERC20Transfer(address,address,uint256)": "infinite",
				"_safeERC20TransferWithSlippage(address,address,uint256,uint256)": "infinite",
				"_validateERC20Contract(address)": "infinite"
			}
		},
		"methodIdentifiers": {
			"EMERGENCY_TIMEOUT()": "7f264076",
			"MAX_AUTHORIZED_ADDRESSES()": "14f64796",
			"MAX_DAILY_USER_SUBSIDY()": "2bee5fab",
			"MAX_SLIPPAGE_BPS()": "e229cd76",
			"TIMEOUT_SECONDS()": "e615193a",
			"authorizedAddresses(uint256)": "95874631",
			"authorizedCount()": "13270bb8",
			"cancelProposal(bytes32)": "37376ca8",
			"checkProposalStatus(bytes32)": "c66da997",
			"configureGasSubsidy(bool,uint256,uint256)": "241b1695",
			"dailySubsidyLimit()": "d56d6810",
			"dailyTotalUsage(uint256)": "2e2b4fef",
			"dailyUserUsage(address,uint256)": "4bfea816",
			"deployer()": "d5f39488",
			"depositGasSubsidy()": "1bdd0702",
			"emergencyResetOwners(address[])": "8dbc4515",
			"emergencyWithdraw(bytes32,address,address,uint256)": "7f917d0b",
			"executeMetaTransaction(address,bytes,uint256,address,address,uint256,uint256)": "4c88848a",
			"gasSubsidyEnabled()": "afcdb131",
			"gasSubsidyPool()": "feb5c1de",
			"gasSubsidyUsed(address)": "6b696d86",
			"getBalance(address)": "f8b2cb4f",
			"getRequiredApprovals()": "8b1e24ab",
			"hasApproved(bytes32,address)": "23cdc3f1",
			"initialized()": "158ef93e",
			"isAuthorized(address)": "fe9fbb80",
			"lastOwnershipRotation()": "79c8bfa5",
			"maxGasSubsidy()": "e9411223",
			"multisigTransfer(uint256,address,address,uint256,uint256)": "30aae043",
			"pause()": "8456cb59",
			"paused()": "5c975abb",
			"proposalNonce()": "cc3c74a1",
			"proposals(bytes32)": "32ed5b12",
			"proposeNextOwners(uint256,address[])": "29c8daee",
			"setAuthorizedAddresses(address[])": "151ee122",
			"setTrustedForwarder(address)": "da742228",
			"trustedForwarder()": "7da0a877",
			"unpause()": "3f4ba83a",
			"withdrawGasSubsidy(uint256)": "75b3a9ba"
		}
	},
	"abi": [
		{
			"inputs": [],
			"stateMutability": "nonpayable",
			"type": "constructor"
		},
		{
			"inputs": [],
			"name": "AlreadyApproved",
			"type": "error"
		},
		{
			"inputs": [],
			"name": "AlreadyExecuted",
			"type": "error"
		},
		{
			"inputs": [],
			"name": "AlreadyInitialized",
			"type": "error"
		},
		{
			"inputs": [],
			"name": "CannotCancelExecuted",
			"type": "error"
		},
		{
			"inputs": [],
			"name": "ContractPausedError",
			"type": "error"
		},
		{
			"inputs": [],
			"name": "CurrentOwnerCannotBeNewOwner",
			"type": "error"
		},
		{
			"inputs": [],
			"name": "DeployerCannotBeAuthorized",
			"type": "error"
		},
		{
			"inputs": [],
			"name": "DuplicateAddress",
			"type": "error"
		},
		{
			"inputs": [],
			"name": "EmergencyTimeoutNotReached",
			"type": "error"
		},
		{
			"inputs": [],
			"name": "InsufficientAddresses",
			"type": "error"
		},
		{
			"inputs": [],
			"name": "InsufficientBalance",
			"type": "error"
		},
		{
			"inputs": [],
			"name": "InvalidAction",
			"type": "error"
		},
		{
			"inputs": [],
			"name": "InvalidAddress",
			"type": "error"
		},
		{
			"inputs": [],
			"name": "InvalidAmount",
			"type": "error"
		},
		{
			"inputs": [],
			"name": "InvalidSignature",
			"type": "error"
		},
		{
			"inputs": [],
			"name": "InvalidSlippageBps",
			"type": "error"
		},
		{
			"inputs": [],
			"name": "InvalidTokenContract",
			"type": "error"
		},
		{
			"inputs": [],
			"name": "NotAuthorized",
			"type": "error"
		},
		{
			"inputs": [],
			"name": "NotDeployer",
			"type": "error"
		},
		{
			"inputs": [],
			"name": "NotInitialized",
			"type": "error"
		},
		{
			"inputs": [],
			"name": "OnlyProposerCanCancel",
			"type": "error"
		},
		{
			"inputs": [],
			"name": "ProposalDataMismatch",
			"type": "error"
		},
		{
			"inputs": [],
			"name": "ProposalExpired",
			"type": "error"
		},
		{
			"inputs": [],
			"name": "ReentrancyGuard",
			"type": "error"
		},
		{
			"inputs": [
				{
					"internalType": "address",
					"name": "token",
					"type": "address"
				}
			],
			"name": "SafeERC20FailedOperation",
			"type": "error"
		},
		{
			"inputs": [],
			"name": "SlippageExceeded",
			"type": "error"
		},
		{
			"inputs": [],
			"name": "TooManyAddresses",
			"type": "error"
		},
		{
			"inputs": [],
			"name": "TransferFailed",
			"type": "error"
		},
		{
			"inputs": [],
			"name": "ZeroAddressForwarder",
			"type": "error"
		},
		{
			"anonymous": false,
			"inputs": [
				{
					"indexed": true,
					"internalType": "address",
					"name": "account",
					"type": "address"
				},
				{
					"indexed": true,
					"internalType": "address",
					"name": "grantor",
					"type": "address"
				}
			],
			"name": "AuthorizationGranted",
			"type": "event"
		},
		{
			"anonymous": false,
			"inputs": [
				{
					"indexed": true,
					"internalType": "address",
					"name": "account",
					"type": "address"
				},
				{
					"indexed": true,
					"internalType": "address",
					"name": "revoker",
					"type": "address"
				}
			],
			"name": "AuthorizationRevoked",
			"type": "event"
		},
		{
			"anonymous": false,
			"inputs": [
				{
					"indexed": true,
					"internalType": "address",
					"name": "by",
					"type": "address"
				}
			],
			"name": "ContractPaused",
			"type": "event"
		},
		{
			"anonymous": false,
			"inputs": [
				{
					"indexed": true,
					"internalType": "address",
					"name": "by",
					"type": "address"
				}
			],
			"name": "ContractUnpaused",
			"type": "event"
		},
		{
			"anonymous": false,
			"inputs": [
				{
					"indexed": true,
					"internalType": "address",
					"name": "depositor",
					"type": "address"
				},
				{
					"indexed": false,
					"internalType": "uint256",
					"name": "amount",
					"type": "uint256"
				}
			],
			"name": "ETHDeposited",
			"type": "event"
		},
		{
			"anonymous": false,
			"inputs": [
				{
					"indexed": true,
					"internalType": "address",
					"name": "deployer",
					"type": "address"
				},
				{
					"indexed": false,
					"internalType": "address[]",
					"name": "newOwners",
					"type": "address[]"
				}
			],
			"name": "EmergencyRecoveryTriggered",
			"type": "event"
		},
		{
			"anonymous": false,
			"inputs": [
				{
					"indexed": true,
					"internalType": "address",
					"name": "token",
					"type": "address"
				},
				{
					"indexed": true,
					"internalType": "address",
					"name": "to",
					"type": "address"
				},
				{
					"indexed": false,
					"internalType": "uint256",
					"name": "amount",
					"type": "uint256"
				}
			],
			"name": "EmergencyWithdrawal",
			"type": "event"
		},
		{
			"anonymous": false,
			"inputs": [
				{
					"indexed": false,
					"internalType": "bool",
					"name": "enabled",
					"type": "bool"
				},
				{
					"indexed": false,
					"internalType": "uint256",
					"name": "maxSubsidy",
					"type": "uint256"
				}
			],
			"name": "GasSubsidyConfigured",
			"type": "event"
		},
		{
			"anonymous": false,
			"inputs": [
				{
					"indexed": false,
					"internalType": "uint256",
					"name": "amount",
					"type": "uint256"
				},
				{
					"indexed": false,
					"internalType": "uint256",
					"name": "newTotal",
					"type": "uint256"
				}
			],
			"name": "GasSubsidyDeposited",
			"type": "event"
		},
		{
			"anonymous": false,
			"inputs": [
				{
					"indexed": true,
					"internalType": "address",
					"name": "user",
					"type": "address"
				},
				{
					"indexed": false,
					"internalType": "uint256",
					"name": "gasCost",
					"type": "uint256"
				},
				{
					"indexed": false,
					"internalType": "uint256",
					"name": "totalUsed",
					"type": "uint256"
				}
			],
			"name": "GasSubsidyUsed",
			"type": "event"
		},
		{
			"anonymous": false,
			"inputs": [
				{
					"indexed": false,
					"internalType": "uint256",
					"name": "amount",
					"type": "uint256"
				},
				{
					"indexed": false,
					"internalType": "uint256",
					"name": "remaining",
					"type": "uint256"
				}
			],
			"name": "GasSubsidyWithdrawn",
			"type": "event"
		},
		{
			"anonymous": false,
			"inputs": [
				{
					"indexed": false,
					"internalType": "address[]",
					"name": "oldOwners",
					"type": "address[]"
				},
				{
					"indexed": false,
					"internalType": "address[]",
					"name": "newOwners",
					"type": "address[]"
				}
			],
			"name": "OwnersRotated",
			"type": "event"
		},
		{
			"anonymous": false,
			"inputs": [
				{
					"indexed": true,
					"internalType": "bytes32",
					"name": "proposalId",
					"type": "bytes32"
				},
				{
					"indexed": true,
					"internalType": "address",
					"name": "approver",
					"type": "address"
				},
				{
					"indexed": false,
					"internalType": "uint8",
					"name": "approvalCount",
					"type": "uint8"
				}
			],
			"name": "ProposalApproved",
			"type": "event"
		},
		{
			"anonymous": false,
			"inputs": [
				{
					"indexed": true,
					"internalType": "bytes32",
					"name": "proposalId",
					"type": "bytes32"
				},
				{
					"indexed": true,
					"internalType": "address",
					"name": "canceller",
					"type": "address"
				}
			],
			"name": "ProposalCancelled",
			"type": "event"
		},
		{
			"anonymous": false,
			"inputs": [
				{
					"indexed": true,
					"internalType": "bytes32",
					"name": "proposalId",
					"type": "bytes32"
				},
				{
					"indexed": true,
					"internalType": "address",
					"name": "creator",
					"type": "address"
				},
				{
					"indexed": false,
					"internalType": "uint40",
					"name": "deadline",
					"type": "uint40"
				}
			],
			"name": "ProposalCreated",
			"type": "event"
		},
		{
			"anonymous": false,
			"inputs": [
				{
					"indexed": true,
					"internalType": "bytes32",
					"name": "proposalId",
					"type": "bytes32"
				}
			],
			"name": "ProposalExecuted",
			"type": "event"
		},
		{
			"anonymous": false,
			"inputs": [
				{
					"indexed": true,
					"internalType": "bytes32",
					"name": "proposalId",
					"type": "bytes32"
				},
				{
					"indexed": true,
					"internalType": "address",
					"name": "generator",
					"type": "address"
				},
				{
					"indexed": false,
					"internalType": "uint256",
					"name": "nonce",
					"type": "uint256"
				}
			],
			"name": "ProposalIdGenerated",
			"type": "event"
		},
		{
			"anonymous": false,
			"inputs": [
				{
					"indexed": true,
					"internalType": "address",
					"name": "token",
					"type": "address"
				},
				{
					"indexed": true,
					"internalType": "address",
					"name": "to",
					"type": "address"
				},
				{
					"indexed": false,
					"internalType": "uint256",
					"name": "expectedAmount",
					"type": "uint256"
				},
				{
					"indexed": false,
					"internalType": "uint256",
					"name": "actualAmount",
					"type": "uint256"
				}
			],
			"name": "TransferExecuted",
			"type": "event"
		},
		{
			"anonymous": false,
			"inputs": [
				{
					"indexed": true,
					"internalType": "address",
					"name": "oldForwarder",
					"type": "address"
				},
				{
					"indexed": true,
					"internalType": "address",
					"name": "newForwarder",
					"type": "address"
				}
			],
			"name": "TrustedForwarderUpdated",
			"type": "event"
		},
		{
			"stateMutability": "payable",
			"type": "fallback"
		},
		{
			"inputs": [],
			"name": "EMERGENCY_TIMEOUT",
			"outputs": [
				{
					"internalType": "uint256",
					"name": "",
					"type": "uint256"
				}
			],
			"stateMutability": "view",
			"type": "function"
		},
		{
			"inputs": [],
			"name": "MAX_AUTHORIZED_ADDRESSES",
			"outputs": [
				{
					"internalType": "uint256",
					"name": "",
					"type": "uint256"
				}
			],
			"stateMutability": "view",
			"type": "function"
		},
		{
			"inputs": [],
			"name": "MAX_DAILY_USER_SUBSIDY",
			"outputs": [
				{
					"internalType": "uint256",
					"name": "",
					"type": "uint256"
				}
			],
			"stateMutability": "view",
			"type": "function"
		},
		{
			"inputs": [],
			"name": "MAX_SLIPPAGE_BPS",
			"outputs": [
				{
					"internalType": "uint256",
					"name": "",
					"type": "uint256"
				}
			],
			"stateMutability": "view",
			"type": "function"
		},
		{
			"inputs": [],
			"name": "TIMEOUT_SECONDS",
			"outputs": [
				{
					"internalType": "uint256",
					"name": "",
					"type": "uint256"
				}
			],
			"stateMutability": "view",
			"type": "function"
		},
		{
			"inputs": [
				{
					"internalType": "uint256",
					"name": "",
					"type": "uint256"
				}
			],
			"name": "authorizedAddresses",
			"outputs": [
				{
					"internalType": "address",
					"name": "",
					"type": "address"
				}
			],
			"stateMutability": "view",
			"type": "function"
		},
		{
			"inputs": [],
			"name": "authorizedCount",
			"outputs": [
				{
					"internalType": "uint8",
					"name": "",
					"type": "uint8"
				}
			],
			"stateMutability": "view",
			"type": "function"
		},
		{
			"inputs": [
				{
					"internalType": "bytes32",
					"name": "proposalId",
					"type": "bytes32"
				}
			],
			"name": "cancelProposal",
			"outputs": [],
			"stateMutability": "nonpayable",
			"type": "function"
		},
		{
			"inputs": [
				{
					"internalType": "bytes32",
					"name": "proposalId",
					"type": "bytes32"
				}
			],
			"name": "checkProposalStatus",
			"outputs": [
				{
					"internalType": "uint8",
					"name": "approvalCount",
					"type": "uint8"
				},
				{
					"internalType": "uint40",
					"name": "deadline",
					"type": "uint40"
				},
				{
					"internalType": "bool",
					"name": "executed",
					"type": "bool"
				},
				{
					"internalType": "bool",
					"name": "expired",
					"type": "bool"
				}
			],
			"stateMutability": "view",
			"type": "function"
		},
		{
			"inputs": [
				{
					"internalType": "bool",
					"name": "enabled",
					"type": "bool"
				},
				{
					"internalType": "uint256",
					"name": "maxSubsidy",
					"type": "uint256"
				},
				{
					"internalType": "uint256",
					"name": "dailyLimit",
					"type": "uint256"
				}
			],
			"name": "configureGasSubsidy",
			"outputs": [],
			"stateMutability": "nonpayable",
			"type": "function"
		},
		{
			"inputs": [],
			"name": "dailySubsidyLimit",
			"outputs": [
				{
					"internalType": "uint256",
					"name": "",
					"type": "uint256"
				}
			],
			"stateMutability": "view",
			"type": "function"
		},
		{
			"inputs": [
				{
					"internalType": "uint256",
					"name": "",
					"type": "uint256"
				}
			],
			"name": "dailyTotalUsage",
			"outputs": [
				{
					"internalType": "uint256",
					"name": "",
					"type": "uint256"
				}
			],
			"stateMutability": "view",
			"type": "function"
		},
		{
			"inputs": [
				{
					"internalType": "address",
					"name": "",
					"type": "address"
				},
				{
					"internalType": "uint256",
					"name": "",
					"type": "uint256"
				}
			],
			"name": "dailyUserUsage",
			"outputs": [
				{
					"internalType": "uint256",
					"name": "",
					"type": "uint256"
				}
			],
			"stateMutability": "view",
			"type": "function"
		},
		{
			"inputs": [],
			"name": "deployer",
			"outputs": [
				{
					"internalType": "address",
					"name": "",
					"type": "address"
				}
			],
			"stateMutability": "view",
			"type": "function"
		},
		{
			"inputs": [],
			"name": "depositGasSubsidy",
			"outputs": [],
			"stateMutability": "payable",
			"type": "function"
		},
		{
			"inputs": [
				{
					"internalType": "address[]",
					"name": "_addresses",
					"type": "address[]"
				}
			],
			"name": "emergencyResetOwners",
			"outputs": [],
			"stateMutability": "nonpayable",
			"type": "function"
		},
		{
			"inputs": [
				{
					"internalType": "bytes32",
					"name": "proposalId",
					"type": "bytes32"
				},
				{
					"internalType": "address",
					"name": "token",
					"type": "address"
				},
				{
					"internalType": "address",
					"name": "to",
					"type": "address"
				},
				{
					"internalType": "uint256",
					"name": "amount",
					"type": "uint256"
				}
			],
			"name": "emergencyWithdraw",
			"outputs": [],
			"stateMutability": "nonpayable",
			"type": "function"
		},
		{
			"inputs": [
				{
					"internalType": "address",
					"name": "user",
					"type": "address"
				},
				{
					"internalType": "bytes",
					"name": "signature",
					"type": "bytes"
				},
				{
					"internalType": "uint256",
					"name": "nonce",
					"type": "uint256"
				},
				{
					"internalType": "address",
					"name": "token",
					"type": "address"
				},
				{
					"internalType": "address",
					"name": "to",
					"type": "address"
				},
				{
					"internalType": "uint256",
					"name": "amount",
					"type": "uint256"
				},
				{
					"internalType": "uint256",
					"name": "slippageBps",
					"type": "uint256"
				}
			],
			"name": "executeMetaTransaction",
			"outputs": [],
			"stateMutability": "nonpayable",
			"type": "function"
		},
		{
			"inputs": [],
			"name": "gasSubsidyEnabled",
			"outputs": [
				{
					"internalType": "bool",
					"name": "",
					"type": "bool"
				}
			],
			"stateMutability": "view",
			"type": "function"
		},
		{
			"inputs": [],
			"name": "gasSubsidyPool",
			"outputs": [
				{
					"internalType": "uint256",
					"name": "",
					"type": "uint256"
				}
			],
			"stateMutability": "view",
			"type": "function"
		},
		{
			"inputs": [
				{
					"internalType": "address",
					"name": "",
					"type": "address"
				}
			],
			"name": "gasSubsidyUsed",
			"outputs": [
				{
					"internalType": "uint256",
					"name": "",
					"type": "uint256"
				}
			],
			"stateMutability": "view",
			"type": "function"
		},
		{
			"inputs": [
				{
					"internalType": "address",
					"name": "token",
					"type": "address"
				}
			],
			"name": "getBalance",
			"outputs": [
				{
					"internalType": "uint256",
					"name": "",
					"type": "uint256"
				}
			],
			"stateMutability": "view",
			"type": "function"
		},
		{
			"inputs": [],
			"name": "getRequiredApprovals",
			"outputs": [
				{
					"internalType": "uint8",
					"name": "",
					"type": "uint8"
				}
			],
			"stateMutability": "view",
			"type": "function"
		},
		{
			"inputs": [
				{
					"internalType": "bytes32",
					"name": "proposalId",
					"type": "bytes32"
				},
				{
					"internalType": "address",
					"name": "addr",
					"type": "address"
				}
			],
			"name": "hasApproved",
			"outputs": [
				{
					"internalType": "bool",
					"name": "",
					"type": "bool"
				}
			],
			"stateMutability": "view",
			"type": "function"
		},
		{
			"inputs": [],
			"name": "initialized",
			"outputs": [
				{
					"internalType": "bool",
					"name": "",
					"type": "bool"
				}
			],
			"stateMutability": "view",
			"type": "function"
		},
		{
			"inputs": [
				{
					"internalType": "address",
					"name": "",
					"type": "address"
				}
			],
			"name": "isAuthorized",
			"outputs": [
				{
					"internalType": "bool",
					"name": "",
					"type": "bool"
				}
			],
			"stateMutability": "view",
			"type": "function"
		},
		{
			"inputs": [],
			"name": "lastOwnershipRotation",
			"outputs": [
				{
					"internalType": "uint256",
					"name": "",
					"type": "uint256"
				}
			],
			"stateMutability": "view",
			"type": "function"
		},
		{
			"inputs": [],
			"name": "maxGasSubsidy",
			"outputs": [
				{
					"internalType": "uint256",
					"name": "",
					"type": "uint256"
				}
			],
			"stateMutability": "view",
			"type": "function"
		},
		{
			"inputs": [
				{
					"internalType": "uint256",
					"name": "nonce",
					"type": "uint256"
				},
				{
					"internalType": "address",
					"name": "token",
					"type": "address"
				},
				{
					"internalType": "address",
					"name": "to",
					"type": "address"
				},
				{
					"internalType": "uint256",
					"name": "amount",
					"type": "uint256"
				},
				{
					"internalType": "uint256",
					"name": "slippageBps",
					"type": "uint256"
				}
			],
			"name": "multisigTransfer",
			"outputs": [],
			"stateMutability": "nonpayable",
			"type": "function"
		},
		{
			"inputs": [],
			"name": "pause",
			"outputs": [],
			"stateMutability": "nonpayable",
			"type": "function"
		},
		{
			"inputs": [],
			"name": "paused",
			"outputs": [
				{
					"internalType": "bool",
					"name": "",
					"type": "bool"
				}
			],
			"stateMutability": "view",
			"type": "function"
		},
		{
			"inputs": [],
			"name": "proposalNonce",
			"outputs": [
				{
					"internalType": "uint256",
					"name": "",
					"type": "uint256"
				}
			],
			"stateMutability": "view",
			"type": "function"
		},
		{
			"inputs": [
				{
					"internalType": "bytes32",
					"name": "",
					"type": "bytes32"
				}
			],
			"name": "proposals",
			"outputs": [
				{
					"internalType": "uint8",
					"name": "approvalCount",
					"type": "uint8"
				},
				{
					"internalType": "uint40",
					"name": "deadline",
					"type": "uint40"
				},
				{
					"internalType": "bool",
					"name": "executed",
					"type": "bool"
				},
				{
					"internalType": "bool",
					"name": "cancelled",
					"type": "bool"
				},
				{
					"internalType": "address",
					"name": "proposer",
					"type": "address"
				},
				{
					"internalType": "bytes",
					"name": "data",
					"type": "bytes"
				}
			],
			"stateMutability": "view",
			"type": "function"
		},
		{
			"inputs": [
				{
					"internalType": "uint256",
					"name": "nonce",
					"type": "uint256"
				},
				{
					"internalType": "address[]",
					"name": "newOwners",
					"type": "address[]"
				}
			],
			"name": "proposeNextOwners",
			"outputs": [],
			"stateMutability": "nonpayable",
			"type": "function"
		},
		{
			"inputs": [
				{
					"internalType": "address[]",
					"name": "_addresses",
					"type": "address[]"
				}
			],
			"name": "setAuthorizedAddresses",
			"outputs": [],
			"stateMutability": "nonpayable",
			"type": "function"
		},
		{
			"inputs": [
				{
					"internalType": "address",
					"name": "forwarder",
					"type": "address"
				}
			],
			"name": "setTrustedForwarder",
			"outputs": [],
			"stateMutability": "nonpayable",
			"type": "function"
		},
		{
			"inputs": [],
			"name": "trustedForwarder",
			"outputs": [
				{
					"internalType": "address",
					"name": "",
					"type": "address"
				}
			],
			"stateMutability": "view",
			"type": "function"
		},
		{
			"inputs": [],
			"name": "unpause",
			"outputs": [],
			"stateMutability": "nonpayable",
			"type": "function"
		},
		{
			"inputs": [
				{
					"internalType": "uint256",
					"name": "amount",
					"type": "uint256"
				}
			],
			"name": "withdrawGasSubsidy",
			"outputs": [],
			"stateMutability": "nonpayable",
			"type": "function"
		},
		{
			"stateMutability": "payable",
			"type": "receive"
		}
	]
}