{
    "contractName": "demosStation",
    "abi": [
        {
            "inputs": [
                {
                    "internalType": "uint256",
                    "name": "chainID",
                    "type": "uint256"
                }
            ],
            "stateMutability": "nonpayable",
            "type": "constructor"
        },
        {
            "inputs": [
                {
                    "internalType": "address",
                    "name": "new_owner",
                    "type": "address"
                }
            ],
            "name": "setOwner",
            "outputs": [],
            "stateMutability": "nonpayable",
            "type": "function"
        },
        {
            "inputs": [],
            "name": "state",
            "outputs": [
                {
                    "internalType": "bytes",
                    "name": "udid",
                    "type": "bytes"
                },
                {
                    "internalType": "uint256",
                    "name": "chain",
                    "type": "uint256"
                }
            ],
            "stateMutability": "view",
            "type": "function"
        }
    ],
    "bytecode": "60c0604052600d60809081526c2222a6a7a99029ba30ba34b7b760991b60a05260039061002c908261017a565b5034801561003957600080fd5b506040516104b53803806104b583398101604081905261005891610239565b600080546001600160a01b031916339081179091556002829055429082610080600143610252565b406040516020016100b7949392919093845260609290921b6001600160601b03191660208401526034830152605482015260740190565b60408051601f198184030181529190526001906100d4908261017a565b5050610279565b634e487b7160e01b600052604160045260246000fd5b600181811c9082168061010557607f821691505b60208210810361012557634e487b7160e01b600052602260045260246000fd5b50919050565b601f82111561017557600081815260208120601f850160051c810160208610156101525750805b601f850160051c820191505b818110156101715782815560010161015e565b5050505b505050565b81516001600160401b03811115610193576101936100db565b6101a7816101a184546100f1565b8461012b565b602080601f8311600181146101dc57600084156101c45750858301515b600019600386901b1c1916600185901b178555610171565b600085815260208120601f198616915b8281101561020b578886015182559484019460019091019084016101ec565b50858210156102295787850151600019600388901b60f8161c191681555b5050505050600190811b01905550565b60006020828403121561024b57600080fd5b5051919050565b8181038181111561027357634e487b7160e01b600052601160045260246000fd5b92915050565b61022d806102886000396000f3fe608060405234801561001057600080fd5b50600436106100365760003560e01c806313af40351461003b578063c19d93fb14610050575b600080fd5b61004e610049366004610138565b61006f565b005b6100586100a0565b604051610066929190610168565b60405180910390f35b6000546001600160a01b0316330361009d57600080546001600160a01b0319166001600160a01b0383161790555b50565b6001805481906100af906101bd565b80601f01602080910402602001604051908101604052809291908181526020018280546100db906101bd565b80156101285780601f106100fd57610100808354040283529160200191610128565b820191906000526020600020905b81548152906001019060200180831161010b57829003601f168201915b5050505050908060010154905082565b60006020828403121561014a57600080fd5b81356001600160a01b038116811461016157600080fd5b9392505050565b604081526000835180604084015260005b818110156101965760208187018101516060868401015201610179565b506000606082850101526060601f19601f8301168401019150508260208301529392505050565b600181811c908216806101d157607f821691505b6020821081036101f157634e487b7160e01b600052602260045260246000fd5b5091905056fea2646970667358221220cba127199a750c0bfc0627cfb2816bb6a3c788ab4a1230a39a008edb5d30445864736f6c63430008130033",
    "sourcePath": "/home/tcsenpai/Morph-JS/demos/src/features/multichain/chainwares/evmwares/demosStation.sol",
    "compiler": {
        "name": "solc",
        "version": "0.8.19+commit.7dd6d404"
    },
    "functionHashes": {
        "setOwner(address)": "13af4035",
        "state()": "c19d93fb"
    },
    "gasEstimates": {
        "creation": {
            "codeDepositCost": "111400",
            "executionCost": "infinite",
            "totalCost": "infinite"
        },
        "external": {
            "setOwner(address)": "26641",
            "state()": "infinite"
        }
    }
}