{
    "contractName": "secure",
    "abi": [
        {
            "inputs": [
                {
                    "internalType": "address",
                    "name": "new_owner",
                    "type": "address"
                }
            ],
            "name": "setOwner",
            "outputs": [],
            "stateMutability": "nonpayable",
            "type": "function"
        }
    ],
    "bytecode": "608060405234801561001057600080fd5b5060d28061001f6000396000f3fe6080604052348015600f57600080fd5b506004361060285760003560e01c806313af403514602d575b600080fd5b603c6038366004606e565b603e565b005b6000546001600160a01b03163303606b57600080546001600160a01b0319166001600160a01b0383161790555b50565b600060208284031215607f57600080fd5b81356001600160a01b0381168114609557600080fd5b939250505056fea2646970667358221220c0db54ffcbb6dccc891c2a99bb90346aa0abf471101852c73f92dc14d28a4a8564736f6c63430008130033",
    "sourcePath": "/home/tcsenpai/Morph-JS/demos/src/features/multichain/chainwares/evmwares/demosStation.sol",
    "compiler": {
        "name": "solc",
        "version": "0.8.19+commit.7dd6d404"
    },
    "functionHashes": {
        "setOwner(address)": "13af4035"
    },
    "gasEstimates": {
        "creation": {
            "codeDepositCost": "42000",
            "executionCost": "93",
            "totalCost": "42093"
        },
        "external": {
            "setOwner(address)": "26641"
        },
        "internal": {
            "lock()": "infinite",
            "unlock()": "infinite"
        }
    }
}